{
  "transactions": [
    {
      "hash": "0x5c876a69863f7c86127dd9a802249998b83a4e67de2633f51dc3e755307631bb",
      "transactionType": "CREATE",
      "contractName": "DistributionManager",
      "contractAddress": "0x19248d273d394b523ef27194d098f15431683800",
      "function": null,
      "arguments": [
        "0x24569d33653c404f90aF10A2b98d6E0030D3d267",
        "0x19ecBc13E899e4952D8e1A24108330d43CC0406D"
      ],
      "transaction": {
        "from": "0x5ea4e6fa3967aafbdeb209cf230abb65b570195a",
        "gas": "0xf0935",
        "value": "0x0",
        "input": "0x60c060405234801561001057600080fd5b50604051610db7380380610db783398101604081905261002f91610127565b6001805460ff191690556001600160a01b03828116608052811660a05261005760003361005f565b50505061015a565b6000828152602081815260408083206001600160a01b038516845290915281205460ff16610101576000838152602081815260408083206001600160a01b03861684529091529020805460ff191660011790556100b93390565b6001600160a01b0316826001600160a01b0316847f2f8788117e7eff1d82e926ec794901d17c78024a50270940304540a733656f0d60405160405180910390a4506001610105565b5060005b92915050565b80516001600160a01b038116811461012257600080fd5b919050565b6000806040838503121561013a57600080fd5b6101438361010b565b91506101516020840161010b565b90509250929050565b60805160a051610c2a61018d600039600081816101b10152610525015260008181610213015261046e0152610c2a6000f3fe608060405234801561001057600080fd5b50600436106101005760003560e01c80638456cb5911610097578063d547741f11610066578063d547741f14610235578063e63ab1e914610248578063ebc6577b1461026f578063f0bd87cc1461028257600080fd5b80638456cb59146101eb57806391d14854146101f3578063a217fddf14610206578063ba5a7be41461020e57600080fd5b806336568abe116100d357806336568abe146101865780633f4ba83a146101995780635c975abb146101a15780636e14f193146101ac57600080fd5b806301ffc9a71461010557806314a8ad541461012d578063248a9ca3146101405780632f2ff15d14610171575b600080fd5b6101186101133660046108d5565b6102a9565b60405190151581526020015b60405180910390f35b61011861013b3660046109bd565b6102e0565b61016361014e3660046109fa565b60009081526020819052604090206001015490565b604051908152602001610124565b61018461017f366004610a2f565b61030b565b005b610184610194366004610a2f565b610336565b61018461036e565b60015460ff16610118565b6101d37f000000000000000000000000000000000000000000000000000000000000000081565b6040516001600160a01b039091168152602001610124565b6101846103a3565b610118610201366004610a2f565b6103d5565b610163600081565b6101d37f000000000000000000000000000000000000000000000000000000000000000081565b610184610243366004610a2f565b6103fe565b6101637f65d7a28e3265b37a6474929f336521b332c1681b933f6cb9f3376673440d862a81565b61018461027d366004610a5b565b610423565b6101637ffbd454f36a7e1a388bd6fc3ab10d434aa4578f811acbbcf33afb1c697486313c81565b60006001600160e01b03198216637965db0b60e01b14806102da57506301ffc9a760e01b6001600160e01b03198316145b92915050565b60006002826040516102f29190610b6d565b9081526040519081900360200190205460ff1692915050565b6000828152602081905260409020600101546103268161061c565b6103308383610626565b50505050565b6001600160a01b038116331461035f5760405163334bd91960e11b815260040160405180910390fd5b61036982826106b8565b505050565b7f65d7a28e3265b37a6474929f336521b332c1681b933f6cb9f3376673440d862a6103988161061c565b6103a0610723565b50565b7f65d7a28e3265b37a6474929f336521b332c1681b933f6cb9f3376673440d862a6103cd8161061c565b6103a0610775565b6000918252602082815260408084206001600160a01b0393909316845291905290205460ff1690565b6000828152602081905260409020600101546104198161061c565b61033083836106b8565b7ffbd454f36a7e1a388bd6fc3ab10d434aa4578f811acbbcf33afb1c697486313c61044d8161061c565b6104556107b0565b61045e866107d6565b831561050f576001600160a01b037f0000000000000000000000000000000000000000000000000000000000000000166323b872dd336040516001600160e01b031960e084901b1681526001600160a01b0391821660048201529088166024820152604481018790526064016020604051808303816000875af11580156104e9573d6000803e3d6000fd5b505050506040513d601f19601f8201168201806040525081019061050d9190610b89565b505b60005b82518110156105dc576001600160a01b037f0000000000000000000000000000000000000000000000000000000000000000166342842e0e338886858151811061055e5761055e610bab565b60209081029190910101516040516001600160e01b031960e086901b1681526001600160a01b0393841660048201529290911660248301526044820152606401600060405180830381600087803b1580156105b857600080fd5b505af11580156105cc573d6000803e3d6000fd5b5050600190920191506105129050565b507f040e04ba083fcc5d428735784fbd0db4fd9a534eb5f80f6afd02a8090329de618660405161060c9190610bc1565b60405180910390a1505050505050565b6103a08133610875565b600061063283836103d5565b6106b0576000838152602081815260408083206001600160a01b03861684529091529020805460ff191660011790556106683390565b6001600160a01b0316826001600160a01b0316847f2f8788117e7eff1d82e926ec794901d17c78024a50270940304540a733656f0d60405160405180910390a45060016102da565b5060006102da565b60006106c483836103d5565b156106b0576000838152602081815260408083206001600160a01b0386168085529252808320805460ff1916905551339286917ff6391f5c32d9c69d2a47ea670b442974b53935d1edc7fd64eb21e047a839171b9190a45060016102da565b61072b6108b2565b6001805460ff191690557f5db9ee0a495bf2e6ff9c91a7834c1ba4fdd244a5e8aa4e537bd38aeae4b073aa335b6040516001600160a01b03909116815260200160405180910390a1565b61077d6107b0565b6001805460ff1916811790557f62e78cea01bee320cd4e420270b5ea74000d11b0c9f74754ebdbfc544b05a25833610758565b60015460ff16156107d45760405163d93c066560e01b815260040160405180910390fd5b565b6107df816102e0565b156108405760405162461bcd60e51b815260206004820152602660248201527f446973747269627574696f6e4d616e616765723a20554944206d75737420626560448201526510333932b29760d11b60648201526084015b60405180910390fd5b60016002826040516108529190610b6d565b908152604051908190036020019020805491151560ff1990921691909117905550565b61087f82826103d5565b6108ae5760405163e2517d3f60e01b81526001600160a01b038216600482015260248101839052604401610837565b5050565b60015460ff166107d457604051638dfc202b60e01b815260040160405180910390fd5b6000602082840312156108e757600080fd5b81356001600160e01b0319811681146108ff57600080fd5b9392505050565b634e487b7160e01b600052604160045260246000fd5b604051601f8201601f1916810167ffffffffffffffff8111828210171561094557610945610906565b604052919050565b600082601f83011261095e57600080fd5b813567ffffffffffffffff81111561097857610978610906565b61098b601f8201601f191660200161091c565b8181528460208386010111156109a057600080fd5b816020850160208301376000918101602001919091529392505050565b6000602082840312156109cf57600080fd5b813567ffffffffffffffff8111156109e657600080fd5b6109f28482850161094d565b949350505050565b600060208284031215610a0c57600080fd5b5035919050565b80356001600160a01b0381168114610a2a57600080fd5b919050565b60008060408385031215610a4257600080fd5b82359150610a5260208401610a13565b90509250929050565b600080600080600060a08688031215610a7357600080fd5b853567ffffffffffffffff80821115610a8b57600080fd5b610a9789838a0161094d565b965060209150610aa8828901610a13565b95506040880135945060608801359350608088013581811115610aca57600080fd5b8801601f81018a13610adb57600080fd5b803582811115610aed57610aed610906565b8060051b9250610afe84840161091c565b818152928201840192848101908c851115610b1857600080fd5b928501925b84841015610b3657833582529285019290850190610b1d565b8096505050505050509295509295909350565b60005b83811015610b64578181015183820152602001610b4c565b50506000910152565b60008251610b7f818460208701610b49565b9190910192915050565b600060208284031215610b9b57600080fd5b815180151581146108ff57600080fd5b634e487b7160e01b600052603260045260246000fd5b6020815260008251806020840152610be0816040850160208701610b49565b601f01601f1916919091016040019291505056fea2646970667358221220bece79c51b2622c444854b21b15c9fa3c7d989990d4ba014cf684b7cd2935eb064736f6c6343000819003300000000000000000000000024569d33653c404f90af10a2b98d6e0030d3d26700000000000000000000000019ecbc13e899e4952d8e1a24108330d43cc0406d",
        "nonce": "0xf",
        "chainId": "0x2105"
      },
      "additionalContracts": [],
      "isFixedGasLimit": false
    },
    {
      "hash": "0xaee919da16d4cefdabef45a51a873fadbebc1f6c1ef9e3fd87873c0cf746d0e0",
      "transactionType": "CALL",
      "contractName": "DistributionManager",
      "contractAddress": "0x19248d273d394b523ef27194d098f15431683800",
      "function": "grantRole(bytes32,address)",
      "arguments": [
        "0x0000000000000000000000000000000000000000000000000000000000000000",
        "0x6bfE9e140C4f5562b97728F54670f8B1dba490Fa"
      ],
      "transaction": {
        "from": "0x5ea4e6fa3967aafbdeb209cf230abb65b570195a",
        "to": "0x19248d273d394b523ef27194d098f15431683800",
        "gas": "0x1243b",
        "value": "0x0",
        "input": "0x2f2ff15d00000000000000000000000000000000000000000000000000000000000000000000000000000000000000006bfe9e140c4f5562b97728f54670f8b1dba490fa",
        "nonce": "0x10",
        "chainId": "0x2105"
      },
      "additionalContracts": [],
      "isFixedGasLimit": false
    },
    {
      "hash": "0x6adcb465deef54de0b7abf478c9939306c319e858413c99e746f6c9723af6d4b",
      "transactionType": "CALL",
      "contractName": "DistributionManager",
      "contractAddress": "0x19248d273d394b523ef27194d098f15431683800",
      "function": "grantRole(bytes32,address)",
      "arguments": [
        "0x65d7a28e3265b37a6474929f336521b332c1681b933f6cb9f3376673440d862a",
        "0xb1a6722B5Bc3B22eF8017a5Bf2787b50a79DC020"
      ],
      "transaction": {
        "from": "0x5ea4e6fa3967aafbdeb209cf230abb65b570195a",
        "to": "0x19248d273d394b523ef27194d098f15431683800",
        "gas": "0x1266c",
        "value": "0x0",
        "input": "0x2f2ff15d65d7a28e3265b37a6474929f336521b332c1681b933f6cb9f3376673440d862a000000000000000000000000b1a6722b5bc3b22ef8017a5bf2787b50a79dc020",
        "nonce": "0x11",
        "chainId": "0x2105"
      },
      "additionalContracts": [],
      "isFixedGasLimit": false
    },
    {
      "hash": "0xfc88af3441e96ef300130f0e3dc1dd57ea1bee012e0314d1e95204b96bd64d32",
      "transactionType": "CALL",
      "contractName": "DistributionManager",
      "contractAddress": "0x19248d273d394b523ef27194d098f15431683800",
      "function": "grantRole(bytes32,address)",
      "arguments": [
        "0xfbd454f36a7e1a388bd6fc3ab10d434aa4578f811acbbcf33afb1c697486313c",
        "0xF734263d5c6153fD6D0467f226a6e4D3AFFC9ac4"
      ],
      "transaction": {
        "from": "0x5ea4e6fa3967aafbdeb209cf230abb65b570195a",
        "to": "0x19248d273d394b523ef27194d098f15431683800",
        "gas": "0x1266c",
        "value": "0x0",
        "input": "0x2f2ff15dfbd454f36a7e1a388bd6fc3ab10d434aa4578f811acbbcf33afb1c697486313c000000000000000000000000f734263d5c6153fd6d0467f226a6e4d3affc9ac4",
        "nonce": "0x12",
        "chainId": "0x2105"
      },
      "additionalContracts": [],
      "isFixedGasLimit": false
    },
    {
      "hash": "0xc1667c25ee9adcf1cda6c8861fe5c359d86c3c0078d49bfef22d264ad4bdbfab",
      "transactionType": "CALL",
      "contractName": "DistributionManager",
      "contractAddress": "0x19248d273d394b523ef27194d098f15431683800",
      "function": "revokeRole(bytes32,address)",
      "arguments": [
        "0x0000000000000000000000000000000000000000000000000000000000000000",
        "0x5ea4e6fa3967AafBdEb209cf230abB65B570195A"
      ],
      "transaction": {
        "from": "0x5ea4e6fa3967aafbdeb209cf230abb65b570195a",
        "to": "0x19248d273d394b523ef27194d098f15431683800",
        "gas": "0x9af1",
        "value": "0x0",
        "input": "0xd547741f00000000000000000000000000000000000000000000000000000000000000000000000000000000000000005ea4e6fa3967aafbdeb209cf230abb65b570195a",
        "nonce": "0x13",
        "chainId": "0x2105"
      },
      "additionalContracts": [],
      "isFixedGasLimit": false
    },
    {
      "hash": "0x52e63f83d09e8c40ed2e360282d9ece4a1c05a63706dadd188382cbea68e041c",
      "transactionType": "CALL",
      "contractName": null,
      "contractAddress": "0x24569d33653c404f90af10a2b98d6e0030d3d267",
      "function": "approve(address,uint256)",
      "arguments": [
        "0x19248D273d394B523EF27194D098F15431683800",
        "115792089237316195423570985008687907853269984665640564039457584007913129639935"
      ],
      "transaction": {
        "from": "0xf734263d5c6153fd6d0467f226a6e4d3affc9ac4",
        "to": "0x24569d33653c404f90af10a2b98d6e0030d3d267",
        "gas": "0xfb95",
        "value": "0x0",
        "input": "0x095ea7b300000000000000000000000019248d273d394b523ef27194d098f15431683800ffffffffffffffffffffffffffffffffffffffffffffffffffffffffffffffff",
        "nonce": "0x0",
        "chainId": "0x2105"
      },
      "additionalContracts": [],
      "isFixedGasLimit": false
    },
    {
      "hash": "0xd68e590d94469ba2d54aa98287a51b89bd35e2875461205622ad0f64f920c006",
      "transactionType": "CALL",
      "contractName": null,
      "contractAddress": "0x19ecbc13e899e4952d8e1a24108330d43cc0406d",
      "function": "setApprovalForAll(address,bool)",
      "arguments": [
        "0x19248D273d394B523EF27194D098F15431683800",
        "true"
      ],
      "transaction": {
        "from": "0xf734263d5c6153fd6d0467f226a6e4d3affc9ac4",
        "to": "0x19ecbc13e899e4952d8e1a24108330d43cc0406d",
        "gas": "0xf950",
        "value": "0x0",
        "input": "0xa22cb46500000000000000000000000019248d273d394b523ef27194d098f154316838000000000000000000000000000000000000000000000000000000000000000001",
        "nonce": "0x1",
        "chainId": "0x2105"
      },
      "additionalContracts": [],
      "isFixedGasLimit": false
    }
  ],
  "receipts": [
    {
      "status": "0x1",
      "cumulativeGasUsed": "0xf33fd4",
      "logs": [
        {
          "address": "0x19248d273d394b523ef27194d098f15431683800",
          "topics": [
            "0x2f8788117e7eff1d82e926ec794901d17c78024a50270940304540a733656f0d",
            "0x0000000000000000000000000000000000000000000000000000000000000000",
            "0x0000000000000000000000005ea4e6fa3967aafbdeb209cf230abb65b570195a",
            "0x0000000000000000000000005ea4e6fa3967aafbdeb209cf230abb65b570195a"
          ],
          "data": "0x",
          "blockHash": "0x065537339e14b87610aceba7e6b52b6a31f1b96108592baaaae75ff486e683da",
          "blockNumber": "0xebaece",
          "transactionHash": "0x5c876a69863f7c86127dd9a802249998b83a4e67de2633f51dc3e755307631bb",
          "transactionIndex": "0x4c",
          "logIndex": "0x173",
          "removed": false
        }
      ],
      "logsBloom": "0x00000004000000000000000000000000000000000000000000000000000000000000000000000000000000080000000000000000000000000000000000000000000000000000000000000000000000000000000000000000000000000000000000000000020000000000000000000800000000000100000000000000000000000000000000000000000000000000000000000000000000000000000000000000000000000004000000000000000000000000000000000000001000000000000000000000000000200000100000000000000000000000000100000000000020000000000000000000000000000000000040000000000000000000000000000000",
      "type": "0x2",
      "transactionHash": "0x5c876a69863f7c86127dd9a802249998b83a4e67de2633f51dc3e755307631bb",
      "transactionIndex": "0x4c",
      "blockHash": "0x065537339e14b87610aceba7e6b52b6a31f1b96108592baaaae75ff486e683da",
      "blockNumber": "0xebaece",
      "gasUsed": "0xb91ce",
      "effectiveGasPrice": "0x8bf67c",
      "from": "0x5ea4e6fa3967aafbdeb209cf230abb65b570195a",
      "to": null,
      "contractAddress": "0x19248d273d394b523ef27194d098f15431683800",
      "l1Fee": "0x1176def2035",
      "l1GasPrice": "0x48bde27e8",
      "l1GasUsed": "0xda10"
    },
    {
      "status": "0x1",
      "cumulativeGasUsed": "0x9c9a56",
      "logs": [
        {
          "address": "0x19248d273d394b523ef27194d098f15431683800",
          "topics": [
            "0x2f8788117e7eff1d82e926ec794901d17c78024a50270940304540a733656f0d",
            "0x0000000000000000000000000000000000000000000000000000000000000000",
            "0x0000000000000000000000006bfe9e140c4f5562b97728f54670f8b1dba490fa",
            "0x0000000000000000000000005ea4e6fa3967aafbdeb209cf230abb65b570195a"
          ],
          "data": "0x",
          "blockHash": "0xd139adf0483e67b9b48cc6ed418e9b1fb0a1e04c8ac812ff30f73b9ae8d0e653",
          "blockNumber": "0xebaed2",
          "transactionHash": "0xaee919da16d4cefdabef45a51a873fadbebc1f6c1ef9e3fd87873c0cf746d0e0",
          "transactionIndex": "0x37",
          "logIndex": "0x107",
          "removed": false
        }
      ],
      "logsBloom": "0x00000004000000000000000000000000000000000000000000000000000000000000000000000000000000080000000000000400000000000000000000000000000000000000000000000000000000000000000000000000000000000000000000000000020000000000000000000800000000000100000000000000000000000000000000000000000000000000000000000000000000000000000000000000000000000004000000000000000080000000000000000000801000000000000000000000000000200000100000000000000000000000000100000000000020000000000000000000000000000000000040000000000000000000000000000000",
      "type": "0x2",
      "transactionHash": "0xaee919da16d4cefdabef45a51a873fadbebc1f6c1ef9e3fd87873c0cf746d0e0",
      "transactionIndex": "0x37",
      "blockHash": "0xd139adf0483e67b9b48cc6ed418e9b1fb0a1e04c8ac812ff30f73b9ae8d0e653",
      "blockNumber": "0xebaed2",
      "gasUsed": "0xc7d1",
      "effectiveGasPrice": "0x8d267e",
      "from": "0x5ea4e6fa3967aafbdeb209cf230abb65b570195a",
      "to": "0x19248d273d394b523ef27194d098f15431683800",
      "contractAddress": null,
      "l1Fee": "0xb83ac08a0",
      "l1GasPrice": "0x47e075b73",
      "l1GasUsed": "0x918"
    },
    {
      "status": "0x1",
      "cumulativeGasUsed": "0xf25ba8",
      "logs": [
        {
          "address": "0x19248d273d394b523ef27194d098f15431683800",
          "topics": [
            "0x2f8788117e7eff1d82e926ec794901d17c78024a50270940304540a733656f0d",
            "0x65d7a28e3265b37a6474929f336521b332c1681b933f6cb9f3376673440d862a",
            "0x000000000000000000000000b1a6722b5bc3b22ef8017a5bf2787b50a79dc020",
            "0x0000000000000000000000005ea4e6fa3967aafbdeb209cf230abb65b570195a"
          ],
          "data": "0x",
          "blockHash": "0xc59d6ff2642720c78c4245309d3d44e1cc975890a213cac8b3d7f837f98f611f",
          "blockNumber": "0xebaed5",
          "transactionHash": "0x6adcb465deef54de0b7abf478c9939306c319e858413c99e746f6c9723af6d4b",
          "transactionIndex": "0x52",
          "logIndex": "0x177",
          "removed": false
        }
      ],
      "logsBloom": "0x00000004000000000000000000000000000000080000000000000000000000000000000000000000000000080000000000000000000000000000000000000000080000000000000000000000000000000000000000000000000000000000000000000000000000000000000000000000000000000100000000000000000000000000000000000000000000000000008000000000000000000000000000000000000000000004000000000000000000000000000000000000001000000000000000000000000000200000100000000000000000000000000100002000080000000000000000000000000000000000000040000400000000000000000000000000",
      "type": "0x2",
      "transactionHash": "0x6adcb465deef54de0b7abf478c9939306c319e858413c99e746f6c9723af6d4b",
      "transactionIndex": "0x52",
      "blockHash": "0xc59d6ff2642720c78c4245309d3d44e1cc975890a213cac8b3d7f837f98f611f",
      "blockNumber": "0xebaed5",
      "gasUsed": "0xc951",
      "effectiveGasPrice": "0x8ced76",
      "from": "0x5ea4e6fa3967aafbdeb209cf230abb65b570195a",
      "to": "0x19248d273d394b523ef27194d098f15431683800",
      "contractAddress": null,
      "l1Fee": "0xd7914837f",
      "l1GasPrice": "0x47e075b73",
      "l1GasUsed": "0xaa4"
    },
    {
      "status": "0x1",
      "cumulativeGasUsed": "0xde9f92",
      "logs": [
        {
          "address": "0x19248d273d394b523ef27194d098f15431683800",
          "topics": [
            "0x2f8788117e7eff1d82e926ec794901d17c78024a50270940304540a733656f0d",
            "0xfbd454f36a7e1a388bd6fc3ab10d434aa4578f811acbbcf33afb1c697486313c",
            "0x000000000000000000000000f734263d5c6153fd6d0467f226a6e4d3affc9ac4",
            "0x0000000000000000000000005ea4e6fa3967aafbdeb209cf230abb65b570195a"
          ],
          "data": "0x",
          "blockHash": "0x47c0442f1e5eff60b1adfcb55e875bf1423e605e4d48e8dbc0bfff84be9a83bf",
          "blockNumber": "0xebaed9",
          "transactionHash": "0xfc88af3441e96ef300130f0e3dc1dd57ea1bee012e0314d1e95204b96bd64d32",
          "transactionIndex": "0x5a",
          "logIndex": "0x143",
          "removed": false
        }
      ],
      "logsBloom": "0x00000004000000000000000000000000000000000000000000000000000000000000000000000000000000080000000001000000000000000000000000000000000000000000000000008000000000000000000000000000000000000000000000000000000000000000000000000000000080000100000000000000000000000000000000000000000000000000000080000000000000000000000000000000000000000004000000000000000000000000000000000000001000000000000000000000000000200000100000000004000000000000000100000000000000000000000000000000000000000000000040002000000000000000000000000000",
      "type": "0x2",
      "transactionHash": "0xfc88af3441e96ef300130f0e3dc1dd57ea1bee012e0314d1e95204b96bd64d32",
      "transactionIndex": "0x5a",
      "blockHash": "0x47c0442f1e5eff60b1adfcb55e875bf1423e605e4d48e8dbc0bfff84be9a83bf",
      "blockNumber": "0xebaed9",
      "gasUsed": "0xc951",
      "effectiveGasPrice": "0x8d0e4d",
      "from": "0x5ea4e6fa3967aafbdeb209cf230abb65b570195a",
      "to": "0x19248d273d394b523ef27194d098f15431683800",
      "contractAddress": null,
      "l1Fee": "0xd2c175916",
      "l1GasPrice": "0x4645bb767",
      "l1GasUsed": "0xaa4"
    },
    {
      "status": "0x1",
      "cumulativeGasUsed": "0xc498a4",
      "logs": [
        {
          "address": "0x19248d273d394b523ef27194d098f15431683800",
          "topics": [
            "0xf6391f5c32d9c69d2a47ea670b442974b53935d1edc7fd64eb21e047a839171b",
            "0x0000000000000000000000000000000000000000000000000000000000000000",
            "0x0000000000000000000000005ea4e6fa3967aafbdeb209cf230abb65b570195a",
            "0x0000000000000000000000005ea4e6fa3967aafbdeb209cf230abb65b570195a"
          ],
          "data": "0x",
          "blockHash": "0x6c608a546a5ff1129282671bd643bd4e06fea59f4e4c159378f2b98efa21ff16",
          "blockNumber": "0xebaedd",
          "transactionHash": "0xc1667c25ee9adcf1cda6c8861fe5c359d86c3c0078d49bfef22d264ad4bdbfab",
          "transactionIndex": "0x49",
          "logIndex": "0x13c",
          "removed": false
        }
      ],
      "logsBloom": "0x00000000000000000000000000000000000000000000000000000000000000000000000000000000000000080000000000200000000000000000000000000000000000000000000000000000000000000000000000000000000000000000000040000000020000000000000000000800000000000100000000000000000000000000000040000000000000000000000000000000000000000000000000000000000000000004000000000000000000000000000000000000000000000000000000000000000000200000100000000000000000000000000000000000000020000000000000000000000000000000000040000000000000000000000000000000",
      "type": "0x2",
      "transactionHash": "0xc1667c25ee9adcf1cda6c8861fe5c359d86c3c0078d49bfef22d264ad4bdbfab",
      "transactionIndex": "0x49",
      "blockHash": "0x6c608a546a5ff1129282671bd643bd4e06fea59f4e4c159378f2b98efa21ff16",
      "blockNumber": "0xebaedd",
      "gasUsed": "0x69f2",
      "effectiveGasPrice": "0x8d542d",
      "from": "0x5ea4e6fa3967aafbdeb209cf230abb65b570195a",
      "to": "0x19248d273d394b523ef27194d098f15431683800",
      "contractAddress": null,
      "l1Fee": "0xb3cec72b9",
      "l1GasPrice": "0x4645bb767",
      "l1GasUsed": "0x914"
    },
    {
      "status": "0x1",
      "cumulativeGasUsed": "0xe4c585",
      "logs": [
        {
          "address": "0x24569d33653c404f90af10a2b98d6e0030d3d267",
          "topics": [
            "0x8c5be1e5ebec7d5bd14f71427d1e84f3dd0314c0f7b2291e5b200ac8c7c3b925",
            "0x000000000000000000000000f734263d5c6153fd6d0467f226a6e4d3affc9ac4",
            "0x00000000000000000000000019248d273d394b523ef27194d098f15431683800"
          ],
          "data": "0xffffffffffffffffffffffffffffffffffffffffffffffffffffffffffffffff",
          "blockHash": "0x3f9c87e740bea701fb064e6e9b9503e6691fd20447fc1af2a895bb6e226f3c73",
          "blockNumber": "0xebaee0",
          "transactionHash": "0x52e63f83d09e8c40ed2e360282d9ece4a1c05a63706dadd188382cbea68e041c",
          "transactionIndex": "0x3b",
          "logIndex": "0x4af",
          "removed": false
        }
      ],
      "logsBloom": "0x00000000008000000000000000000000000000000000000000000000000000000000000000000000000000200000000001000000000000000000000000200000000000004000000000000000000000000000000000080000000000000000000000000000000000000000000000000000000080000000000000000000000000000000000000000000000000000000000000000000000000000000000000000000020000000000000000000000000000000000000000000000000000000000000000000000000000000000000000000000002000000000000000000000000000000010000000000000000000000000000000003000000000000000000000000000",
      "type": "0x2",
      "transactionHash": "0x52e63f83d09e8c40ed2e360282d9ece4a1c05a63706dadd188382cbea68e041c",
      "transactionIndex": "0x3b",
      "blockHash": "0x3f9c87e740bea701fb064e6e9b9503e6691fd20447fc1af2a895bb6e226f3c73",
      "blockNumber": "0xebaee0",
      "gasUsed": "0xb625",
      "effectiveGasPrice": "0x8d8fdd",
      "from": "0xf734263d5c6153fd6d0467f226a6e4d3affc9ac4",
      "to": "0x24569d33653c404f90af10a2b98d6e0030d3d267",
      "contractAddress": null,
      "l1Fee": "0xd5bcf070a",
      "l1GasPrice": "0x4854329f4",
      "l1GasUsed": "0xa7c"
    },
    {
      "status": "0x1",
      "cumulativeGasUsed": "0x14f628d",
      "logs": [
        {
          "address": "0x19ecbc13e899e4952d8e1a24108330d43cc0406d",
          "topics": [
            "0x17307eab39ab6107e8899845ad3d59bd9653f200f220920489ca2b5937696c31",
            "0x000000000000000000000000f734263d5c6153fd6d0467f226a6e4d3affc9ac4",
            "0x00000000000000000000000019248d273d394b523ef27194d098f15431683800"
          ],
          "data": "0x0000000000000000000000000000000000000000000000000000000000000001",
          "blockHash": "0x800b4e5028f291c209cafa926b5999298f1410c182f78a4e514cee3d83fff75f",
          "blockNumber": "0xebaee4",
          "transactionHash": "0xd68e590d94469ba2d54aa98287a51b89bd35e2875461205622ad0f64f920c006",
          "transactionIndex": "0x37",
          "logIndex": "0xdcb",
          "removed": false
        }
      ],
      "logsBloom": "0x00000000008000000000000000000000000000000000000000000000000000000000000000000000000000200000000401080000000000000000000000000000000000000000000000000000000000000000000000080000000000000000000002000000000000000000000000000000000080000000000000000000000000000000000000000000000000000000000000000000000000000000000400000000000000000000000000000000000000000000000000000000000000000000000000000000000000000000000000000000000000000000000000000000000000000000200800000000000000000000000000002000000000000000000000000000",
      "type": "0x2",
      "transactionHash": "0xd68e590d94469ba2d54aa98287a51b89bd35e2875461205622ad0f64f920c006",
      "transactionIndex": "0x37",
      "blockHash": "0x800b4e5028f291c209cafa926b5999298f1410c182f78a4e514cee3d83fff75f",
      "blockNumber": "0xebaee4",
      "gasUsed": "0xb480",
      "effectiveGasPrice": "0x8d56f8",
      "from": "0xf734263d5c6153fd6d0467f226a6e4d3affc9ac4",
      "to": "0x19ecbc13e899e4952d8e1a24108330d43cc0406d",
      "contractAddress": null,
      "l1Fee": "0xbe7027e9f",
      "l1GasPrice": "0x4a0b6cd33",
      "l1GasUsed": "0x920"
    }
  ],
  "libraries": [],
  "pending": [],
  "returns": {},
  "timestamp": 1717680836,
  "chain": 8453,
  "commit": "5ccb80b"
}