{
  "transactions": [
    {
      "hash": "0x8efab28609d008e4ae693ed24790529a6a22a664f938d7b8077b9543e14939a6",
      "transactionType": "CREATE",
      "contractName": "DistributionManager",
      "contractAddress": "0x92947a36fec4d768ac9d43417a9607a9be28cbf2",
      "function": null,
      "arguments": [
        "0x0B6f3eA2814F3FFf804bA5D5c237aebbc364fba9",
        "0xE79922E8e606116CE3776E0B4AC7A124Cc5b5FA2"
      ],
      "transaction": {
        "from": "0x5ea4e6fa3967aafbdeb209cf230abb65b570195a",
        "gas": "0xf0945",
        "value": "0x0",
        "input": "0x60c060405234801561001057600080fd5b50604051610db7380380610db783398101604081905261002f91610127565b6001805460ff191690556001600160a01b03828116608052811660a05261005760003361005f565b50505061015a565b6000828152602081815260408083206001600160a01b038516845290915281205460ff16610101576000838152602081815260408083206001600160a01b03861684529091529020805460ff191660011790556100b93390565b6001600160a01b0316826001600160a01b0316847f2f8788117e7eff1d82e926ec794901d17c78024a50270940304540a733656f0d60405160405180910390a4506001610105565b5060005b92915050565b80516001600160a01b038116811461012257600080fd5b919050565b6000806040838503121561013a57600080fd5b6101438361010b565b91506101516020840161010b565b90509250929050565b60805160a051610c2a61018d600039600081816101b10152610525015260008181610213015261046e0152610c2a6000f3fe608060405234801561001057600080fd5b50600436106101005760003560e01c80638456cb5911610097578063d547741f11610066578063d547741f14610235578063e63ab1e914610248578063ebc6577b1461026f578063f0bd87cc1461028257600080fd5b80638456cb59146101eb57806391d14854146101f3578063a217fddf14610206578063ba5a7be41461020e57600080fd5b806336568abe116100d357806336568abe146101865780633f4ba83a146101995780635c975abb146101a15780636e14f193146101ac57600080fd5b806301ffc9a71461010557806314a8ad541461012d578063248a9ca3146101405780632f2ff15d14610171575b600080fd5b6101186101133660046108d5565b6102a9565b60405190151581526020015b60405180910390f35b61011861013b3660046109bd565b6102e0565b61016361014e3660046109fa565b60009081526020819052604090206001015490565b604051908152602001610124565b61018461017f366004610a2f565b61030b565b005b610184610194366004610a2f565b610336565b61018461036e565b60015460ff16610118565b6101d37f000000000000000000000000000000000000000000000000000000000000000081565b6040516001600160a01b039091168152602001610124565b6101846103a3565b610118610201366004610a2f565b6103d5565b610163600081565b6101d37f000000000000000000000000000000000000000000000000000000000000000081565b610184610243366004610a2f565b6103fe565b6101637f65d7a28e3265b37a6474929f336521b332c1681b933f6cb9f3376673440d862a81565b61018461027d366004610a5b565b610423565b6101637ffbd454f36a7e1a388bd6fc3ab10d434aa4578f811acbbcf33afb1c697486313c81565b60006001600160e01b03198216637965db0b60e01b14806102da57506301ffc9a760e01b6001600160e01b03198316145b92915050565b60006002826040516102f29190610b6d565b9081526040519081900360200190205460ff1692915050565b6000828152602081905260409020600101546103268161061c565b6103308383610626565b50505050565b6001600160a01b038116331461035f5760405163334bd91960e11b815260040160405180910390fd5b61036982826106b8565b505050565b7f65d7a28e3265b37a6474929f336521b332c1681b933f6cb9f3376673440d862a6103988161061c565b6103a0610723565b50565b7f65d7a28e3265b37a6474929f336521b332c1681b933f6cb9f3376673440d862a6103cd8161061c565b6103a0610775565b6000918252602082815260408084206001600160a01b0393909316845291905290205460ff1690565b6000828152602081905260409020600101546104198161061c565b61033083836106b8565b7ffbd454f36a7e1a388bd6fc3ab10d434aa4578f811acbbcf33afb1c697486313c61044d8161061c565b6104556107b0565b61045e866107d6565b831561050f576001600160a01b037f0000000000000000000000000000000000000000000000000000000000000000166323b872dd336040516001600160e01b031960e084901b1681526001600160a01b0391821660048201529088166024820152604481018790526064016020604051808303816000875af11580156104e9573d6000803e3d6000fd5b505050506040513d601f19601f8201168201806040525081019061050d9190610b89565b505b60005b82518110156105dc576001600160a01b037f0000000000000000000000000000000000000000000000000000000000000000166342842e0e338886858151811061055e5761055e610bab565b60209081029190910101516040516001600160e01b031960e086901b1681526001600160a01b0393841660048201529290911660248301526044820152606401600060405180830381600087803b1580156105b857600080fd5b505af11580156105cc573d6000803e3d6000fd5b5050600190920191506105129050565b507f040e04ba083fcc5d428735784fbd0db4fd9a534eb5f80f6afd02a8090329de618660405161060c9190610bc1565b60405180910390a1505050505050565b6103a08133610875565b600061063283836103d5565b6106b0576000838152602081815260408083206001600160a01b03861684529091529020805460ff191660011790556106683390565b6001600160a01b0316826001600160a01b0316847f2f8788117e7eff1d82e926ec794901d17c78024a50270940304540a733656f0d60405160405180910390a45060016102da565b5060006102da565b60006106c483836103d5565b156106b0576000838152602081815260408083206001600160a01b0386168085529252808320805460ff1916905551339286917ff6391f5c32d9c69d2a47ea670b442974b53935d1edc7fd64eb21e047a839171b9190a45060016102da565b61072b6108b2565b6001805460ff191690557f5db9ee0a495bf2e6ff9c91a7834c1ba4fdd244a5e8aa4e537bd38aeae4b073aa335b6040516001600160a01b03909116815260200160405180910390a1565b61077d6107b0565b6001805460ff1916811790557f62e78cea01bee320cd4e420270b5ea74000d11b0c9f74754ebdbfc544b05a25833610758565b60015460ff16156107d45760405163d93c066560e01b815260040160405180910390fd5b565b6107df816102e0565b156108405760405162461bcd60e51b815260206004820152602660248201527f446973747269627574696f6e4d616e616765723a20554944206d75737420626560448201526510333932b29760d11b60648201526084015b60405180910390fd5b60016002826040516108529190610b6d565b908152604051908190036020019020805491151560ff1990921691909117905550565b61087f82826103d5565b6108ae5760405163e2517d3f60e01b81526001600160a01b038216600482015260248101839052604401610837565b5050565b60015460ff166107d457604051638dfc202b60e01b815260040160405180910390fd5b6000602082840312156108e757600080fd5b81356001600160e01b0319811681146108ff57600080fd5b9392505050565b634e487b7160e01b600052604160045260246000fd5b604051601f8201601f1916810167ffffffffffffffff8111828210171561094557610945610906565b604052919050565b600082601f83011261095e57600080fd5b813567ffffffffffffffff81111561097857610978610906565b61098b601f8201601f191660200161091c565b8181528460208386010111156109a057600080fd5b816020850160208301376000918101602001919091529392505050565b6000602082840312156109cf57600080fd5b813567ffffffffffffffff8111156109e657600080fd5b6109f28482850161094d565b949350505050565b600060208284031215610a0c57600080fd5b5035919050565b80356001600160a01b0381168114610a2a57600080fd5b919050565b60008060408385031215610a4257600080fd5b82359150610a5260208401610a13565b90509250929050565b600080600080600060a08688031215610a7357600080fd5b853567ffffffffffffffff80821115610a8b57600080fd5b610a9789838a0161094d565b965060209150610aa8828901610a13565b95506040880135945060608801359350608088013581811115610aca57600080fd5b8801601f81018a13610adb57600080fd5b803582811115610aed57610aed610906565b8060051b9250610afe84840161091c565b818152928201840192848101908c851115610b1857600080fd5b928501925b84841015610b3657833582529285019290850190610b1d565b8096505050505050509295509295909350565b60005b83811015610b64578181015183820152602001610b4c565b50506000910152565b60008251610b7f818460208701610b49565b9190910192915050565b600060208284031215610b9b57600080fd5b815180151581146108ff57600080fd5b634e487b7160e01b600052603260045260246000fd5b6020815260008251806020840152610be0816040850160208701610b49565b601f01601f1916919091016040019291505056fea2646970667358221220bece79c51b2622c444854b21b15c9fa3c7d989990d4ba014cf684b7cd2935eb064736f6c634300081900330000000000000000000000000b6f3ea2814f3fff804ba5d5c237aebbc364fba9000000000000000000000000e79922e8e606116ce3776e0b4ac7a124cc5b5fa2",
        "nonce": "0x27",
        "chainId": "0x89"
      },
      "additionalContracts": [],
      "isFixedGasLimit": false
    },
    {
      "hash": "0x907f1a5b658559781092e5f7b5a4f414b26af63b9cb47091b48e36c5afa683cc",
      "transactionType": "CALL",
      "contractName": "DistributionManager",
      "contractAddress": "0x92947a36fec4d768ac9d43417a9607a9be28cbf2",
      "function": "grantRole(bytes32,address)",
      "arguments": [
        "0x0000000000000000000000000000000000000000000000000000000000000000",
        "0xAB1cEF7F6CB9BA03D8027AD1ca3597FE374B1329"
      ],
      "transaction": {
        "from": "0x5ea4e6fa3967aafbdeb209cf230abb65b570195a",
        "to": "0x92947a36fec4d768ac9d43417a9607a9be28cbf2",
        "gas": "0x1243b",
        "value": "0x0",
        "input": "0x2f2ff15d0000000000000000000000000000000000000000000000000000000000000000000000000000000000000000ab1cef7f6cb9ba03d8027ad1ca3597fe374b1329",
        "nonce": "0x28",
        "chainId": "0x89"
      },
      "additionalContracts": [],
      "isFixedGasLimit": false
    },
    {
      "hash": "0x0ae49718907c42efd6904a73e02d3f41464e03f29a0e35ae10217ea56d4f0f62",
      "transactionType": "CALL",
      "contractName": "DistributionManager",
      "contractAddress": "0x92947a36fec4d768ac9d43417a9607a9be28cbf2",
      "function": "grantRole(bytes32,address)",
      "arguments": [
        "0x65d7a28e3265b37a6474929f336521b332c1681b933f6cb9f3376673440d862a",
        "0x1303CD215CA61F2362796d4C655184934B1eBb29"
      ],
      "transaction": {
        "from": "0x5ea4e6fa3967aafbdeb209cf230abb65b570195a",
        "to": "0x92947a36fec4d768ac9d43417a9607a9be28cbf2",
        "gas": "0x1266c",
        "value": "0x0",
        "input": "0x2f2ff15d65d7a28e3265b37a6474929f336521b332c1681b933f6cb9f3376673440d862a0000000000000000000000001303cd215ca61f2362796d4c655184934b1ebb29",
        "nonce": "0x29",
        "chainId": "0x89"
      },
      "additionalContracts": [],
      "isFixedGasLimit": false
    },
    {
      "hash": "0xaf9e72128764c548c12608255670bac722c56e21a2e021e6e3653ba29ae993e9",
      "transactionType": "CALL",
      "contractName": "DistributionManager",
      "contractAddress": "0x92947a36fec4d768ac9d43417a9607a9be28cbf2",
      "function": "grantRole(bytes32,address)",
      "arguments": [
        "0xfbd454f36a7e1a388bd6fc3ab10d434aa4578f811acbbcf33afb1c697486313c",
        "0xF734263d5c6153fD6D0467f226a6e4D3AFFC9ac4"
      ],
      "transaction": {
        "from": "0x5ea4e6fa3967aafbdeb209cf230abb65b570195a",
        "to": "0x92947a36fec4d768ac9d43417a9607a9be28cbf2",
        "gas": "0x1266c",
        "value": "0x0",
        "input": "0x2f2ff15dfbd454f36a7e1a388bd6fc3ab10d434aa4578f811acbbcf33afb1c697486313c000000000000000000000000f734263d5c6153fd6d0467f226a6e4d3affc9ac4",
        "nonce": "0x2a",
        "chainId": "0x89"
      },
      "additionalContracts": [],
      "isFixedGasLimit": false
    },
    {
      "hash": "0x6d176820d2388c405136894ae32e52bbc6e0a5256876db50d679c5aac2f798aa",
      "transactionType": "CALL",
      "contractName": "DistributionManager",
      "contractAddress": "0x92947a36fec4d768ac9d43417a9607a9be28cbf2",
      "function": "revokeRole(bytes32,address)",
      "arguments": [
        "0x0000000000000000000000000000000000000000000000000000000000000000",
        "0x5ea4e6fa3967AafBdEb209cf230abB65B570195A"
      ],
      "transaction": {
        "from": "0x5ea4e6fa3967aafbdeb209cf230abb65b570195a",
        "to": "0x92947a36fec4d768ac9d43417a9607a9be28cbf2",
        "gas": "0x9af1",
        "value": "0x0",
        "input": "0xd547741f00000000000000000000000000000000000000000000000000000000000000000000000000000000000000005ea4e6fa3967aafbdeb209cf230abb65b570195a",
        "nonce": "0x2b",
        "chainId": "0x89"
      },
      "additionalContracts": [],
      "isFixedGasLimit": false
    },
    {
      "hash": "0xadfd124460b28e33e7f9f67207b1dad0d54424834feddf9f9e675e7fd2da95f5",
      "transactionType": "CALL",
      "contractName": null,
      "contractAddress": "0x0b6f3ea2814f3fff804ba5d5c237aebbc364fba9",
      "function": "approve(address,uint256)",
      "arguments": [
        "0x92947a36fEc4D768Ac9d43417A9607a9be28CbF2",
        "115792089237316195423570985008687907853269984665640564039457584007913129639935"
      ],
      "transaction": {
        "from": "0xf734263d5c6153fd6d0467f226a6e4d3affc9ac4",
        "to": "0x0b6f3ea2814f3fff804ba5d5c237aebbc364fba9",
        "gas": "0x10a74",
        "value": "0x0",
        "input": "0x095ea7b300000000000000000000000092947a36fec4d768ac9d43417a9607a9be28cbf2ffffffffffffffffffffffffffffffffffffffffffffffffffffffffffffffff",
        "nonce": "0x0",
        "chainId": "0x89"
      },
      "additionalContracts": [],
      "isFixedGasLimit": false
    },
    {
      "hash": "0xca79902090b746b326d9db8976f9e4899e2c87ae165414b1641a3e69dfe61e67",
      "transactionType": "CALL",
      "contractName": null,
      "contractAddress": "0xe79922e8e606116ce3776e0b4ac7a124cc5b5fa2",
      "function": "setApprovalForAll(address,bool)",
      "arguments": [
        "0x92947a36fEc4D768Ac9d43417A9607a9be28CbF2",
        "true"
      ],
      "transaction": {
        "from": "0xf734263d5c6153fd6d0467f226a6e4d3affc9ac4",
        "to": "0xe79922e8e606116ce3776e0b4ac7a124cc5b5fa2",
        "gas": "0xf960",
        "value": "0x0",
        "input": "0xa22cb46500000000000000000000000092947a36fec4d768ac9d43417a9607a9be28cbf20000000000000000000000000000000000000000000000000000000000000001",
        "nonce": "0x1",
        "chainId": "0x89"
      },
      "additionalContracts": [],
      "isFixedGasLimit": false
    }
  ],
  "receipts": [
    {
      "status": "0x1",
      "cumulativeGasUsed": "0x6a4f8b",
      "logs": [
        {
          "address": "0x92947a36fec4d768ac9d43417a9607a9be28cbf2",
          "topics": [
            "0x2f8788117e7eff1d82e926ec794901d17c78024a50270940304540a733656f0d",
            "0x0000000000000000000000000000000000000000000000000000000000000000",
            "0x0000000000000000000000005ea4e6fa3967aafbdeb209cf230abb65b570195a",
            "0x0000000000000000000000005ea4e6fa3967aafbdeb209cf230abb65b570195a"
          ],
          "data": "0x",
          "blockHash": "0x77b72bb9e194338fc77eb58ca8b1db1d3df178e64d956b392b4634f62c1a7e20",
          "blockNumber": "0x37281f8",
          "transactionHash": "0x8efab28609d008e4ae693ed24790529a6a22a664f938d7b8077b9543e14939a6",
          "transactionIndex": "0x40",
          "logIndex": "0xe8",
          "removed": false
        },
        {
          "address": "0x0000000000000000000000000000000000001010",
          "topics": [
            "0x4dfe1bbbcf077ddc3e01291eea2d5c70c2b422b415d95645b9adcfd678cb1d63",
            "0x0000000000000000000000000000000000000000000000000000000000001010",
            "0x0000000000000000000000005ea4e6fa3967aafbdeb209cf230abb65b570195a",
            "0x000000000000000000000000959c65b72147faf3450d8b50a0de57e72ffc5e0d"
          ],
          "data": "0x0000000000000000000000000000000000000000000000000050d04b4ecc7800000000000000000000000000000000000000000000000002b04793da9c9171f500000000000000000000000000000000000000000000010d7b1f3f14cd7c78c7000000000000000000000000000000000000000000000002aff6c38f4dc4f9f500000000000000000000000000000000000000000000010d7b700f601c48f0c7",
          "blockHash": "0x77b72bb9e194338fc77eb58ca8b1db1d3df178e64d956b392b4634f62c1a7e20",
          "blockNumber": "0x37281f8",
          "transactionHash": "0x8efab28609d008e4ae693ed24790529a6a22a664f938d7b8077b9543e14939a6",
          "transactionIndex": "0x40",
          "logIndex": "0xe9",
          "removed": false
        }
      ],
      "logsBloom": "0x00000004000000000000000000000000000000000000000000000000000000000000000000000000000000080000000000008800000000000000000000000000000000000000000004000000000000800000000000000000000100000000000000000002020000000000000000000800000000000000000080000000000000000000000000000000000000000000000000000000000000000000000000000000200000000000000000000000000000000000000000000000001000000000004000000000000000000001100000000000000000000000000100100000020020000000000000000000000000000000000042000000000000000000200000100000",
      "type": "0x2",
      "transactionHash": "0x8efab28609d008e4ae693ed24790529a6a22a664f938d7b8077b9543e14939a6",
      "transactionIndex": "0x40",
      "blockHash": "0x77b72bb9e194338fc77eb58ca8b1db1d3df178e64d956b392b4634f62c1a7e20",
      "blockNumber": "0x37281f8",
      "gasUsed": "0xb91da",
      "effectiveGasPrice": "0x6fc23ac3f",
      "from": "0x5ea4e6fa3967aafbdeb209cf230abb65b570195a",
      "to": null,
      "contractAddress": "0x92947a36fec4d768ac9d43417a9607a9be28cbf2"
    },
    {
      "status": "0x1",
      "cumulativeGasUsed": "0x732e64",
      "logs": [
        {
          "address": "0x92947a36fec4d768ac9d43417a9607a9be28cbf2",
          "topics": [
            "0x2f8788117e7eff1d82e926ec794901d17c78024a50270940304540a733656f0d",
            "0x0000000000000000000000000000000000000000000000000000000000000000",
            "0x000000000000000000000000ab1cef7f6cb9ba03d8027ad1ca3597fe374b1329",
            "0x0000000000000000000000005ea4e6fa3967aafbdeb209cf230abb65b570195a"
          ],
          "data": "0x",
          "blockHash": "0xd0beb83c06a1590e7eeee90264a063f43066fcb54f8d7a3bcf6ae9dba34d1a1e",
          "blockNumber": "0x37281fc",
          "transactionHash": "0x907f1a5b658559781092e5f7b5a4f414b26af63b9cb47091b48e36c5afa683cc",
          "transactionIndex": "0x3a",
          "logIndex": "0xc6",
          "removed": false
        },
        {
          "address": "0x0000000000000000000000000000000000001010",
          "topics": [
            "0x4dfe1bbbcf077ddc3e01291eea2d5c70c2b422b415d95645b9adcfd678cb1d63",
            "0x0000000000000000000000000000000000000000000000000000000000001010",
            "0x0000000000000000000000005ea4e6fa3967aafbdeb209cf230abb65b570195a",
            "0x000000000000000000000000959c65b72147faf3450d8b50a0de57e72ffc5e0d"
          ],
          "data": "0x000000000000000000000000000000000000000000000000000573b393d36c00000000000000000000000000000000000000000000000002aff6c38f4aec154f00000000000000000000000000000000000000000000010d91d11007abe2ed42000000000000000000000000000000000000000000000002aff14fdbb718a94f00000000000000000000000000000000000000000000010d91d683bb3fb65942",
          "blockHash": "0xd0beb83c06a1590e7eeee90264a063f43066fcb54f8d7a3bcf6ae9dba34d1a1e",
          "blockNumber": "0x37281fc",
          "transactionHash": "0x907f1a5b658559781092e5f7b5a4f414b26af63b9cb47091b48e36c5afa683cc",
          "transactionIndex": "0x3a",
          "logIndex": "0xc7",
          "removed": false
        }
      ],
      "logsBloom": "0x00000004000000000000000000000000000000000000000000000000000000000000000000000000000000080000000000008800000000000000000000000000000000000000000004000000000000800000000000000000000100000000000000000002020000000000000000000800000000000000000080000000000000000000000000000000000000000000000000000000000000000000000000000000200000000000040000000000000000000004000000000000001000000400004000000000000000000001100000000000000000000000000100100000020020000000000000000000000000000000000042000000000000000000200000100000",
      "type": "0x2",
      "transactionHash": "0x907f1a5b658559781092e5f7b5a4f414b26af63b9cb47091b48e36c5afa683cc",
      "transactionIndex": "0x3a",
      "blockHash": "0xd0beb83c06a1590e7eeee90264a063f43066fcb54f8d7a3bcf6ae9dba34d1a1e",
      "blockNumber": "0x37281fc",
      "gasUsed": "0xc7d1",
      "effectiveGasPrice": "0x6fc23ac3c",
      "from": "0x5ea4e6fa3967aafbdeb209cf230abb65b570195a",
      "to": "0x92947a36fec4d768ac9d43417a9607a9be28cbf2",
      "contractAddress": null
    },
    {
      "status": "0x1",
      "cumulativeGasUsed": "0xc18f01",
      "logs": [
        {
          "address": "0x92947a36fec4d768ac9d43417a9607a9be28cbf2",
          "topics": [
            "0x2f8788117e7eff1d82e926ec794901d17c78024a50270940304540a733656f0d",
            "0x65d7a28e3265b37a6474929f336521b332c1681b933f6cb9f3376673440d862a",
            "0x0000000000000000000000001303cd215ca61f2362796d4c655184934b1ebb29",
            "0x0000000000000000000000005ea4e6fa3967aafbdeb209cf230abb65b570195a"
          ],
          "data": "0x",
          "blockHash": "0x46f99aefdeefcc771ffc7d2191669a026a2f8967fba751e59f8aab6b2c157c14",
          "blockNumber": "0x3728200",
          "transactionHash": "0x0ae49718907c42efd6904a73e02d3f41464e03f29a0e35ae10217ea56d4f0f62",
          "transactionIndex": "0x6c",
          "logIndex": "0x1af",
          "removed": false
        },
        {
          "address": "0x0000000000000000000000000000000000001010",
          "topics": [
            "0x4dfe1bbbcf077ddc3e01291eea2d5c70c2b422b415d95645b9adcfd678cb1d63",
            "0x0000000000000000000000000000000000000000000000000000000000001010",
            "0x0000000000000000000000005ea4e6fa3967aafbdeb209cf230abb65b570195a",
            "0x000000000000000000000000794e44d1334a56fea7f4df12633b88820d0c5888"
          ],
          "data": "0x00000000000000000000000000000000000000000000000000057e2dc9556c00000000000000000000000000000000000000000000000002aff14fdbb6e9d45300000000000000000000000000000000000000000000019c45954de984b7ad30000000000000000000000000000000000000000000000002afebd1aded94685300000000000000000000000000000000000000000000019c459acc174e0d1930",
          "blockHash": "0x46f99aefdeefcc771ffc7d2191669a026a2f8967fba751e59f8aab6b2c157c14",
          "blockNumber": "0x3728200",
          "transactionHash": "0x0ae49718907c42efd6904a73e02d3f41464e03f29a0e35ae10217ea56d4f0f62",
          "transactionIndex": "0x6c",
          "logIndex": "0x1b0",
          "removed": false
        }
      ],
      "logsBloom": "0x00000004000000000000000000000000000000000000000000000000000000008000000000001000000000080000000000008000000000004000000000000000000000000000000004000000000000800000000000000000000100020000000000000002000000000000000000000000000000000000000080000000000000000000000000000000000000000000008000000000000000000000000000000000200000000000000000000000000000000000000000000000001000000000204000000000000000000001100000000000000000000000000100102000000000000000000000000000000000000000000040000400000000000000200020100000",
      "type": "0x2",
      "transactionHash": "0x0ae49718907c42efd6904a73e02d3f41464e03f29a0e35ae10217ea56d4f0f62",
      "transactionIndex": "0x6c",
      "blockHash": "0x46f99aefdeefcc771ffc7d2191669a026a2f8967fba751e59f8aab6b2c157c14",
      "blockNumber": "0x3728200",
      "gasUsed": "0xc951",
      "effectiveGasPrice": "0x6fc23ac38",
      "from": "0x5ea4e6fa3967aafbdeb209cf230abb65b570195a",
      "to": "0x92947a36fec4d768ac9d43417a9607a9be28cbf2",
      "contractAddress": null
    },
    {
      "status": "0x1",
      "cumulativeGasUsed": "0x75b634",
      "logs": [
        {
          "address": "0x92947a36fec4d768ac9d43417a9607a9be28cbf2",
          "topics": [
            "0x2f8788117e7eff1d82e926ec794901d17c78024a50270940304540a733656f0d",
            "0xfbd454f36a7e1a388bd6fc3ab10d434aa4578f811acbbcf33afb1c697486313c",
            "0x000000000000000000000000f734263d5c6153fd6d0467f226a6e4d3affc9ac4",
            "0x0000000000000000000000005ea4e6fa3967aafbdeb209cf230abb65b570195a"
          ],
          "data": "0x",
          "blockHash": "0xf8eb9f21b5c5ba316f17974591bcab46d3053d9078161cd5a223d5776d0543c1",
          "blockNumber": "0x3728203",
          "transactionHash": "0xaf9e72128764c548c12608255670bac722c56e21a2e021e6e3653ba29ae993e9",
          "transactionIndex": "0x51",
          "logIndex": "0x102",
          "removed": false
        },
        {
          "address": "0x0000000000000000000000000000000000001010",
          "topics": [
            "0x4dfe1bbbcf077ddc3e01291eea2d5c70c2b422b415d95645b9adcfd678cb1d63",
            "0x0000000000000000000000000000000000000000000000000000000000001010",
            "0x0000000000000000000000005ea4e6fa3967aafbdeb209cf230abb65b570195a",
            "0x000000000000000000000000794e44d1334a56fea7f4df12633b88820d0c5888"
          ],
          "data": "0x00000000000000000000000000000000000000000000000000057e2dc9556c00000000000000000000000000000000000000000000000002afebd1aded685e9b00000000000000000000000000000000000000000000019c5f1a00e7eaaed335000000000000000000000000000000000000000000000002afe653802412f29b00000000000000000000000000000000000000000000019c5f1f7f15b4043f35",
          "blockHash": "0xf8eb9f21b5c5ba316f17974591bcab46d3053d9078161cd5a223d5776d0543c1",
          "blockNumber": "0x3728203",
          "transactionHash": "0xaf9e72128764c548c12608255670bac722c56e21a2e021e6e3653ba29ae993e9",
          "transactionIndex": "0x51",
          "logIndex": "0x103",
          "removed": false
        }
      ],
      "logsBloom": "0x00000004000000000000000000000000000000000000000000000000000000000000000000001000000000080000000001008000000000000000000000000000000000000000000004008000000000800000000000000000000100020000000000000002000000000000000000000000000080000000000080000000000000000000000000000000000000000000000080000000000000000000000000000000200000000000000000000000000000000000000000000000001000000000004000000000000000000001100000000004000000000000000100100000000000000000000000000000000000000000000040002000000000000000200020100000",
      "type": "0x2",
      "transactionHash": "0xaf9e72128764c548c12608255670bac722c56e21a2e021e6e3653ba29ae993e9",
      "transactionIndex": "0x51",
      "blockHash": "0xf8eb9f21b5c5ba316f17974591bcab46d3053d9078161cd5a223d5776d0543c1",
      "blockNumber": "0x3728203",
      "gasUsed": "0xc951",
      "effectiveGasPrice": "0x6fc23ac38",
      "from": "0x5ea4e6fa3967aafbdeb209cf230abb65b570195a",
      "to": "0x92947a36fec4d768ac9d43417a9607a9be28cbf2",
      "contractAddress": null
    },
    {
      "status": "0x1",
      "cumulativeGasUsed": "0x6508fa",
      "logs": [
        {
          "address": "0x92947a36fec4d768ac9d43417a9607a9be28cbf2",
          "topics": [
            "0xf6391f5c32d9c69d2a47ea670b442974b53935d1edc7fd64eb21e047a839171b",
            "0x0000000000000000000000000000000000000000000000000000000000000000",
            "0x0000000000000000000000005ea4e6fa3967aafbdeb209cf230abb65b570195a",
            "0x0000000000000000000000005ea4e6fa3967aafbdeb209cf230abb65b570195a"
          ],
          "data": "0x",
          "blockHash": "0x2027a968be70bd58360cea2a33f7b674309776d9d4184461beb9450dc282476b",
          "blockNumber": "0x3728206",
          "transactionHash": "0x6d176820d2388c405136894ae32e52bbc6e0a5256876db50d679c5aac2f798aa",
          "transactionIndex": "0x42",
          "logIndex": "0xd6",
          "removed": false
        },
        {
          "address": "0x0000000000000000000000000000000000001010",
          "topics": [
            "0x4dfe1bbbcf077ddc3e01291eea2d5c70c2b422b415d95645b9adcfd678cb1d63",
            "0x0000000000000000000000000000000000000000000000000000000000001010",
            "0x0000000000000000000000005ea4e6fa3967aafbdeb209cf230abb65b570195a",
            "0x000000000000000000000000794e44d1334a56fea7f4df12633b88820d0c5888"
          ],
          "data": "0x0000000000000000000000000000000000000000000000000002e404fb449800000000000000000000000000000000000000000000000002afe6538023e6e8e300000000000000000000000000000000000000000000019c7823326e5dd5ef85000000000000000000000000000000000000000000000002afe36f7b28a250e300000000000000000000000000000000000000000000019c78261673591a8785",
          "blockHash": "0x2027a968be70bd58360cea2a33f7b674309776d9d4184461beb9450dc282476b",
          "blockNumber": "0x3728206",
          "transactionHash": "0x6d176820d2388c405136894ae32e52bbc6e0a5256876db50d679c5aac2f798aa",
          "transactionIndex": "0x42",
          "logIndex": "0xd7",
          "removed": false
        }
      ],
      "logsBloom": "0x00000000000000000000000000000000000000000000000000000000000000000000000000001000000000080000000000208000000000000000000000000000000000000000000004000000000000800000000000000000000100020000000040000002020000000000000000000800000000000000000080000000000000000000000040000000000000000000000000000000000000000000000000000000200000000000000000000000000000000000000000000000000000000000004000000000000000000001100000000000000000000000000000100000000020000000000000000000000000000000000040000000000000000000200020100000",
      "type": "0x2",
      "transactionHash": "0x6d176820d2388c405136894ae32e52bbc6e0a5256876db50d679c5aac2f798aa",
      "transactionIndex": "0x42",
      "blockHash": "0x2027a968be70bd58360cea2a33f7b674309776d9d4184461beb9450dc282476b",
      "blockNumber": "0x3728206",
      "gasUsed": "0x69f2",
      "effectiveGasPrice": "0x6fc23ac39",
      "from": "0x5ea4e6fa3967aafbdeb209cf230abb65b570195a",
      "to": "0x92947a36fec4d768ac9d43417a9607a9be28cbf2",
      "contractAddress": null
    },
    {
      "status": "0x1",
      "cumulativeGasUsed": "0xa941b1",
      "logs": [
        {
          "address": "0x0b6f3ea2814f3fff804ba5d5c237aebbc364fba9",
          "topics": [
            "0x8c5be1e5ebec7d5bd14f71427d1e84f3dd0314c0f7b2291e5b200ac8c7c3b925",
            "0x000000000000000000000000f734263d5c6153fd6d0467f226a6e4d3affc9ac4",
            "0x00000000000000000000000092947a36fec4d768ac9d43417a9607a9be28cbf2"
          ],
          "data": "0xffffffffffffffffffffffffffffffffffffffffffffffffffffffffffffffff",
          "blockHash": "0xb7d372cecda8dd723b62de6b461d70262378992dd11718adab8cee62ca6fa720",
          "blockNumber": "0x372820a",
          "transactionHash": "0xadfd124460b28e33e7f9f67207b1dad0d54424834feddf9f9e675e7fd2da95f5",
          "transactionIndex": "0x49",
          "logIndex": "0x18b",
          "removed": false
        },
        {
          "address": "0x0000000000000000000000000000000000001010",
          "topics": [
            "0x4dfe1bbbcf077ddc3e01291eea2d5c70c2b422b415d95645b9adcfd678cb1d63",
            "0x0000000000000000000000000000000000000000000000000000000000001010",
            "0x000000000000000000000000f734263d5c6153fd6d0467f226a6e4d3affc9ac4",
            "0x000000000000000000000000794e44d1334a56fea7f4df12633b88820d0c5888"
          ],
          "data": "0x0000000000000000000000000000000000000000000000000004f8979f1bec0000000000000000000000000000000000000000000000003f2c104ddeba34000000000000000000000000000000000000000000000000019c99dc993d176ffe5a00000000000000000000000000000000000000000000003f2c0b55471b18140000000000000000000000000000000000000000000000019c99e191d4b68bea5a",
          "blockHash": "0xb7d372cecda8dd723b62de6b461d70262378992dd11718adab8cee62ca6fa720",
          "blockNumber": "0x372820a",
          "transactionHash": "0xadfd124460b28e33e7f9f67207b1dad0d54424834feddf9f9e675e7fd2da95f5",
          "transactionIndex": "0x49",
          "logIndex": "0x18c",
          "removed": false
        }
      ],
      "logsBloom": "0x00000000000000000000000000000000000004000000000000000000000000000000010000001000000000000000000001008000000000000000000000200000000000000010000000008000000000800000000000000000000100020000000000000000000000000000000000000000000080000000000080000000000000000000000000000000000000040000000000000000000000000000000000000000220000000000000000000000000000000000000000000000000000000000004000000000000000000001000000000000000000000000000000900000000000000010000000000000000000000000000000002000000000000000000020100000",
      "type": "0x2",
      "transactionHash": "0xadfd124460b28e33e7f9f67207b1dad0d54424834feddf9f9e675e7fd2da95f5",
      "transactionIndex": "0x49",
      "blockHash": "0xb7d372cecda8dd723b62de6b461d70262378992dd11718adab8cee62ca6fa720",
      "blockNumber": "0x372820a",
      "gasUsed": "0xb631",
      "effectiveGasPrice": "0x6fc23ac38",
      "from": "0xf734263d5c6153fd6d0467f226a6e4d3affc9ac4",
      "to": "0x0b6f3ea2814f3fff804ba5d5c237aebbc364fba9",
      "contractAddress": null
    },
    {
      "status": "0x1",
      "cumulativeGasUsed": "0xdecae8",
      "logs": [
        {
          "address": "0xe79922e8e606116ce3776e0b4ac7a124cc5b5fa2",
          "topics": [
            "0x17307eab39ab6107e8899845ad3d59bd9653f200f220920489ca2b5937696c31",
            "0x000000000000000000000000f734263d5c6153fd6d0467f226a6e4d3affc9ac4",
            "0x00000000000000000000000092947a36fec4d768ac9d43417a9607a9be28cbf2"
          ],
          "data": "0x0000000000000000000000000000000000000000000000000000000000000001",
          "blockHash": "0xc3b1ad7c7d23638af0ec6dcd9dd64e8d4a055a97728374f37b058e39ef3b763b",
          "blockNumber": "0x372820d",
          "transactionHash": "0xca79902090b746b326d9db8976f9e4899e2c87ae165414b1641a3e69dfe61e67",
          "transactionIndex": "0x42",
          "logIndex": "0x212",
          "removed": false
        },
        {
          "address": "0x0000000000000000000000000000000000001010",
          "topics": [
            "0x4dfe1bbbcf077ddc3e01291eea2d5c70c2b422b415d95645b9adcfd678cb1d63",
            "0x0000000000000000000000000000000000000000000000000000000000001010",
            "0x000000000000000000000000f734263d5c6153fd6d0467f226a6e4d3affc9ac4",
            "0x000000000000000000000000794e44d1334a56fea7f4df12633b88820d0c5888"
          ],
          "data": "0x0000000000000000000000000000000000000000000000000004ed1af872100000000000000000000000000000000000000000000000003f2c0b55471af0394800000000000000000000000000000000000000000000019d36139336287d12ad00000000000000000000000000000000000000000000003f2c06682c227e294800000000000000000000000000000000000000000000019d3618805120ef22ad",
          "blockHash": "0xc3b1ad7c7d23638af0ec6dcd9dd64e8d4a055a97728374f37b058e39ef3b763b",
          "blockNumber": "0x372820d",
          "transactionHash": "0xca79902090b746b326d9db8976f9e4899e2c87ae165414b1641a3e69dfe61e67",
          "transactionIndex": "0x42",
          "logIndex": "0x213",
          "removed": false
        }
      ],
      "logsBloom": "0x00000000100000000000000000000000000000000000000000000000000000000000010000001000000000000000000001008000000000000000000000000000000000000000000400000000000000800000010000000000000100020000000002000000000000000000000000000000000080000000000080000000000000000000000000000000000000040000000000000000000000000000000000000000200000000000000000000000000000000000000000000000000000000000004000000000000000000001000000000000000000000000000000900000000000000000200800000000000000000000000000002000000000000000000020100000",
      "type": "0x2",
      "transactionHash": "0xca79902090b746b326d9db8976f9e4899e2c87ae165414b1641a3e69dfe61e67",
      "transactionIndex": "0x42",
      "blockHash": "0xc3b1ad7c7d23638af0ec6dcd9dd64e8d4a055a97728374f37b058e39ef3b763b",
      "blockNumber": "0x372820d",
      "gasUsed": "0xb48c",
      "effectiveGasPrice": "0x6fc23ac39",
      "from": "0xf734263d5c6153fd6d0467f226a6e4d3affc9ac4",
      "to": "0xe79922e8e606116ce3776e0b4ac7a124cc5b5fa2",
      "contractAddress": null
    }
  ],
  "libraries": [],
  "pending": [],
  "returns": {},
  "timestamp": 1717680049,
  "chain": 137,
  "commit": "5ccb80b"
}