{
  "transactions": [
    {
      "hash": "0xcc745a7825523d9cfe0015bec4ca3f1e27a1049ca5ea499fca9d902d4be196e6",
      "transactionType": "CREATE",
      "contractName": "NFT",
      "contractAddress": "0xe79922e8e606116ce3776e0b4ac7a124cc5b5fa2",
      "function": null,
      "arguments": [
        "4294967296",
        "\"Euro UC\"",
        "\"EUC\""
      ],
      "transaction": {
        "from": "0x5ea4e6fa3967aafbdeb209cf230abb65b570195a",
        "gas": "0x211d4b",
        "value": "0x0",
        "input": "0x608060405234801561001057600080fd5b50604051611ee2380380611ee283398101604081905261002f916101de565b8181600061003d83826102d6565b50600161004a82826102d6565b50506008805460ff19169055506009839055610067600033610070565b50505050610395565b60008281526007602090815260408083206001600160a01b038516845290915281205460ff166101165760008381526007602090815260408083206001600160a01b03861684529091529020805460ff191660011790556100ce3390565b6001600160a01b0316826001600160a01b0316847f2f8788117e7eff1d82e926ec794901d17c78024a50270940304540a733656f0d60405160405180910390a450600161011a565b5060005b92915050565b634e487b7160e01b600052604160045260246000fd5b600082601f83011261014757600080fd5b81516001600160401b038082111561016157610161610120565b604051601f8301601f19908116603f0116810190828211818310171561018957610189610120565b81604052838152602092508660208588010111156101a657600080fd5b600091505b838210156101c857858201830151818301840152908201906101ab565b6000602085830101528094505050505092915050565b6000806000606084860312156101f357600080fd5b835160208501519093506001600160401b038082111561021257600080fd5b61021e87838801610136565b9350604086015191508082111561023457600080fd5b5061024186828701610136565b9150509250925092565b600181811c9082168061025f57607f821691505b60208210810361027f57634e487b7160e01b600052602260045260246000fd5b50919050565b601f8211156102d1576000816000526020600020601f850160051c810160208610156102ae5750805b601f850160051c820191505b818110156102cd578281556001016102ba565b5050505b505050565b81516001600160401b038111156102ef576102ef610120565b610303816102fd845461024b565b84610285565b602080601f83116001811461033857600084156103205750858301515b600019600386901b1c1916600185901b1785556102cd565b600085815260208120601f198616915b8281101561036757888601518255948401946001909101908401610348565b50858210156103855787850151600019600388901b60f8161c191681555b5050505050600190811b01905550565b611b3e806103a46000396000f3fe608060405234801561001057600080fd5b50600436106101a95760003560e01c806370a08231116100f9578063bee93ca611610097578063d547741f11610071578063d547741f1461037e578063e63ab1e914610391578063e985e9c5146103b8578063e9a9c850146103cb57600080fd5b8063bee93ca614610345578063c87b56dd14610358578063d204c45e1461036b57600080fd5b806395d89b41116100d357806395d89b411461030f578063a217fddf14610317578063a22cb4651461031f578063b88d4fde1461033257600080fd5b806370a08231146102e15780638456cb59146102f457806391d14854146102fc57600080fd5b80632f2ff15d1161016657806342842e0e1161014057806342842e0e1461029d57806355f804b3146102b05780635c975abb146102c35780636352211e146102ce57600080fd5b80632f2ff15d1461026f57806336568abe146102825780633f4ba83a1461029557600080fd5b806301ffc9a7146101ae57806306fdde03146101d6578063081812fc146101eb578063095ea7b31461021657806323b872dd1461022b578063248a9ca31461023e575b600080fd5b6101c16101bc366004611408565b6103f2565b60405190151581526020015b60405180910390f35b6101de610412565b6040516101cd9190611475565b6101fe6101f9366004611488565b6104a4565b6040516001600160a01b0390911681526020016101cd565b6102296102243660046114bd565b6104cd565b005b6102296102393660046114e7565b6104dc565b61026161024c366004611488565b60009081526007602052604090206001015490565b6040519081526020016101cd565b61022961027d366004611523565b61056c565b610229610290366004611523565b610591565b6102296105c9565b6102296102ab3660046114e7565b6105fe565b6102296102be36600461160e565b610619565b60085460ff166101c1565b6101fe6102dc366004611488565b610630565b6102616102ef366004611643565b61063b565b610229610683565b6101c161030a366004611523565b6106b5565b6101de6106e0565b610261600081565b61022961032d36600461165e565b6106ef565b61022961034036600461169a565b6106fa565b6102296103533660046117ca565b610711565b6101de610366366004611488565b6107f9565b61022961037936600461188a565b6108fd565b61022961038c366004611523565b610954565b6102617f65d7a28e3265b37a6474929f336521b332c1681b933f6cb9f3376673440d862a81565b6101c16103c63660046118ce565b610979565b6102617f154c00819833dac601ee5ddded6fda79d9d8b506b911b3dbd54cdb95fe6c368681565b60006103fd826109a7565b8061040c575061040c826109f7565b92915050565b606060008054610421906118f8565b80601f016020809104026020016040519081016040528092919081815260200182805461044d906118f8565b801561049a5780601f1061046f5761010080835404028352916020019161049a565b820191906000526020600020905b81548152906001019060200180831161047d57829003601f168201915b5050505050905090565b60006104af82610a1c565b506000828152600460205260409020546001600160a01b031661040c565b6104d8828233610a55565b5050565b6001600160a01b03821661050b57604051633250574960e11b8152600060048201526024015b60405180910390fd5b6000610518838333610a62565b9050836001600160a01b0316816001600160a01b031614610566576040516364283d7b60e01b81526001600160a01b0380861660048301526024820184905282166044820152606401610502565b50505050565b60008281526007602052604090206001015461058781610b5b565b6105668383610b65565b6001600160a01b03811633146105ba5760405163334bd91960e11b815260040160405180910390fd5b6105c48282610bf9565b505050565b7f65d7a28e3265b37a6474929f336521b332c1681b933f6cb9f3376673440d862a6105f381610b5b565b6105fb610c66565b50565b6105c4838383604051806020016040528060008152506106fa565b600061062481610b5b565b600a6105c48382611982565b600061040c82610a1c565b60006001600160a01b038216610667576040516322718ad960e21b815260006004820152602401610502565b506001600160a01b031660009081526003602052604090205490565b7f65d7a28e3265b37a6474929f336521b332c1681b933f6cb9f3376673440d862a6106ad81610b5b565b6105fb610cb8565b60009182526007602090815260408084206001600160a01b0393909316845291905290205460ff1690565b606060018054610421906118f8565b6104d8338383610cf5565b6107058484846104dc565b61056684848484610d94565b7f154c00819833dac601ee5ddded6fda79d9d8b506b911b3dbd54cdb95fe6c368661073b81610b5b565b81518351146107a15760405162461bcd60e51b815260206004820152602c60248201527f746f20616e6420697066734d6564617461555249206172726179206c656e677460448201526b0d040daeae6e840dac2e8c6d60a31b6064820152608401610502565b825160005b818110156107f2576107ea8582815181106107c3576107c3611a42565b60200260200101518583815181106107dd576107dd611a42565b60200260200101516108fd565b6001016107a6565b5050505050565b606061080482610a1c565b506000828152600660205260408120805461081e906118f8565b80601f016020809104026020016040519081016040528092919081815260200182805461084a906118f8565b80156108975780601f1061086c57610100808354040283529160200191610897565b820191906000526020600020905b81548152906001019060200180831161087a57829003601f168201915b5050505050905060006108a8610eb6565b905080516000036108ba575092915050565b8151156108ec5780826040516020016108d4929190611a58565b60405160208183030381529060405292505050919050565b6108f584610ec5565b949350505050565b7f154c00819833dac601ee5ddded6fda79d9d8b506b911b3dbd54cdb95fe6c368661092781610b5b565b6009805490600061093783611a87565b919050555061094883600954610f2d565b6105c460095483610f47565b60008281526007602052604090206001015461096f81610b5b565b6105668383610bf9565b6001600160a01b03918216600090815260056020908152604080832093909416825291909152205460ff1690565b60006001600160e01b031982166380ac58cd60e01b14806109d857506001600160e01b03198216635b5e139f60e01b145b8061040c57506301ffc9a760e01b6001600160e01b031983161461040c565b60006001600160e01b03198216637965db0b60e01b148061040c575061040c82610f97565b6000818152600260205260408120546001600160a01b03168061040c57604051637e27328960e01b815260048101849052602401610502565b6105c48383836001610fbc565b6000828152600260205260408120546001600160a01b0390811690831615610a8f57610a8f8184866110c2565b6001600160a01b03811615610acd57610aac600085600080610fbc565b6001600160a01b038116600090815260036020526040902080546000190190555b6001600160a01b03851615610afc576001600160a01b0385166000908152600360205260409020805460010190555b60008481526002602052604080822080546001600160a01b0319166001600160a01b0389811691821790925591518793918516917fddf252ad1be2c89b69c2b068fc378daa952ba7f163c4a11628f55a4df523b3ef91a4949350505050565b6105fb8133611126565b6000610b7183836106b5565b610bf15760008381526007602090815260408083206001600160a01b03861684529091529020805460ff19166001179055610ba93390565b6001600160a01b0316826001600160a01b0316847f2f8788117e7eff1d82e926ec794901d17c78024a50270940304540a733656f0d60405160405180910390a450600161040c565b50600061040c565b6000610c0583836106b5565b15610bf15760008381526007602090815260408083206001600160a01b0386168085529252808320805460ff1916905551339286917ff6391f5c32d9c69d2a47ea670b442974b53935d1edc7fd64eb21e047a839171b9190a450600161040c565b610c6e61115f565b6008805460ff191690557f5db9ee0a495bf2e6ff9c91a7834c1ba4fdd244a5e8aa4e537bd38aeae4b073aa335b6040516001600160a01b03909116815260200160405180910390a1565b610cc0611184565b6008805460ff191660011790557f62e78cea01bee320cd4e420270b5ea74000d11b0c9f74754ebdbfc544b05a258610c9b3390565b6001600160a01b038216610d2757604051630b61174360e31b81526001600160a01b0383166004820152602401610502565b6001600160a01b03838116600081815260056020908152604080832094871680845294825291829020805460ff191686151590811790915591519182527f17307eab39ab6107e8899845ad3d59bd9653f200f220920489ca2b5937696c31910160405180910390a3505050565b6001600160a01b0383163b1561056657604051630a85bd0160e11b81526001600160a01b0384169063150b7a0290610dd6903390889087908790600401611aae565b6020604051808303816000875af1925050508015610e11575060408051601f3d908101601f19168201909252610e0e91810190611aeb565b60015b610e7a573d808015610e3f576040519150601f19603f3d011682016040523d82523d6000602084013e610e44565b606091505b508051600003610e7257604051633250574960e11b81526001600160a01b0385166004820152602401610502565b805181602001fd5b6001600160e01b03198116630a85bd0160e11b146107f257604051633250574960e11b81526001600160a01b0385166004820152602401610502565b6060600a8054610421906118f8565b6060610ed082610a1c565b506000610edb610eb6565b90506000815111610efb5760405180602001604052806000815250610f26565b80610f05846111a8565b604051602001610f16929190611a58565b6040516020818303038152906040525b9392505050565b6104d882826040518060200160405280600081525061123b565b6000828152600660205260409020610f5f8282611982565b506040518281527ff8e1a15aba9398e019f0b49df1a4fde98ee17ae345cb5f6b5e2c27f5033e8ce79060200160405180910390a15050565b60006001600160e01b03198216632483248360e11b148061040c575061040c826109a7565b8080610fd057506001600160a01b03821615155b15611092576000610fe084610a1c565b90506001600160a01b0383161580159061100c5750826001600160a01b0316816001600160a01b031614155b801561101f575061101d8184610979565b155b156110485760405163a9fbf51f60e01b81526001600160a01b0384166004820152602401610502565b81156110905783856001600160a01b0316826001600160a01b03167f8c5be1e5ebec7d5bd14f71427d1e84f3dd0314c0f7b2291e5b200ac8c7c3b92560405160405180910390a45b505b5050600090815260046020526040902080546001600160a01b0319166001600160a01b0392909216919091179055565b6110cd838383611252565b6105c4576001600160a01b0383166110fb57604051637e27328960e01b815260048101829052602401610502565b60405163177e802f60e01b81526001600160a01b038316600482015260248101829052604401610502565b61113082826106b5565b6104d85760405163e2517d3f60e01b81526001600160a01b038216600482015260248101839052604401610502565b60085460ff1661118257604051638dfc202b60e01b815260040160405180910390fd5b565b60085460ff16156111825760405163d93c066560e01b815260040160405180910390fd5b606060006111b5836112b5565b600101905060008167ffffffffffffffff8111156111d5576111d561154f565b6040519080825280601f01601f1916602001820160405280156111ff576020820181803683370190505b5090508181016020015b600019016f181899199a1a9b1b9c1cb0b131b232b360811b600a86061a8153600a850494508461120957509392505050565b611245838361138d565b6105c46000848484610d94565b60006001600160a01b038316158015906108f55750826001600160a01b0316846001600160a01b0316148061128c575061128c8484610979565b806108f55750506000908152600460205260409020546001600160a01b03908116911614919050565b60008072184f03e93ff9f4daa797ed6e38ed64bf6a1f0160401b83106112f45772184f03e93ff9f4daa797ed6e38ed64bf6a1f0160401b830492506040015b6d04ee2d6d415b85acef81000000008310611320576d04ee2d6d415b85acef8100000000830492506020015b662386f26fc10000831061133e57662386f26fc10000830492506010015b6305f5e1008310611356576305f5e100830492506008015b612710831061136a57612710830492506004015b6064831061137c576064830492506002015b600a831061040c5760010192915050565b6001600160a01b0382166113b757604051633250574960e11b815260006004820152602401610502565b60006113c583836000610a62565b90506001600160a01b038116156105c4576040516339e3563760e11b815260006004820152602401610502565b6001600160e01b0319811681146105fb57600080fd5b60006020828403121561141a57600080fd5b8135610f26816113f2565b60005b83811015611440578181015183820152602001611428565b50506000910152565b60008151808452611461816020860160208601611425565b601f01601f19169290920160200192915050565b602081526000610f266020830184611449565b60006020828403121561149a57600080fd5b5035919050565b80356001600160a01b03811681146114b857600080fd5b919050565b600080604083850312156114d057600080fd5b6114d9836114a1565b946020939093013593505050565b6000806000606084860312156114fc57600080fd5b611505846114a1565b9250611513602085016114a1565b9150604084013590509250925092565b6000806040838503121561153657600080fd5b82359150611546602084016114a1565b90509250929050565b634e487b7160e01b600052604160045260246000fd5b604051601f8201601f1916810167ffffffffffffffff8111828210171561158e5761158e61154f565b604052919050565b600067ffffffffffffffff8311156115b0576115b061154f565b6115c3601f8401601f1916602001611565565b90508281528383830111156115d757600080fd5b828260208301376000602084830101529392505050565b600082601f8301126115ff57600080fd5b610f2683833560208501611596565b60006020828403121561162057600080fd5b813567ffffffffffffffff81111561163757600080fd5b6108f5848285016115ee565b60006020828403121561165557600080fd5b610f26826114a1565b6000806040838503121561167157600080fd5b61167a836114a1565b91506020830135801515811461168f57600080fd5b809150509250929050565b600080600080608085870312156116b057600080fd5b6116b9856114a1565b93506116c7602086016114a1565b925060408501359150606085013567ffffffffffffffff8111156116ea57600080fd5b8501601f810187136116fb57600080fd5b61170a87823560208401611596565b91505092959194509250565b600067ffffffffffffffff8211156117305761173061154f565b5060051b60200190565b600082601f83011261174b57600080fd5b8135602061176061175b83611716565b611565565b82815260059290921b8401810191818101908684111561177f57600080fd5b8286015b848110156117bf57803567ffffffffffffffff8111156117a35760008081fd5b6117b18986838b01016115ee565b845250918301918301611783565b509695505050505050565b600080604083850312156117dd57600080fd5b823567ffffffffffffffff808211156117f557600080fd5b818501915085601f83011261180957600080fd5b8135602061181961175b83611716565b82815260059290921b8401810191818101908984111561183857600080fd5b948201945b8386101561185d5761184e866114a1565b8252948201949082019061183d565b9650508601359250508082111561187357600080fd5b506118808582860161173a565b9150509250929050565b6000806040838503121561189d57600080fd5b6118a6836114a1565b9150602083013567ffffffffffffffff8111156118c257600080fd5b611880858286016115ee565b600080604083850312156118e157600080fd5b6118ea836114a1565b9150611546602084016114a1565b600181811c9082168061190c57607f821691505b60208210810361192c57634e487b7160e01b600052602260045260246000fd5b50919050565b601f8211156105c4576000816000526020600020601f850160051c8101602086101561195b5750805b601f850160051c820191505b8181101561197a57828155600101611967565b505050505050565b815167ffffffffffffffff81111561199c5761199c61154f565b6119b0816119aa84546118f8565b84611932565b602080601f8311600181146119e557600084156119cd5750858301515b600019600386901b1c1916600185901b17855561197a565b600085815260208120601f198616915b82811015611a14578886015182559484019460019091019084016119f5565b5085821015611a325787850151600019600388901b60f8161c191681555b5050505050600190811b01905550565b634e487b7160e01b600052603260045260246000fd5b60008351611a6a818460208801611425565b835190830190611a7e818360208801611425565b01949350505050565b600060018201611aa757634e487b7160e01b600052601160045260246000fd5b5060010190565b6001600160a01b0385811682528416602082015260408101839052608060608201819052600090611ae190830184611449565b9695505050505050565b600060208284031215611afd57600080fd5b8151610f26816113f256fea26469706673582212209a69ccdd60bf57b089f02bc4df157b0da608f93207b41fc54c6e829ab75e52b464736f6c634300081900330000000000000000000000000000000000000000000000000000000100000000000000000000000000000000000000000000000000000000000000000000006000000000000000000000000000000000000000000000000000000000000000a000000000000000000000000000000000000000000000000000000000000000074575726f2055430000000000000000000000000000000000000000000000000000000000000000000000000000000000000000000000000000000000000000034555430000000000000000000000000000000000000000000000000000000000",
        "nonce": "0x18",
        "chainId": "0x89"
      },
      "additionalContracts": [],
      "isFixedGasLimit": false
    },
    {
      "hash": "0xeb93b6690d9353d930f134bce3a612577653d21eebcc0fb425d76d7e59df91d6",
      "transactionType": "CALL",
      "contractName": "NFT",
      "contractAddress": "0xe79922e8e606116ce3776e0b4ac7a124cc5b5fa2",
      "function": "setBaseURI(string)",
      "arguments": [
        "\"https://ipfs-europe.ultimate-champions.com/ipfs/\""
      ],
      "transaction": {
        "from": "0x5ea4e6fa3967aafbdeb209cf230abb65b570195a",
        "to": "0xe79922e8e606116ce3776e0b4ac7a124cc5b5fa2",
        "gas": "0x20e78",
        "value": "0x0",
        "input": "0x55f804b30000000000000000000000000000000000000000000000000000000000000020000000000000000000000000000000000000000000000000000000000000003068747470733a2f2f697066732d6575726f70652e756c74696d6174652d6368616d70696f6e732e636f6d2f697066732f00000000000000000000000000000000",
        "nonce": "0x19",
        "chainId": "0x89"
      },
      "additionalContracts": [],
      "isFixedGasLimit": false
    },
    {
      "hash": "0x175b66fe857b88480b86f97106fa825af65137087eeeed35e766cfed9fe0a306",
      "transactionType": "CALL",
      "contractName": "NFT",
      "contractAddress": "0xe79922e8e606116ce3776e0b4ac7a124cc5b5fa2",
      "function": "grantRole(bytes32,address)",
      "arguments": [
        "0x0000000000000000000000000000000000000000000000000000000000000000",
        "0xAB1cEF7F6CB9BA03D8027AD1ca3597FE374B1329"
      ],
      "transaction": {
        "from": "0x5ea4e6fa3967aafbdeb209cf230abb65b570195a",
        "to": "0xe79922e8e606116ce3776e0b4ac7a124cc5b5fa2",
        "gas": "0x12403",
        "value": "0x0",
        "input": "0x2f2ff15d0000000000000000000000000000000000000000000000000000000000000000000000000000000000000000ab1cef7f6cb9ba03d8027ad1ca3597fe374b1329",
        "nonce": "0x1a",
        "chainId": "0x89"
      },
      "additionalContracts": [],
      "isFixedGasLimit": false
    },
    {
      "hash": "0x9b9eca880c5561921f5a03e0532323aac489194f555b869ef16d9412e30ff1ca",
      "transactionType": "CALL",
      "contractName": "NFT",
      "contractAddress": "0xe79922e8e606116ce3776e0b4ac7a124cc5b5fa2",
      "function": "grantRole(bytes32,address)",
      "arguments": [
        "0x154c00819833dac601ee5ddded6fda79d9d8b506b911b3dbd54cdb95fe6c3686",
        "0xF734263d5c6153fD6D0467f226a6e4D3AFFC9ac4"
      ],
      "transaction": {
        "from": "0x5ea4e6fa3967aafbdeb209cf230abb65b570195a",
        "to": "0xe79922e8e606116ce3776e0b4ac7a124cc5b5fa2",
        "gas": "0x115cb",
        "value": "0x0",
        "input": "0x2f2ff15d154c00819833dac601ee5ddded6fda79d9d8b506b911b3dbd54cdb95fe6c3686000000000000000000000000f734263d5c6153fd6d0467f226a6e4d3affc9ac4",
        "nonce": "0x1b",
        "chainId": "0x89"
      },
      "additionalContracts": [],
      "isFixedGasLimit": false
    },
    {
      "hash": "0xc476a87fc4fa6f6416fb667f4099e63c2bf0a15284c8f1ae4efe17affcbda466",
      "transactionType": "CALL",
      "contractName": "NFT",
      "contractAddress": "0xe79922e8e606116ce3776e0b4ac7a124cc5b5fa2",
      "function": "grantRole(bytes32,address)",
      "arguments": [
        "0x65d7a28e3265b37a6474929f336521b332c1681b933f6cb9f3376673440d862a",
        "0x1303CD215CA61F2362796d4C655184934B1eBb29"
      ],
      "transaction": {
        "from": "0x5ea4e6fa3967aafbdeb209cf230abb65b570195a",
        "to": "0xe79922e8e606116ce3776e0b4ac7a124cc5b5fa2",
        "gas": "0x12634",
        "value": "0x0",
        "input": "0x2f2ff15d65d7a28e3265b37a6474929f336521b332c1681b933f6cb9f3376673440d862a0000000000000000000000001303cd215ca61f2362796d4c655184934b1ebb29",
        "nonce": "0x1c",
        "chainId": "0x89"
      },
      "additionalContracts": [],
      "isFixedGasLimit": false
    },
    {
      "hash": "0xf1d974173dd6d19bf67a939693c8730a2582479ee52fe52bb819f08bbff8f9ec",
      "transactionType": "CALL",
      "contractName": "NFT",
      "contractAddress": "0xe79922e8e606116ce3776e0b4ac7a124cc5b5fa2",
      "function": "renounceRole(bytes32,address)",
      "arguments": [
        "0x0000000000000000000000000000000000000000000000000000000000000000",
        "0x5ea4e6fa3967AafBdEb209cf230abB65B570195A"
      ],
      "transaction": {
        "from": "0x5ea4e6fa3967aafbdeb209cf230abb65b570195a",
        "to": "0xe79922e8e606116ce3776e0b4ac7a124cc5b5fa2",
        "gas": "0x8cdc",
        "value": "0x0",
        "input": "0x36568abe00000000000000000000000000000000000000000000000000000000000000000000000000000000000000005ea4e6fa3967aafbdeb209cf230abb65b570195a",
        "nonce": "0x1d",
        "chainId": "0x89"
      },
      "additionalContracts": [],
      "isFixedGasLimit": false
    }
  ],
  "receipts": [
    {
      "status": "0x1",
      "cumulativeGasUsed": "0xe19b7c",
      "logs": [
        {
          "address": "0xe79922e8e606116ce3776e0b4ac7a124cc5b5fa2",
          "topics": [
            "0x2f8788117e7eff1d82e926ec794901d17c78024a50270940304540a733656f0d",
            "0x0000000000000000000000000000000000000000000000000000000000000000",
            "0x0000000000000000000000005ea4e6fa3967aafbdeb209cf230abb65b570195a",
            "0x0000000000000000000000005ea4e6fa3967aafbdeb209cf230abb65b570195a"
          ],
          "data": "0x",
          "blockHash": "0x21f7d3080127cd708521c1dad0771641924207760f7182e2cdd6e732b894387f",
          "blockNumber": "0x37280f6",
          "transactionHash": "0xcc745a7825523d9cfe0015bec4ca3f1e27a1049ca5ea499fca9d902d4be196e6",
          "transactionIndex": "0x60",
          "logIndex": "0x176",
          "removed": false
        },
        {
          "address": "0x0000000000000000000000000000000000001010",
          "topics": [
            "0x4dfe1bbbcf077ddc3e01291eea2d5c70c2b422b415d95645b9adcfd678cb1d63",
            "0x0000000000000000000000000000000000000000000000000000000000001010",
            "0x0000000000000000000000005ea4e6fa3967aafbdeb209cf230abb65b570195a",
            "0x000000000000000000000000d9385758a71af0836467f9f6957f048048c41283"
          ],
          "data": "0x00000000000000000000000000000000000000000000000000b1fa8bfb38fc00000000000000000000000000000000000000000000000002b25dab07c2c15971000000000000000000000000000000000000000000000030ec6e18a3158cd9f3000000000000000000000000000000000000000000000002b1abb07bc7885d71000000000000000000000000000000000000000000000030ed20132f10c5d5f3",
          "blockHash": "0x21f7d3080127cd708521c1dad0771641924207760f7182e2cdd6e732b894387f",
          "blockNumber": "0x37280f6",
          "transactionHash": "0xcc745a7825523d9cfe0015bec4ca3f1e27a1049ca5ea499fca9d902d4be196e6",
          "transactionIndex": "0x60",
          "logIndex": "0x177",
          "removed": false
        }
      ],
      "logsBloom": "0x01000004100000000000000000000000000000000000000000000000000000000000000000000000000002080000000000008000000000000000000000000000000000000000000400000000000000800000010000000000000100000000000000000000020000000000000000000800000000000000000080000000000000000000000000000000000000000000000000000000000000000000000000200000200000000000000000000000000000000000000000000000001000000000004000000000000000000001100000000000000000000000000100100000000020000000000000000000000000000000000040000000000000000000000000100000",
      "type": "0x2",
      "transactionHash": "0xcc745a7825523d9cfe0015bec4ca3f1e27a1049ca5ea499fca9d902d4be196e6",
      "transactionIndex": "0x60",
      "blockHash": "0x21f7d3080127cd708521c1dad0771641924207760f7182e2cdd6e732b894387f",
      "blockNumber": "0x37280f6",
      "gasUsed": "0x197afd",
      "effectiveGasPrice": "0x6fc23ac32",
      "from": "0x5ea4e6fa3967aafbdeb209cf230abb65b570195a",
      "to": null,
      "contractAddress": "0xe79922e8e606116ce3776e0b4ac7a124cc5b5fa2"
    },
    {
      "status": "0x1",
      "cumulativeGasUsed": "0xe30377",
      "logs": [
        {
          "address": "0x0000000000000000000000000000000000001010",
          "topics": [
            "0x4dfe1bbbcf077ddc3e01291eea2d5c70c2b422b415d95645b9adcfd678cb1d63",
            "0x0000000000000000000000000000000000000000000000000000000000001010",
            "0x0000000000000000000000005ea4e6fa3967aafbdeb209cf230abb65b570195a",
            "0x000000000000000000000000d9385758a71af0836467f9f6957f048048c41283"
          ],
          "data": "0x0000000000000000000000000000000000000000000000000009d26f3d2da400000000000000000000000000000000000000000000000002b1abb07bc28e5807000000000000000000000000000000000000000000000030ed20132f10c5d5f3000000000000000000000000000000000000000000000002b1a1de0c8560b407000000000000000000000000000000000000000000000030ed29e59e4df379f3",
          "blockHash": "0x21f7d3080127cd708521c1dad0771641924207760f7182e2cdd6e732b894387f",
          "blockNumber": "0x37280f6",
          "transactionHash": "0xeb93b6690d9353d930f134bce3a612577653d21eebcc0fb425d76d7e59df91d6",
          "transactionIndex": "0x61",
          "logIndex": "0x178",
          "removed": false
        }
      ],
      "logsBloom": "0x01000000000000000000000000000000000000000000000000000000000000000000000000000000000002080000000000008000000000000000000000000000000000000000000000000000000000800000000000000000000100000000000000000000000000000000000000000000000000000000000080000000000000000000000000000000000000000000000000000000000000000000000000200000200000000000000000000000000000000000000000000000000000000000004000000000000000000001100000000000000000000000000000100000000000000000000000000000000000000000000040000000000000000000000000100000",
      "type": "0x2",
      "transactionHash": "0xeb93b6690d9353d930f134bce3a612577653d21eebcc0fb425d76d7e59df91d6",
      "transactionIndex": "0x61",
      "blockHash": "0x21f7d3080127cd708521c1dad0771641924207760f7182e2cdd6e732b894387f",
      "blockNumber": "0x37280f6",
      "gasUsed": "0x167fb",
      "effectiveGasPrice": "0x6fc23ac32",
      "from": "0x5ea4e6fa3967aafbdeb209cf230abb65b570195a",
      "to": "0xe79922e8e606116ce3776e0b4ac7a124cc5b5fa2",
      "contractAddress": null
    },
    {
      "status": "0x1",
      "cumulativeGasUsed": "0x16a2196",
      "logs": [
        {
          "address": "0xe79922e8e606116ce3776e0b4ac7a124cc5b5fa2",
          "topics": [
            "0x2f8788117e7eff1d82e926ec794901d17c78024a50270940304540a733656f0d",
            "0x0000000000000000000000000000000000000000000000000000000000000000",
            "0x000000000000000000000000ab1cef7f6cb9ba03d8027ad1ca3597fe374b1329",
            "0x0000000000000000000000005ea4e6fa3967aafbdeb209cf230abb65b570195a"
          ],
          "data": "0x",
          "blockHash": "0x21f7d3080127cd708521c1dad0771641924207760f7182e2cdd6e732b894387f",
          "blockNumber": "0x37280f6",
          "transactionHash": "0x175b66fe857b88480b86f97106fa825af65137087eeeed35e766cfed9fe0a306",
          "transactionIndex": "0x6b",
          "logIndex": "0x38c",
          "removed": false
        },
        {
          "address": "0x0000000000000000000000000000000000001010",
          "topics": [
            "0x4dfe1bbbcf077ddc3e01291eea2d5c70c2b422b415d95645b9adcfd678cb1d63",
            "0x0000000000000000000000000000000000000000000000000000000000001010",
            "0x0000000000000000000000005ea4e6fa3967aafbdeb209cf230abb65b570195a",
            "0x000000000000000000000000d9385758a71af0836467f9f6957f048048c41283"
          ],
          "data": "0x000000000000000000000000000000000000000000000000000572aa2687e400000000000000000000000000000000000000000000000002b1a1de0c851a6501000000000000000000000000000000000000000000000030f0d43c2891e569f3000000000000000000000000000000000000000000000002b19c6b625e928101000000000000000000000000000000000000000000000030f0d9aed2b86d4df3",
          "blockHash": "0x21f7d3080127cd708521c1dad0771641924207760f7182e2cdd6e732b894387f",
          "blockNumber": "0x37280f6",
          "transactionHash": "0x175b66fe857b88480b86f97106fa825af65137087eeeed35e766cfed9fe0a306",
          "transactionIndex": "0x6b",
          "logIndex": "0x38d",
          "removed": false
        }
      ],
      "logsBloom": "0x01000004100000000000000000000000000000000000000000000000000000000000000000000000000002080000000000008000000000000000000000000000000000000000000400000000000000800000010000000000000100000000000000000000020000000000000000000800000000000000000080000000000000000000000000000000000000000000000000000000000000000000000000200000200000000000040000000000000000000004000000000000001000000400004000000000000000000001100000000000000000000000000100100000000020000000000000000000000000000000000040000000000000000000000000100000",
      "type": "0x2",
      "transactionHash": "0x175b66fe857b88480b86f97106fa825af65137087eeeed35e766cfed9fe0a306",
      "transactionIndex": "0x6b",
      "blockHash": "0x21f7d3080127cd708521c1dad0771641924207760f7182e2cdd6e732b894387f",
      "blockNumber": "0x37280f6",
      "gasUsed": "0xc7ab",
      "effectiveGasPrice": "0x6fc23ac32",
      "from": "0x5ea4e6fa3967aafbdeb209cf230abb65b570195a",
      "to": "0xe79922e8e606116ce3776e0b4ac7a124cc5b5fa2",
      "contractAddress": null
    },
    {
      "status": "0x1",
      "cumulativeGasUsed": "0xb13565",
      "logs": [
        {
          "address": "0xe79922e8e606116ce3776e0b4ac7a124cc5b5fa2",
          "topics": [
            "0x2f8788117e7eff1d82e926ec794901d17c78024a50270940304540a733656f0d",
            "0x154c00819833dac601ee5ddded6fda79d9d8b506b911b3dbd54cdb95fe6c3686",
            "0x000000000000000000000000f734263d5c6153fd6d0467f226a6e4d3affc9ac4",
            "0x0000000000000000000000005ea4e6fa3967aafbdeb209cf230abb65b570195a"
          ],
          "data": "0x",
          "blockHash": "0xbd669138a714c8c5714517871e8b8ede66ae78f7b141b980dade19768f47ffe6",
          "blockNumber": "0x37280fa",
          "transactionHash": "0x9b9eca880c5561921f5a03e0532323aac489194f555b869ef16d9412e30ff1ca",
          "transactionIndex": "0x34",
          "logIndex": "0x162",
          "removed": false
        },
        {
          "address": "0x0000000000000000000000000000000000001010",
          "topics": [
            "0x4dfe1bbbcf077ddc3e01291eea2d5c70c2b422b415d95645b9adcfd678cb1d63",
            "0x0000000000000000000000000000000000000000000000000000000000001010",
            "0x0000000000000000000000005ea4e6fa3967aafbdeb209cf230abb65b570195a",
            "0x000000000000000000000000d9385758a71af0836467f9f6957f048048c41283"
          ],
          "data": "0x00000000000000000000000000000000000000000000000000057cd08a5dd400000000000000000000000000000000000000000000000002b19c6b625e6b819b00000000000000000000000000000000000000000000003122d9cf7217203b9d000000000000000000000000000000000000000000000002b196ee91d40dad9b00000000000000000000000000000000000000000000003122df4c42a17e0f9d",
          "blockHash": "0xbd669138a714c8c5714517871e8b8ede66ae78f7b141b980dade19768f47ffe6",
          "blockNumber": "0x37280fa",
          "transactionHash": "0x9b9eca880c5561921f5a03e0532323aac489194f555b869ef16d9412e30ff1ca",
          "transactionIndex": "0x34",
          "logIndex": "0x163",
          "removed": false
        }
      ],
      "logsBloom": "0x01000004100000000000000000000000000000000000000000000000000000000000000000000000000002080000000001008000000000000080000000000000000000000000000400000000000000800000010000000000000100000000000000000000000000000000000000000000000080000000000080000000000000010000000000000000000000000000000000000000000000000000000000200000200000000000000000000000000000000000000000000000001000000000004000000000000000000001100000000000000000000000000100100000000000000000000000000000000000000000000040012000000000000000000000100000",
      "type": "0x2",
      "transactionHash": "0x9b9eca880c5561921f5a03e0532323aac489194f555b869ef16d9412e30ff1ca",
      "transactionIndex": "0x34",
      "blockHash": "0xbd669138a714c8c5714517871e8b8ede66ae78f7b141b980dade19768f47ffe6",
      "blockNumber": "0x37280fa",
      "gasUsed": "0xc91f",
      "effectiveGasPrice": "0x6fc23ac38",
      "from": "0x5ea4e6fa3967aafbdeb209cf230abb65b570195a",
      "to": "0xe79922e8e606116ce3776e0b4ac7a124cc5b5fa2",
      "contractAddress": null
    },
    {
      "status": "0x1",
      "cumulativeGasUsed": "0xb477cb",
      "logs": [
        {
          "address": "0xe79922e8e606116ce3776e0b4ac7a124cc5b5fa2",
          "topics": [
            "0x2f8788117e7eff1d82e926ec794901d17c78024a50270940304540a733656f0d",
            "0x65d7a28e3265b37a6474929f336521b332c1681b933f6cb9f3376673440d862a",
            "0x0000000000000000000000001303cd215ca61f2362796d4c655184934b1ebb29",
            "0x0000000000000000000000005ea4e6fa3967aafbdeb209cf230abb65b570195a"
          ],
          "data": "0x",
          "blockHash": "0xbd669138a714c8c5714517871e8b8ede66ae78f7b141b980dade19768f47ffe6",
          "blockNumber": "0x37280fa",
          "transactionHash": "0xc476a87fc4fa6f6416fb667f4099e63c2bf0a15284c8f1ae4efe17affcbda466",
          "transactionIndex": "0x36",
          "logIndex": "0x167",
          "removed": false
        },
        {
          "address": "0x0000000000000000000000000000000000001010",
          "topics": [
            "0x4dfe1bbbcf077ddc3e01291eea2d5c70c2b422b415d95645b9adcfd678cb1d63",
            "0x0000000000000000000000000000000000000000000000000000000000001010",
            "0x0000000000000000000000005ea4e6fa3967aafbdeb209cf230abb65b570195a",
            "0x000000000000000000000000d9385758a71af0836467f9f6957f048048c41283"
          ],
          "data": "0x00000000000000000000000000000000000000000000000000057d245c09e400000000000000000000000000000000000000000000000002b196ee91d3e1aed300000000000000000000000000000000000000000000003122f09352f202b39d000000000000000000000000000000000000000000000002b191716d77d7cad300000000000000000000000000000000000000000000003122f610774e0c979d",
          "blockHash": "0xbd669138a714c8c5714517871e8b8ede66ae78f7b141b980dade19768f47ffe6",
          "blockNumber": "0x37280fa",
          "transactionHash": "0xc476a87fc4fa6f6416fb667f4099e63c2bf0a15284c8f1ae4efe17affcbda466",
          "transactionIndex": "0x36",
          "logIndex": "0x168",
          "removed": false
        }
      ],
      "logsBloom": "0x01000004100000000000000000000000000000000000000000000000000000008000000000000000000002080000000000008000000000004000000000000000000000000000000400000000000000800000010000000000000100000000000000000000000000000000000000000000000000000000000080000000000000000000000000000000000000000000008000000000000000000000000000200000200000000000000000000000000000000000000000000000001000000000204000000000000000000001100000000000000000000000000100102000000000000000000000000000000000000000000040000400000000000000000000100000",
      "type": "0x2",
      "transactionHash": "0xc476a87fc4fa6f6416fb667f4099e63c2bf0a15284c8f1ae4efe17affcbda466",
      "transactionIndex": "0x36",
      "blockHash": "0xbd669138a714c8c5714517871e8b8ede66ae78f7b141b980dade19768f47ffe6",
      "blockNumber": "0x37280fa",
      "gasUsed": "0xc92b",
      "effectiveGasPrice": "0x6fc23ac38",
      "from": "0x5ea4e6fa3967aafbdeb209cf230abb65b570195a",
      "to": "0xe79922e8e606116ce3776e0b4ac7a124cc5b5fa2",
      "contractAddress": null
    },
    {
      "status": "0x1",
      "cumulativeGasUsed": "0x8dd2b5",
      "logs": [
        {
          "address": "0xe79922e8e606116ce3776e0b4ac7a124cc5b5fa2",
          "topics": [
            "0xf6391f5c32d9c69d2a47ea670b442974b53935d1edc7fd64eb21e047a839171b",
            "0x0000000000000000000000000000000000000000000000000000000000000000",
            "0x0000000000000000000000005ea4e6fa3967aafbdeb209cf230abb65b570195a",
            "0x0000000000000000000000005ea4e6fa3967aafbdeb209cf230abb65b570195a"
          ],
          "data": "0x",
          "blockHash": "0x39e5ec16fcbb82cc8b34e5f13496a6aa0eccf6f1ef152f99595cde4250831a0f",
          "blockNumber": "0x37280fc",
          "transactionHash": "0xf1d974173dd6d19bf67a939693c8730a2582479ee52fe52bb819f08bbff8f9ec",
          "transactionIndex": "0x4e",
          "logIndex": "0x115",
          "removed": false
        },
        {
          "address": "0x0000000000000000000000000000000000001010",
          "topics": [
            "0x4dfe1bbbcf077ddc3e01291eea2d5c70c2b422b415d95645b9adcfd678cb1d63",
            "0x0000000000000000000000000000000000000000000000000000000000001010",
            "0x0000000000000000000000005ea4e6fa3967aafbdeb209cf230abb65b570195a",
            "0x000000000000000000000000d9385758a71af0836467f9f6957f048048c41283"
          ],
          "data": "0x0000000000000000000000000000000000000000000000000002a0c327c96c00000000000000000000000000000000000000000000000002b191716d77abc96b0000000000000000000000000000000000000000000000312c217b3504efbe4f000000000000000000000000000000000000000000000002b18ed0aa4fe25d6b0000000000000000000000000000000000000000000000312c241bf82cb92a4f",
          "blockHash": "0x39e5ec16fcbb82cc8b34e5f13496a6aa0eccf6f1ef152f99595cde4250831a0f",
          "blockNumber": "0x37280fc",
          "transactionHash": "0xf1d974173dd6d19bf67a939693c8730a2582479ee52fe52bb819f08bbff8f9ec",
          "transactionIndex": "0x4e",
          "logIndex": "0x116",
          "removed": false
        }
      ],
      "logsBloom": "0x01000000100000000000000000000000000000000000000000000000000000000000000000000000000002080000000000208000000000000000000000000000000000000000000400000000000000800000010000000000000100000000000040000000020000000000000000000800000000000000000080000000000000000000000040000000000000000000000000000000000000000000000000200000200000000000000000000000000000000000000000000000000000000000004000000000000000000001100000000000000000000000000000100000000020000000000000000000000000000000000040000000000000000000000000100000",
      "type": "0x2",
      "transactionHash": "0xf1d974173dd6d19bf67a939693c8730a2582479ee52fe52bb819f08bbff8f9ec",
      "transactionIndex": "0x4e",
      "blockHash": "0x39e5ec16fcbb82cc8b34e5f13496a6aa0eccf6f1ef152f99595cde4250831a0f",
      "blockNumber": "0x37280fc",
      "gasUsed": "0x6051",
      "effectiveGasPrice": "0x6fc23ac36",
      "from": "0x5ea4e6fa3967aafbdeb209cf230abb65b570195a",
      "to": "0xe79922e8e606116ce3776e0b4ac7a124cc5b5fa2",
      "contractAddress": null
    }
  ],
  "libraries": [],
  "pending": [],
  "returns": {},
  "timestamp": 1717679468,
  "chain": 137,
  "commit": "5ccb80b"
}