{
  "transactions": [
    {
      "hash": "0x35f08d0a3cef4baa2e0638c8b06bca9a1067c0341768e383619f851eaae2f0f5",
      "transactionType": "CREATE",
      "contractName": "DistributionManager",
      "contractAddress": "0x8d61bb372f9f5f9ecd53952005aa3f54f0c3daaa",
      "function": null,
      "arguments": [
        "0x0B6f3eA2814F3FFf804bA5D5c237aebbc364fba9",
        "0xE79922E8e606116CE3776E0B4AC7A124Cc5b5FA2"
      ],
      "transaction": {
        "from": "0x5ea4e6fa3967aafbdeb209cf230abb65b570195a",
        "gas": "0xf0945",
        "value": "0x0",
        "input": "0x60c060405234801561001057600080fd5b50604051610db7380380610db783398101604081905261002f91610127565b6001805460ff191690556001600160a01b03828116608052811660a05261005760003361005f565b50505061015a565b6000828152602081815260408083206001600160a01b038516845290915281205460ff16610101576000838152602081815260408083206001600160a01b03861684529091529020805460ff191660011790556100b93390565b6001600160a01b0316826001600160a01b0316847f2f8788117e7eff1d82e926ec794901d17c78024a50270940304540a733656f0d60405160405180910390a4506001610105565b5060005b92915050565b80516001600160a01b038116811461012257600080fd5b919050565b6000806040838503121561013a57600080fd5b6101438361010b565b91506101516020840161010b565b90509250929050565b60805160a051610c2a61018d600039600081816101b10152610525015260008181610213015261046e0152610c2a6000f3fe608060405234801561001057600080fd5b50600436106101005760003560e01c80638456cb5911610097578063d547741f11610066578063d547741f14610235578063e63ab1e914610248578063ebc6577b1461026f578063f0bd87cc1461028257600080fd5b80638456cb59146101eb57806391d14854146101f3578063a217fddf14610206578063ba5a7be41461020e57600080fd5b806336568abe116100d357806336568abe146101865780633f4ba83a146101995780635c975abb146101a15780636e14f193146101ac57600080fd5b806301ffc9a71461010557806314a8ad541461012d578063248a9ca3146101405780632f2ff15d14610171575b600080fd5b6101186101133660046108d5565b6102a9565b60405190151581526020015b60405180910390f35b61011861013b3660046109bd565b6102e0565b61016361014e3660046109fa565b60009081526020819052604090206001015490565b604051908152602001610124565b61018461017f366004610a2f565b61030b565b005b610184610194366004610a2f565b610336565b61018461036e565b60015460ff16610118565b6101d37f000000000000000000000000000000000000000000000000000000000000000081565b6040516001600160a01b039091168152602001610124565b6101846103a3565b610118610201366004610a2f565b6103d5565b610163600081565b6101d37f000000000000000000000000000000000000000000000000000000000000000081565b610184610243366004610a2f565b6103fe565b6101637f65d7a28e3265b37a6474929f336521b332c1681b933f6cb9f3376673440d862a81565b61018461027d366004610a5b565b610423565b6101637ffbd454f36a7e1a388bd6fc3ab10d434aa4578f811acbbcf33afb1c697486313c81565b60006001600160e01b03198216637965db0b60e01b14806102da57506301ffc9a760e01b6001600160e01b03198316145b92915050565b60006002826040516102f29190610b6d565b9081526040519081900360200190205460ff1692915050565b6000828152602081905260409020600101546103268161061c565b6103308383610626565b50505050565b6001600160a01b038116331461035f5760405163334bd91960e11b815260040160405180910390fd5b61036982826106b8565b505050565b7f65d7a28e3265b37a6474929f336521b332c1681b933f6cb9f3376673440d862a6103988161061c565b6103a0610723565b50565b7f65d7a28e3265b37a6474929f336521b332c1681b933f6cb9f3376673440d862a6103cd8161061c565b6103a0610775565b6000918252602082815260408084206001600160a01b0393909316845291905290205460ff1690565b6000828152602081905260409020600101546104198161061c565b61033083836106b8565b7ffbd454f36a7e1a388bd6fc3ab10d434aa4578f811acbbcf33afb1c697486313c61044d8161061c565b6104556107b0565b61045e866107d6565b831561050f576001600160a01b037f0000000000000000000000000000000000000000000000000000000000000000166323b872dd336040516001600160e01b031960e084901b1681526001600160a01b0391821660048201529088166024820152604481018790526064016020604051808303816000875af11580156104e9573d6000803e3d6000fd5b505050506040513d601f19601f8201168201806040525081019061050d9190610b89565b505b60005b82518110156105dc576001600160a01b037f0000000000000000000000000000000000000000000000000000000000000000166342842e0e338886858151811061055e5761055e610bab565b60209081029190910101516040516001600160e01b031960e086901b1681526001600160a01b0393841660048201529290911660248301526044820152606401600060405180830381600087803b1580156105b857600080fd5b505af11580156105cc573d6000803e3d6000fd5b5050600190920191506105129050565b507f040e04ba083fcc5d428735784fbd0db4fd9a534eb5f80f6afd02a8090329de618660405161060c9190610bc1565b60405180910390a1505050505050565b6103a08133610875565b600061063283836103d5565b6106b0576000838152602081815260408083206001600160a01b03861684529091529020805460ff191660011790556106683390565b6001600160a01b0316826001600160a01b0316847f2f8788117e7eff1d82e926ec794901d17c78024a50270940304540a733656f0d60405160405180910390a45060016102da565b5060006102da565b60006106c483836103d5565b156106b0576000838152602081815260408083206001600160a01b0386168085529252808320805460ff1916905551339286917ff6391f5c32d9c69d2a47ea670b442974b53935d1edc7fd64eb21e047a839171b9190a45060016102da565b61072b6108b2565b6001805460ff191690557f5db9ee0a495bf2e6ff9c91a7834c1ba4fdd244a5e8aa4e537bd38aeae4b073aa335b6040516001600160a01b03909116815260200160405180910390a1565b61077d6107b0565b6001805460ff1916811790557f62e78cea01bee320cd4e420270b5ea74000d11b0c9f74754ebdbfc544b05a25833610758565b60015460ff16156107d45760405163d93c066560e01b815260040160405180910390fd5b565b6107df816102e0565b156108405760405162461bcd60e51b815260206004820152602660248201527f446973747269627574696f6e4d616e616765723a20554944206d75737420626560448201526510333932b29760d11b60648201526084015b60405180910390fd5b60016002826040516108529190610b6d565b908152604051908190036020019020805491151560ff1990921691909117905550565b61087f82826103d5565b6108ae5760405163e2517d3f60e01b81526001600160a01b038216600482015260248101839052604401610837565b5050565b60015460ff166107d457604051638dfc202b60e01b815260040160405180910390fd5b6000602082840312156108e757600080fd5b81356001600160e01b0319811681146108ff57600080fd5b9392505050565b634e487b7160e01b600052604160045260246000fd5b604051601f8201601f1916810167ffffffffffffffff8111828210171561094557610945610906565b604052919050565b600082601f83011261095e57600080fd5b813567ffffffffffffffff81111561097857610978610906565b61098b601f8201601f191660200161091c565b8181528460208386010111156109a057600080fd5b816020850160208301376000918101602001919091529392505050565b6000602082840312156109cf57600080fd5b813567ffffffffffffffff8111156109e657600080fd5b6109f28482850161094d565b949350505050565b600060208284031215610a0c57600080fd5b5035919050565b80356001600160a01b0381168114610a2a57600080fd5b919050565b60008060408385031215610a4257600080fd5b82359150610a5260208401610a13565b90509250929050565b600080600080600060a08688031215610a7357600080fd5b853567ffffffffffffffff80821115610a8b57600080fd5b610a9789838a0161094d565b965060209150610aa8828901610a13565b95506040880135945060608801359350608088013581811115610aca57600080fd5b8801601f81018a13610adb57600080fd5b803582811115610aed57610aed610906565b8060051b9250610afe84840161091c565b818152928201840192848101908c851115610b1857600080fd5b928501925b84841015610b3657833582529285019290850190610b1d565b8096505050505050509295509295909350565b60005b83811015610b64578181015183820152602001610b4c565b50506000910152565b60008251610b7f818460208701610b49565b9190910192915050565b600060208284031215610b9b57600080fd5b815180151581146108ff57600080fd5b634e487b7160e01b600052603260045260246000fd5b6020815260008251806020840152610be0816040850160208701610b49565b601f01601f1916919091016040019291505056fea2646970667358221220bece79c51b2622c444854b21b15c9fa3c7d989990d4ba014cf684b7cd2935eb064736f6c634300081900330000000000000000000000000b6f3ea2814f3fff804ba5d5c237aebbc364fba9000000000000000000000000e79922e8e606116ce3776e0b4ac7a124cc5b5fa2",
        "nonce": "0x30",
        "chainId": "0x38"
      },
      "additionalContracts": [],
      "isFixedGasLimit": false
    },
    {
      "hash": "0x75ec6bb46059533bc9cf131f613394ee039e5bad826d7e5689706ff4fb39c7d8",
      "transactionType": "CALL",
      "contractName": "DistributionManager",
      "contractAddress": "0x8d61bb372f9f5f9ecd53952005aa3f54f0c3daaa",
      "function": "grantRole(bytes32,address)",
      "arguments": [
        "0x0000000000000000000000000000000000000000000000000000000000000000",
        "0xe4b35B1e5da4896D9766FA710E9aA06EB97fF55F"
      ],
      "transaction": {
        "from": "0x5ea4e6fa3967aafbdeb209cf230abb65b570195a",
        "to": "0x8d61bb372f9f5f9ecd53952005aa3f54f0c3daaa",
        "gas": "0x1243b",
        "value": "0x0",
        "input": "0x2f2ff15d0000000000000000000000000000000000000000000000000000000000000000000000000000000000000000e4b35b1e5da4896d9766fa710e9aa06eb97ff55f",
        "nonce": "0x31",
        "chainId": "0x38"
      },
      "additionalContracts": [],
      "isFixedGasLimit": false
    },
    {
      "hash": "0x734e66e11b3e740fd40e3f161f9a9944ead24e7988aa0b1177161e33744baba0",
      "transactionType": "CALL",
      "contractName": "DistributionManager",
      "contractAddress": "0x8d61bb372f9f5f9ecd53952005aa3f54f0c3daaa",
      "function": "grantRole(bytes32,address)",
      "arguments": [
        "0x65d7a28e3265b37a6474929f336521b332c1681b933f6cb9f3376673440d862a",
        "0xB0c405AFA97B908F9B87925C639e008Ee26Cb2Ee"
      ],
      "transaction": {
        "from": "0x5ea4e6fa3967aafbdeb209cf230abb65b570195a",
        "to": "0x8d61bb372f9f5f9ecd53952005aa3f54f0c3daaa",
        "gas": "0x11600",
        "value": "0x0",
        "input": "0x2f2ff15d65d7a28e3265b37a6474929f336521b332c1681b933f6cb9f3376673440d862a000000000000000000000000b0c405afa97b908f9b87925c639e008ee26cb2ee",
        "nonce": "0x32",
        "chainId": "0x38"
      },
      "additionalContracts": [],
      "isFixedGasLimit": false
    },
    {
      "hash": "0x70e09f1ebfa55d81cacf6a14c8168a88b632e3d6931b95ff2dd58545dab3b177",
      "transactionType": "CALL",
      "contractName": "DistributionManager",
      "contractAddress": "0x8d61bb372f9f5f9ecd53952005aa3f54f0c3daaa",
      "function": "grantRole(bytes32,address)",
      "arguments": [
        "0xfbd454f36a7e1a388bd6fc3ab10d434aa4578f811acbbcf33afb1c697486313c",
        "0xF734263d5c6153fD6D0467f226a6e4D3AFFC9ac4"
      ],
      "transaction": {
        "from": "0x5ea4e6fa3967aafbdeb209cf230abb65b570195a",
        "to": "0x8d61bb372f9f5f9ecd53952005aa3f54f0c3daaa",
        "gas": "0x1266c",
        "value": "0x0",
        "input": "0x2f2ff15dfbd454f36a7e1a388bd6fc3ab10d434aa4578f811acbbcf33afb1c697486313c000000000000000000000000f734263d5c6153fd6d0467f226a6e4d3affc9ac4",
        "nonce": "0x33",
        "chainId": "0x38"
      },
      "additionalContracts": [],
      "isFixedGasLimit": false
    },
    {
      "hash": "0x73fedec2a1d9c036540b1cfffdc3ebceff67315045766110028e2e5968d6bb9a",
      "transactionType": "CALL",
      "contractName": "DistributionManager",
      "contractAddress": "0x8d61bb372f9f5f9ecd53952005aa3f54f0c3daaa",
      "function": "revokeRole(bytes32,address)",
      "arguments": [
        "0x0000000000000000000000000000000000000000000000000000000000000000",
        "0x5ea4e6fa3967AafBdEb209cf230abB65B570195A"
      ],
      "transaction": {
        "from": "0x5ea4e6fa3967aafbdeb209cf230abb65b570195a",
        "to": "0x8d61bb372f9f5f9ecd53952005aa3f54f0c3daaa",
        "gas": "0x9af1",
        "value": "0x0",
        "input": "0xd547741f00000000000000000000000000000000000000000000000000000000000000000000000000000000000000005ea4e6fa3967aafbdeb209cf230abb65b570195a",
        "nonce": "0x34",
        "chainId": "0x38"
      },
      "additionalContracts": [],
      "isFixedGasLimit": false
    },
    {
      "hash": "0x84c3e3202226ce33233604b69dca6f4b2ab687a7525e85122d7347c3aa7ac716",
      "transactionType": "CALL",
      "contractName": null,
      "contractAddress": "0x0b6f3ea2814f3fff804ba5d5c237aebbc364fba9",
      "function": "approve(address,uint256)",
      "arguments": [
        "0x8d61bb372f9f5f9ecd53952005aA3F54f0c3DaAa",
        "115792089237316195423570985008687907853269984665640564039457584007913129639935"
      ],
      "transaction": {
        "from": "0xf734263d5c6153fd6d0467f226a6e4d3affc9ac4",
        "to": "0x0b6f3ea2814f3fff804ba5d5c237aebbc364fba9",
        "gas": "0x10a74",
        "value": "0x0",
        "input": "0x095ea7b30000000000000000000000008d61bb372f9f5f9ecd53952005aa3f54f0c3daaaffffffffffffffffffffffffffffffffffffffffffffffffffffffffffffffff",
        "nonce": "0x0",
        "chainId": "0x38"
      },
      "additionalContracts": [],
      "isFixedGasLimit": false
    },
    {
      "hash": "0xbbbb8e6ffcfb49542dae7af145beb29a193cc063858ef32fce09c95dd0248330",
      "transactionType": "CALL",
      "contractName": null,
      "contractAddress": "0xe79922e8e606116ce3776e0b4ac7a124cc5b5fa2",
      "function": "setApprovalForAll(address,bool)",
      "arguments": [
        "0x8d61bb372f9f5f9ecd53952005aA3F54f0c3DaAa",
        "true"
      ],
      "transaction": {
        "from": "0xf734263d5c6153fd6d0467f226a6e4d3affc9ac4",
        "to": "0xe79922e8e606116ce3776e0b4ac7a124cc5b5fa2",
        "gas": "0xf960",
        "value": "0x0",
        "input": "0xa22cb4650000000000000000000000008d61bb372f9f5f9ecd53952005aa3f54f0c3daaa0000000000000000000000000000000000000000000000000000000000000001",
        "nonce": "0x1",
        "chainId": "0x38"
      },
      "additionalContracts": [],
      "isFixedGasLimit": false
    }
  ],
  "receipts": [
    {
      "status": "0x1",
      "cumulativeGasUsed": "0x1086696",
      "logs": [
        {
          "address": "0x8d61bb372f9f5f9ecd53952005aa3f54f0c3daaa",
          "topics": [
            "0x2f8788117e7eff1d82e926ec794901d17c78024a50270940304540a733656f0d",
            "0x0000000000000000000000000000000000000000000000000000000000000000",
            "0x0000000000000000000000005ea4e6fa3967aafbdeb209cf230abb65b570195a",
            "0x0000000000000000000000005ea4e6fa3967aafbdeb209cf230abb65b570195a"
          ],
          "data": "0x",
          "blockHash": "0x4feecc69cf55fa8ea1aa1600ee033e6cf80fe2f9fa46356f4de74f8d8bcfdcda",
          "blockNumber": "0x258cc26",
          "transactionHash": "0x35f08d0a3cef4baa2e0638c8b06bca9a1067c0341768e383619f851eaae2f0f5",
          "transactionIndex": "0xae",
          "logIndex": "0x14e",
          "removed": false
        }
      ],
      "logsBloom": "0x00000004000000000000000000000000000000000000000000000000000000000000000000000000000040080000000000000000000000000000000000000000400000000000000000000000000000000000000000000000000000000100000000000000020000000000000000000800000000000000000000000000000000000000000000000000000000000000000000000000000000000000000000000000000000000000000000000000000000000000000000000000001000000000000000000000000000000000100000000000000000000000000100000000000020000000000000000000000000000000000040000000000000000000000000000000",
      "type": "0x0",
      "transactionHash": "0x35f08d0a3cef4baa2e0638c8b06bca9a1067c0341768e383619f851eaae2f0f5",
      "transactionIndex": "0xae",
      "blockHash": "0x4feecc69cf55fa8ea1aa1600ee033e6cf80fe2f9fa46356f4de74f8d8bcfdcda",
      "blockNumber": "0x258cc26",
      "gasUsed": "0xb91da",
      "effectiveGasPrice": "0x3b9aca00",
      "from": "0x5ea4e6fa3967aafbdeb209cf230abb65b570195a",
      "to": null,
      "contractAddress": "0x8d61bb372f9f5f9ecd53952005aa3f54f0c3daaa"
    },
    {
      "status": "0x1",
      "cumulativeGasUsed": "0x75b2df",
      "logs": [
        {
          "address": "0x8d61bb372f9f5f9ecd53952005aa3f54f0c3daaa",
          "topics": [
            "0x2f8788117e7eff1d82e926ec794901d17c78024a50270940304540a733656f0d",
            "0x0000000000000000000000000000000000000000000000000000000000000000",
            "0x000000000000000000000000e4b35b1e5da4896d9766fa710e9aa06eb97ff55f",
            "0x0000000000000000000000005ea4e6fa3967aafbdeb209cf230abb65b570195a"
          ],
          "data": "0x",
          "blockHash": "0xc0f4b72c805af32dd2cd43ce3947bbbbdf0014c376533a0e75ff49e3dec4a52c",
          "blockNumber": "0x258cc29",
          "transactionHash": "0x75ec6bb46059533bc9cf131f613394ee039e5bad826d7e5689706ff4fb39c7d8",
          "transactionIndex": "0x5e",
          "logIndex": "0xb4",
          "removed": false
        }
      ],
      "logsBloom": "0x00000004000000000000000000000004000000000000000000000000000000000000000000000000000040080000000000000000000000000000000000000000400000000000000000000000000000000000000000000000000000000100000000000000020000000000000000000800000000000000000000000000000000000000000000000000000000000000000000000000000000000000000000000000000000000000000000000000020000000000000000000000001000000000000000000000000000000000100000000000000000000000000100000000000020000000000000000000000000000000000040000000000000000000100000000000",
      "type": "0x0",
      "transactionHash": "0x75ec6bb46059533bc9cf131f613394ee039e5bad826d7e5689706ff4fb39c7d8",
      "transactionIndex": "0x5e",
      "blockHash": "0xc0f4b72c805af32dd2cd43ce3947bbbbdf0014c376533a0e75ff49e3dec4a52c",
      "blockNumber": "0x258cc29",
      "gasUsed": "0xc7d1",
      "effectiveGasPrice": "0x3b9aca00",
      "from": "0x5ea4e6fa3967aafbdeb209cf230abb65b570195a",
      "to": "0x8d61bb372f9f5f9ecd53952005aa3f54f0c3daaa",
      "contractAddress": null
    },
    {
      "status": "0x1",
      "cumulativeGasUsed": "0xef0762",
      "logs": [
        {
          "address": "0x8d61bb372f9f5f9ecd53952005aa3f54f0c3daaa",
          "topics": [
            "0x2f8788117e7eff1d82e926ec794901d17c78024a50270940304540a733656f0d",
            "0x65d7a28e3265b37a6474929f336521b332c1681b933f6cb9f3376673440d862a",
            "0x000000000000000000000000b0c405afa97b908f9b87925c639e008ee26cb2ee",
            "0x0000000000000000000000005ea4e6fa3967aafbdeb209cf230abb65b570195a"
          ],
          "data": "0x",
          "blockHash": "0x81cb358c8f800057e819003815fb1420a51e0a55ef240856ee1b3003fd8be96b",
          "blockNumber": "0x258cc2b",
          "transactionHash": "0x734e66e11b3e740fd40e3f161f9a9944ead24e7988aa0b1177161e33744baba0",
          "transactionIndex": "0x83",
          "logIndex": "0x13e",
          "removed": false
        }
      ],
      "logsBloom": "0x00000004000000000000000000000000000000000000000000000000000000000000000000000000000040080000000100000000000000000000000000000000400000000000000000000000000000000000000000000000000000000100000000000000000000000000000000000000000000000000000000000000000000000000000000000000000000000000008000000000000000000000000000000000000000000000000000000000000000000000000000000000201000000000000000000000000000000000100000000000000000000000000100002000000000000000000000000000000000000000000040000402000000000000000000000000",
      "type": "0x0",
      "transactionHash": "0x734e66e11b3e740fd40e3f161f9a9944ead24e7988aa0b1177161e33744baba0",
      "transactionIndex": "0x83",
      "blockHash": "0x81cb358c8f800057e819003815fb1420a51e0a55ef240856ee1b3003fd8be96b",
      "blockNumber": "0x258cc2b",
      "gasUsed": "0xc945",
      "effectiveGasPrice": "0x3b9aca00",
      "from": "0x5ea4e6fa3967aafbdeb209cf230abb65b570195a",
      "to": "0x8d61bb372f9f5f9ecd53952005aa3f54f0c3daaa",
      "contractAddress": null
    },
    {
      "status": "0x1",
      "cumulativeGasUsed": "0x108e58f",
      "logs": [
        {
          "address": "0x8d61bb372f9f5f9ecd53952005aa3f54f0c3daaa",
          "topics": [
            "0x2f8788117e7eff1d82e926ec794901d17c78024a50270940304540a733656f0d",
            "0xfbd454f36a7e1a388bd6fc3ab10d434aa4578f811acbbcf33afb1c697486313c",
            "0x000000000000000000000000f734263d5c6153fd6d0467f226a6e4d3affc9ac4",
            "0x0000000000000000000000005ea4e6fa3967aafbdeb209cf230abb65b570195a"
          ],
          "data": "0x",
          "blockHash": "0xd3cd378d7018f94a1d37fcd8c510ce60a455cb7f8af4b376411b355681ec14aa",
          "blockNumber": "0x258cc2d",
          "transactionHash": "0x70e09f1ebfa55d81cacf6a14c8168a88b632e3d6931b95ff2dd58545dab3b177",
          "transactionIndex": "0x99",
          "logIndex": "0x190",
          "removed": false
        }
      ],
      "logsBloom": "0x00000004000000000000000000000000000000000000000000000000000000000000000000000000000040080000000001000000000000000000000000000000400000000000000000008000000000000000000000000000000000000100000000000000000000000000000000000000000080000000000000000000000000000000000000000000000000000000000080000000000000000000000000000000000000000000000000000000000000000000000000000000001000000000000000000000000000000000100000000004000000000000000100000000000000000000000000000000000000000000000040002000000000000000000000000000",
      "type": "0x0",
      "transactionHash": "0x70e09f1ebfa55d81cacf6a14c8168a88b632e3d6931b95ff2dd58545dab3b177",
      "transactionIndex": "0x99",
      "blockHash": "0xd3cd378d7018f94a1d37fcd8c510ce60a455cb7f8af4b376411b355681ec14aa",
      "blockNumber": "0x258cc2d",
      "gasUsed": "0xc951",
      "effectiveGasPrice": "0x3b9aca00",
      "from": "0x5ea4e6fa3967aafbdeb209cf230abb65b570195a",
      "to": "0x8d61bb372f9f5f9ecd53952005aa3f54f0c3daaa",
      "contractAddress": null
    },
    {
      "status": "0x1",
      "cumulativeGasUsed": "0xbefbeb",
      "logs": [
        {
          "address": "0x8d61bb372f9f5f9ecd53952005aa3f54f0c3daaa",
          "topics": [
            "0xf6391f5c32d9c69d2a47ea670b442974b53935d1edc7fd64eb21e047a839171b",
            "0x0000000000000000000000000000000000000000000000000000000000000000",
            "0x0000000000000000000000005ea4e6fa3967aafbdeb209cf230abb65b570195a",
            "0x0000000000000000000000005ea4e6fa3967aafbdeb209cf230abb65b570195a"
          ],
          "data": "0x",
          "blockHash": "0x74864e399e7d2239d70d9f4cc1f4ccca1d8d1fb0c175d1df67a9e584f576e136",
          "blockNumber": "0x258cc30",
          "transactionHash": "0x73fedec2a1d9c036540b1cfffdc3ebceff67315045766110028e2e5968d6bb9a",
          "transactionIndex": "0x73",
          "logIndex": "0x128",
          "removed": false
        }
      ],
      "logsBloom": "0x00000000000000000000000000000000000000000000000000000000000000000000000000000000000040080000000000200000000000000000000000000000400000000000000000000000000000000000000000000000000000000100000040000000020000000000000000000800000000000000000000000000000000000000000040000000000000000000000000000000000000000000000000000000000000000000000000000000000000000000000000000000000000000000000000000000000000000000100000000000000000000000000000000000000020000000000000000000000000000000000040000000000000000000000000000000",
      "type": "0x0",
      "transactionHash": "0x73fedec2a1d9c036540b1cfffdc3ebceff67315045766110028e2e5968d6bb9a",
      "transactionIndex": "0x73",
      "blockHash": "0x74864e399e7d2239d70d9f4cc1f4ccca1d8d1fb0c175d1df67a9e584f576e136",
      "blockNumber": "0x258cc30",
      "gasUsed": "0x69f2",
      "effectiveGasPrice": "0x3b9aca00",
      "from": "0x5ea4e6fa3967aafbdeb209cf230abb65b570195a",
      "to": "0x8d61bb372f9f5f9ecd53952005aa3f54f0c3daaa",
      "contractAddress": null
    },
    {
      "status": "0x1",
      "cumulativeGasUsed": "0x7ac1f3",
      "logs": [
        {
          "address": "0x0b6f3ea2814f3fff804ba5d5c237aebbc364fba9",
          "topics": [
            "0x8c5be1e5ebec7d5bd14f71427d1e84f3dd0314c0f7b2291e5b200ac8c7c3b925",
            "0x000000000000000000000000f734263d5c6153fd6d0467f226a6e4d3affc9ac4",
            "0x0000000000000000000000008d61bb372f9f5f9ecd53952005aa3f54f0c3daaa"
          ],
          "data": "0xffffffffffffffffffffffffffffffffffffffffffffffffffffffffffffffff",
          "blockHash": "0x6fc6256b702d7e9d637863873b5740eae198c20fd95c716b49dc7f5ca3ae0134",
          "blockNumber": "0x258cc32",
          "transactionHash": "0x84c3e3202226ce33233604b69dca6f4b2ab687a7525e85122d7347c3aa7ac716",
          "transactionIndex": "0x59",
          "logIndex": "0xc9",
          "removed": false
        }
      ],
      "logsBloom": "0x00000000000000000000000000000000000004000000000000000010000000000000000000000000000000000000000001000000000000000000000000200000000000000010000000008000000000000000000000000000000000000000000000000000000000000000000000000000000080000000000000000000000000000000000000000000000000100800000000000000000000000000000000000000020000000000000000000000000000000000000000000000000000000000000000000000000000000000000000000000000000000000000000000000000000000010000000000000000000000000000000002000000000000000000000000000",
      "type": "0x0",
      "transactionHash": "0x84c3e3202226ce33233604b69dca6f4b2ab687a7525e85122d7347c3aa7ac716",
      "transactionIndex": "0x59",
      "blockHash": "0x6fc6256b702d7e9d637863873b5740eae198c20fd95c716b49dc7f5ca3ae0134",
      "blockNumber": "0x258cc32",
      "gasUsed": "0xb631",
      "effectiveGasPrice": "0x3b9aca00",
      "from": "0xf734263d5c6153fd6d0467f226a6e4d3affc9ac4",
      "to": "0x0b6f3ea2814f3fff804ba5d5c237aebbc364fba9",
      "contractAddress": null
    },
    {
      "status": "0x1",
      "cumulativeGasUsed": "0x7ac1f3",
      "logs": [
        {
          "address": "0x0b6f3ea2814f3fff804ba5d5c237aebbc364fba9",
          "topics": [
            "0x8c5be1e5ebec7d5bd14f71427d1e84f3dd0314c0f7b2291e5b200ac8c7c3b925",
            "0x000000000000000000000000f734263d5c6153fd6d0467f226a6e4d3affc9ac4",
            "0x0000000000000000000000008d61bb372f9f5f9ecd53952005aa3f54f0c3daaa"
          ],
          "data": "0xffffffffffffffffffffffffffffffffffffffffffffffffffffffffffffffff",
          "blockHash": "0x6fc6256b702d7e9d637863873b5740eae198c20fd95c716b49dc7f5ca3ae0134",
          "blockNumber": "0x258cc32",
          "transactionHash": "0x84c3e3202226ce33233604b69dca6f4b2ab687a7525e85122d7347c3aa7ac716",
          "transactionIndex": "0x59",
          "logIndex": "0xc9",
          "removed": false
        }
      ],
      "logsBloom": "0x00000000000000000000000000000000000004000000000000000010000000000000000000000000000000000000000001000000000000000000000000200000000000000010000000008000000000000000000000000000000000000000000000000000000000000000000000000000000080000000000000000000000000000000000000000000000000100800000000000000000000000000000000000000020000000000000000000000000000000000000000000000000000000000000000000000000000000000000000000000000000000000000000000000000000000010000000000000000000000000000000002000000000000000000000000000",
      "type": "0x0",
      "transactionHash": "0x84c3e3202226ce33233604b69dca6f4b2ab687a7525e85122d7347c3aa7ac716",
      "transactionIndex": "0x59",
      "blockHash": "0x6fc6256b702d7e9d637863873b5740eae198c20fd95c716b49dc7f5ca3ae0134",
      "blockNumber": "0x258cc32",
      "gasUsed": "0xb631",
      "effectiveGasPrice": "0x3b9aca00",
      "from": "0xf734263d5c6153fd6d0467f226a6e4d3affc9ac4",
      "to": "0x0b6f3ea2814f3fff804ba5d5c237aebbc364fba9",
      "contractAddress": null
    },
    {
      "status": "0x1",
      "cumulativeGasUsed": "0x813c32",
      "logs": [
        {
          "address": "0xe79922e8e606116ce3776e0b4ac7a124cc5b5fa2",
          "topics": [
            "0x17307eab39ab6107e8899845ad3d59bd9653f200f220920489ca2b5937696c31",
            "0x000000000000000000000000f734263d5c6153fd6d0467f226a6e4d3affc9ac4",
            "0x0000000000000000000000008d61bb372f9f5f9ecd53952005aa3f54f0c3daaa"
          ],
          "data": "0x0000000000000000000000000000000000000000000000000000000000000001",
          "blockHash": "0xc61ef6d4f9c1686f9dc2cfa19296c45a6c4133bd186fb7f33d3ec2a8cc598870",
          "blockNumber": "0x258cc35",
          "transactionHash": "0xbbbb8e6ffcfb49542dae7af145beb29a193cc063858ef32fce09c95dd0248330",
          "transactionIndex": "0x68",
          "logIndex": "0xca",
          "removed": false
        }
      ],
      "logsBloom": "0x00000000100000000000000000000000000000000000000000000010000000000000000000000000000000000000000001000000000000000000000000000000000000000000000400000000000000000000010000000000000000000000000002000000000000000000000000000000000080000000000000000000000000000000000000000000000000100800000000000000000000000000000000000000000000000000000000000000000000000000000000000000000000000000000000000000000000000000000000000000000000000000000000000000000000000000200800000000000000000000000000002000000000000000000000000000",
      "type": "0x0",
      "transactionHash": "0xbbbb8e6ffcfb49542dae7af145beb29a193cc063858ef32fce09c95dd0248330",
      "transactionIndex": "0x68",
      "blockHash": "0xc61ef6d4f9c1686f9dc2cfa19296c45a6c4133bd186fb7f33d3ec2a8cc598870",
      "blockNumber": "0x258cc35",
      "gasUsed": "0xb48c",
      "effectiveGasPrice": "0x3b9aca00",
      "from": "0xf734263d5c6153fd6d0467f226a6e4d3affc9ac4",
      "to": "0xe79922e8e606116ce3776e0b4ac7a124cc5b5fa2",
      "contractAddress": null
    }
  ],
  "libraries": [],
  "pending": [],
  "returns": {},
  "timestamp": 1717672676,
  "chain": 56,
  "commit": "5ccb80b"
}