{
  "transactions": [
    {
      "hash": "0xcb502662a1c1ca7785c3c5c9a5fe0a422b136e2e94b0893d730ab77c2f46d718",
      "transactionType": "CREATE",
      "contractName": "DistributionManager",
      "contractAddress": "0xd66599e1f4f91e11eb239f3c23eb6232b8699690",
      "function": null,
      "arguments": [
        "0x9E3CA1EdB50439a1d3fD4Bce071fA50cB48C7A1b",
        "0xDE0d2a9DB9e861d4CfA482823beF147762bD57e8"
      ],
      "transaction": {
        "from": "0x6914549f76c1b669e6b5ea070e10954b0a7ba235",
        "gas": "0xf0945",
        "value": "0x0",
        "input": "0x60c060405234801561001057600080fd5b50604051610db7380380610db783398101604081905261002f91610127565b6001805460ff191690556001600160a01b03828116608052811660a05261005760003361005f565b50505061015a565b6000828152602081815260408083206001600160a01b038516845290915281205460ff16610101576000838152602081815260408083206001600160a01b03861684529091529020805460ff191660011790556100b93390565b6001600160a01b0316826001600160a01b0316847f2f8788117e7eff1d82e926ec794901d17c78024a50270940304540a733656f0d60405160405180910390a4506001610105565b5060005b92915050565b80516001600160a01b038116811461012257600080fd5b919050565b6000806040838503121561013a57600080fd5b6101438361010b565b91506101516020840161010b565b90509250929050565b60805160a051610c2a61018d600039600081816101b10152610525015260008181610213015261046e0152610c2a6000f3fe608060405234801561001057600080fd5b50600436106101005760003560e01c80638456cb5911610097578063d547741f11610066578063d547741f14610235578063e63ab1e914610248578063ebc6577b1461026f578063f0bd87cc1461028257600080fd5b80638456cb59146101eb57806391d14854146101f3578063a217fddf14610206578063ba5a7be41461020e57600080fd5b806336568abe116100d357806336568abe146101865780633f4ba83a146101995780635c975abb146101a15780636e14f193146101ac57600080fd5b806301ffc9a71461010557806314a8ad541461012d578063248a9ca3146101405780632f2ff15d14610171575b600080fd5b6101186101133660046108d5565b6102a9565b60405190151581526020015b60405180910390f35b61011861013b3660046109bd565b6102e0565b61016361014e3660046109fa565b60009081526020819052604090206001015490565b604051908152602001610124565b61018461017f366004610a2f565b61030b565b005b610184610194366004610a2f565b610336565b61018461036e565b60015460ff16610118565b6101d37f000000000000000000000000000000000000000000000000000000000000000081565b6040516001600160a01b039091168152602001610124565b6101846103a3565b610118610201366004610a2f565b6103d5565b610163600081565b6101d37f000000000000000000000000000000000000000000000000000000000000000081565b610184610243366004610a2f565b6103fe565b6101637f65d7a28e3265b37a6474929f336521b332c1681b933f6cb9f3376673440d862a81565b61018461027d366004610a5b565b610423565b6101637ffbd454f36a7e1a388bd6fc3ab10d434aa4578f811acbbcf33afb1c697486313c81565b60006001600160e01b03198216637965db0b60e01b14806102da57506301ffc9a760e01b6001600160e01b03198316145b92915050565b60006002826040516102f29190610b6d565b9081526040519081900360200190205460ff1692915050565b6000828152602081905260409020600101546103268161061c565b6103308383610626565b50505050565b6001600160a01b038116331461035f5760405163334bd91960e11b815260040160405180910390fd5b61036982826106b8565b505050565b7f65d7a28e3265b37a6474929f336521b332c1681b933f6cb9f3376673440d862a6103988161061c565b6103a0610723565b50565b7f65d7a28e3265b37a6474929f336521b332c1681b933f6cb9f3376673440d862a6103cd8161061c565b6103a0610775565b6000918252602082815260408084206001600160a01b0393909316845291905290205460ff1690565b6000828152602081905260409020600101546104198161061c565b61033083836106b8565b7ffbd454f36a7e1a388bd6fc3ab10d434aa4578f811acbbcf33afb1c697486313c61044d8161061c565b6104556107b0565b61045e866107d6565b831561050f576001600160a01b037f0000000000000000000000000000000000000000000000000000000000000000166323b872dd336040516001600160e01b031960e084901b1681526001600160a01b0391821660048201529088166024820152604481018790526064016020604051808303816000875af11580156104e9573d6000803e3d6000fd5b505050506040513d601f19601f8201168201806040525081019061050d9190610b89565b505b60005b82518110156105dc576001600160a01b037f0000000000000000000000000000000000000000000000000000000000000000166342842e0e338886858151811061055e5761055e610bab565b60209081029190910101516040516001600160e01b031960e086901b1681526001600160a01b0393841660048201529290911660248301526044820152606401600060405180830381600087803b1580156105b857600080fd5b505af11580156105cc573d6000803e3d6000fd5b5050600190920191506105129050565b507f040e04ba083fcc5d428735784fbd0db4fd9a534eb5f80f6afd02a8090329de618660405161060c9190610bc1565b60405180910390a1505050505050565b6103a08133610875565b600061063283836103d5565b6106b0576000838152602081815260408083206001600160a01b03861684529091529020805460ff191660011790556106683390565b6001600160a01b0316826001600160a01b0316847f2f8788117e7eff1d82e926ec794901d17c78024a50270940304540a733656f0d60405160405180910390a45060016102da565b5060006102da565b60006106c483836103d5565b156106b0576000838152602081815260408083206001600160a01b0386168085529252808320805460ff1916905551339286917ff6391f5c32d9c69d2a47ea670b442974b53935d1edc7fd64eb21e047a839171b9190a45060016102da565b61072b6108b2565b6001805460ff191690557f5db9ee0a495bf2e6ff9c91a7834c1ba4fdd244a5e8aa4e537bd38aeae4b073aa335b6040516001600160a01b03909116815260200160405180910390a1565b61077d6107b0565b6001805460ff1916811790557f62e78cea01bee320cd4e420270b5ea74000d11b0c9f74754ebdbfc544b05a25833610758565b60015460ff16156107d45760405163d93c066560e01b815260040160405180910390fd5b565b6107df816102e0565b156108405760405162461bcd60e51b815260206004820152602660248201527f446973747269627574696f6e4d616e616765723a20554944206d75737420626560448201526510333932b29760d11b60648201526084015b60405180910390fd5b60016002826040516108529190610b6d565b908152604051908190036020019020805491151560ff1990921691909117905550565b61087f82826103d5565b6108ae5760405163e2517d3f60e01b81526001600160a01b038216600482015260248101839052604401610837565b5050565b60015460ff166107d457604051638dfc202b60e01b815260040160405180910390fd5b6000602082840312156108e757600080fd5b81356001600160e01b0319811681146108ff57600080fd5b9392505050565b634e487b7160e01b600052604160045260246000fd5b604051601f8201601f1916810167ffffffffffffffff8111828210171561094557610945610906565b604052919050565b600082601f83011261095e57600080fd5b813567ffffffffffffffff81111561097857610978610906565b61098b601f8201601f191660200161091c565b8181528460208386010111156109a057600080fd5b816020850160208301376000918101602001919091529392505050565b6000602082840312156109cf57600080fd5b813567ffffffffffffffff8111156109e657600080fd5b6109f28482850161094d565b949350505050565b600060208284031215610a0c57600080fd5b5035919050565b80356001600160a01b0381168114610a2a57600080fd5b919050565b60008060408385031215610a4257600080fd5b82359150610a5260208401610a13565b90509250929050565b600080600080600060a08688031215610a7357600080fd5b853567ffffffffffffffff80821115610a8b57600080fd5b610a9789838a0161094d565b965060209150610aa8828901610a13565b95506040880135945060608801359350608088013581811115610aca57600080fd5b8801601f81018a13610adb57600080fd5b803582811115610aed57610aed610906565b8060051b9250610afe84840161091c565b818152928201840192848101908c851115610b1857600080fd5b928501925b84841015610b3657833582529285019290850190610b1d565b8096505050505050509295509295909350565b60005b83811015610b64578181015183820152602001610b4c565b50506000910152565b60008251610b7f818460208701610b49565b9190910192915050565b600060208284031215610b9b57600080fd5b815180151581146108ff57600080fd5b634e487b7160e01b600052603260045260246000fd5b6020815260008251806020840152610be0816040850160208701610b49565b601f01601f1916919091016040019291505056fea2646970667358221220bece79c51b2622c444854b21b15c9fa3c7d989990d4ba014cf684b7cd2935eb064736f6c634300081900330000000000000000000000009e3ca1edb50439a1d3fd4bce071fa50cb48c7a1b000000000000000000000000de0d2a9db9e861d4cfa482823bef147762bd57e8",
        "nonce": "0x10",
        "chainId": "0x14a34"
      },
      "additionalContracts": [],
      "isFixedGasLimit": false
    },
    {
      "hash": "0x175e7ca98bea762d3e89f76f26d41cf0741b17f77929578452d96e2ef274e982",
      "transactionType": "CALL",
      "contractName": "DistributionManager",
      "contractAddress": "0xd66599e1f4f91e11eb239f3c23eb6232b8699690",
      "function": "grantRole(bytes32,address)",
      "arguments": [
        "0x0000000000000000000000000000000000000000000000000000000000000000",
        "0xC988583e215703F84519E6D3e724b9D66d0C5B3a"
      ],
      "transaction": {
        "from": "0x6914549f76c1b669e6b5ea070e10954b0a7ba235",
        "to": "0xd66599e1f4f91e11eb239f3c23eb6232b8699690",
        "gas": "0x1243b",
        "value": "0x0",
        "input": "0x2f2ff15d0000000000000000000000000000000000000000000000000000000000000000000000000000000000000000c988583e215703f84519e6d3e724b9d66d0c5b3a",
        "nonce": "0x11",
        "chainId": "0x14a34"
      },
      "additionalContracts": [],
      "isFixedGasLimit": false
    },
    {
      "hash": "0x36c2ddae5f7fb2c3cb8b9e1d7223345981e8e8f92040117801c1b01e42bb7d07",
      "transactionType": "CALL",
      "contractName": "DistributionManager",
      "contractAddress": "0xd66599e1f4f91e11eb239f3c23eb6232b8699690",
      "function": "grantRole(bytes32,address)",
      "arguments": [
        "0x65d7a28e3265b37a6474929f336521b332c1681b933f6cb9f3376673440d862a",
        "0xC988583e215703F84519E6D3e724b9D66d0C5B3a"
      ],
      "transaction": {
        "from": "0x6914549f76c1b669e6b5ea070e10954b0a7ba235",
        "to": "0xd66599e1f4f91e11eb239f3c23eb6232b8699690",
        "gas": "0x1266c",
        "value": "0x0",
        "input": "0x2f2ff15d65d7a28e3265b37a6474929f336521b332c1681b933f6cb9f3376673440d862a000000000000000000000000c988583e215703f84519e6d3e724b9d66d0c5b3a",
        "nonce": "0x12",
        "chainId": "0x14a34"
      },
      "additionalContracts": [],
      "isFixedGasLimit": false
    },
    {
      "hash": "0x555caf83027820a32b846134be566081928f11e39d81bc7d9ea58f54580efba1",
      "transactionType": "CALL",
      "contractName": "DistributionManager",
      "contractAddress": "0xd66599e1f4f91e11eb239f3c23eb6232b8699690",
      "function": "grantRole(bytes32,address)",
      "arguments": [
        "0xfbd454f36a7e1a388bd6fc3ab10d434aa4578f811acbbcf33afb1c697486313c",
        "0x636BfB437750D4C8C3EE6965D45F4491A1273a74"
      ],
      "transaction": {
        "from": "0x6914549f76c1b669e6b5ea070e10954b0a7ba235",
        "to": "0xd66599e1f4f91e11eb239f3c23eb6232b8699690",
        "gas": "0x1266c",
        "value": "0x0",
        "input": "0x2f2ff15dfbd454f36a7e1a388bd6fc3ab10d434aa4578f811acbbcf33afb1c697486313c000000000000000000000000636bfb437750d4c8c3ee6965d45f4491a1273a74",
        "nonce": "0x13",
        "chainId": "0x14a34"
      },
      "additionalContracts": [],
      "isFixedGasLimit": false
    },
    {
      "hash": "0x077890a0903ed0c16303e6c7414db6a8f592a73a9173c77256415b3eb00ab284",
      "transactionType": "CALL",
      "contractName": "DistributionManager",
      "contractAddress": "0xd66599e1f4f91e11eb239f3c23eb6232b8699690",
      "function": "revokeRole(bytes32,address)",
      "arguments": [
        "0x0000000000000000000000000000000000000000000000000000000000000000",
        "0x6914549F76c1B669E6b5ea070E10954B0A7bA235"
      ],
      "transaction": {
        "from": "0x6914549f76c1b669e6b5ea070e10954b0a7ba235",
        "to": "0xd66599e1f4f91e11eb239f3c23eb6232b8699690",
        "gas": "0x9af1",
        "value": "0x0",
        "input": "0xd547741f00000000000000000000000000000000000000000000000000000000000000000000000000000000000000006914549f76c1b669e6b5ea070e10954b0a7ba235",
        "nonce": "0x14",
        "chainId": "0x14a34"
      },
      "additionalContracts": [],
      "isFixedGasLimit": false
    },
    {
      "hash": "0xa6cb2f23e84e78c49840e7983f58d5ceef099a358531f3ba91efd77043790b73",
      "transactionType": "CALL",
      "contractName": null,
      "contractAddress": "0x9e3ca1edb50439a1d3fd4bce071fa50cb48c7a1b",
      "function": "approve(address,uint256)",
      "arguments": [
        "0xD66599E1f4f91e11Eb239F3c23eB6232b8699690",
        "115792089237316195423570985008687907853269984665640564039457584007913129639935"
      ],
      "transaction": {
        "from": "0x636bfb437750d4c8c3ee6965d45f4491a1273a74",
        "to": "0x9e3ca1edb50439a1d3fd4bce071fa50cb48c7a1b",
        "gas": "0x10a74",
        "value": "0x0",
        "input": "0x095ea7b3000000000000000000000000d66599e1f4f91e11eb239f3c23eb6232b8699690ffffffffffffffffffffffffffffffffffffffffffffffffffffffffffffffff",
        "nonce": "0x0",
        "chainId": "0x14a34"
      },
      "additionalContracts": [],
      "isFixedGasLimit": false
    },
    {
      "hash": "0x7e4d1a0c59ef45740eceb5de17ce7fce7342ad635289d0b3dccf2a5bbc74d34e",
      "transactionType": "CALL",
      "contractName": null,
      "contractAddress": "0xde0d2a9db9e861d4cfa482823bef147762bd57e8",
      "function": "setApprovalForAll(address,bool)",
      "arguments": [
        "0xD66599E1f4f91e11Eb239F3c23eB6232b8699690",
        "true"
      ],
      "transaction": {
        "from": "0x636bfb437750d4c8c3ee6965d45f4491a1273a74",
        "to": "0xde0d2a9db9e861d4cfa482823bef147762bd57e8",
        "gas": "0xf960",
        "value": "0x0",
        "input": "0xa22cb465000000000000000000000000d66599e1f4f91e11eb239f3c23eb6232b86996900000000000000000000000000000000000000000000000000000000000000001",
        "nonce": "0x1",
        "chainId": "0x14a34"
      },
      "additionalContracts": [],
      "isFixedGasLimit": false
    }
  ],
  "receipts": [
    {
      "status": "0x1",
      "cumulativeGasUsed": "0x149b7e",
      "logs": [
        {
          "address": "0xd66599e1f4f91e11eb239f3c23eb6232b8699690",
          "topics": [
            "0x2f8788117e7eff1d82e926ec794901d17c78024a50270940304540a733656f0d",
            "0x0000000000000000000000000000000000000000000000000000000000000000",
            "0x0000000000000000000000006914549f76c1b669e6b5ea070e10954b0a7ba235",
            "0x0000000000000000000000006914549f76c1b669e6b5ea070e10954b0a7ba235"
          ],
          "data": "0x",
          "blockHash": "0x212f8da5b0f7ba5150cf0063aa527258ef4f3fb947096472145b9fae8e4955f6",
          "blockNumber": "0xa3eaf4",
          "transactionHash": "0xcb502662a1c1ca7785c3c5c9a5fe0a422b136e2e94b0893d730ab77c2f46d718",
          "transactionIndex": "0x8",
          "logIndex": "0x9",
          "removed": false
        }
      ],
      "logsBloom": "0x00000804000000000000000000000000000000000000000000000000000000000000000000000000000000000000000000000000000000000000000008000000000000000000000000000000000000000000000000000000001000000000000000000000020000000000000000000800000000000000000000000000000000000000000000000000000000000000000000000020000000000000000000000000000000000000000000000000000000000000000000000000001000000000000000000000000000000000000000000000000000000000004100000000000020000000000000000000000000000000000000000000008000000000000000000000",
      "type": "0x2",
      "transactionHash": "0xcb502662a1c1ca7785c3c5c9a5fe0a422b136e2e94b0893d730ab77c2f46d718",
      "transactionIndex": "0x8",
      "blockHash": "0x212f8da5b0f7ba5150cf0063aa527258ef4f3fb947096472145b9fae8e4955f6",
      "blockNumber": "0xa3eaf4",
      "gasUsed": "0xb91da",
      "effectiveGasPrice": "0x4f7",
      "from": "0x6914549f76c1b669e6b5ea070e10954b0a7ba235",
      "to": null,
      "contractAddress": "0xd66599e1f4f91e11eb239f3c23eb6232b8699690",
      "l1BaseFeeScalar": "0x44d",
      "l1BlobBaseFee": "0x5ceb2ef6f73",
      "l1BlobBaseFeeScalar": "0xa118b",
      "l1Fee": "0x2014cdf942551b",
      "l1GasPrice": "0x446f5cd4",
      "l1GasUsed": "0x85f3"
    },
    {
      "status": "0x1",
      "cumulativeGasUsed": "0x24f177",
      "logs": [
        {
          "address": "0xd66599e1f4f91e11eb239f3c23eb6232b8699690",
          "topics": [
            "0x2f8788117e7eff1d82e926ec794901d17c78024a50270940304540a733656f0d",
            "0x0000000000000000000000000000000000000000000000000000000000000000",
            "0x000000000000000000000000c988583e215703f84519e6d3e724b9d66d0c5b3a",
            "0x0000000000000000000000006914549f76c1b669e6b5ea070e10954b0a7ba235"
          ],
          "data": "0x",
          "blockHash": "0x1b36d27408cb94809fc009edbe58d12f1bf752868b77a6ca914e4ed0870dc5d7",
          "blockNumber": "0xa3eaf8",
          "transactionHash": "0x175e7ca98bea762d3e89f76f26d41cf0741b17f77929578452d96e2ef274e982",
          "transactionIndex": "0x8",
          "logIndex": "0xf",
          "removed": false
        }
      ],
      "logsBloom": "0x00000804000000000000000000000000000000000000000000000000000000000000000000000000000000000000000000000000000000000000000008000000000000000000000000000000000000000000000000000000001000000000000000000000220000000000000000000800000000000000000000020000000000000000000000000000000000000000000000000020000000000000000000000000000000000000000000000000000000000000000000000000001000000000000000000000000000000000000000000000020000000000004100000000000020000000000000000000000000000000000000000000008000000000000000000000",
      "type": "0x2",
      "transactionHash": "0x175e7ca98bea762d3e89f76f26d41cf0741b17f77929578452d96e2ef274e982",
      "transactionIndex": "0x8",
      "blockHash": "0x1b36d27408cb94809fc009edbe58d12f1bf752868b77a6ca914e4ed0870dc5d7",
      "blockNumber": "0xa3eaf8",
      "gasUsed": "0xc7d1",
      "effectiveGasPrice": "0x4f7",
      "from": "0x6914549f76c1b669e6b5ea070e10954b0a7ba235",
      "to": "0xd66599e1f4f91e11eb239f3c23eb6232b8699690",
      "contractAddress": null,
      "l1BaseFeeScalar": "0x44d",
      "l1BlobBaseFee": "0x55e6d0c9fa8",
      "l1BlobBaseFeeScalar": "0xa118b",
      "l1Fee": "0x1624413a8ba89",
      "l1GasPrice": "0x40279d35",
      "l1GasUsed": "0x640"
    },
    {
      "status": "0x1",
      "cumulativeGasUsed": "0x9645c",
      "logs": [
        {
          "address": "0xd66599e1f4f91e11eb239f3c23eb6232b8699690",
          "topics": [
            "0x2f8788117e7eff1d82e926ec794901d17c78024a50270940304540a733656f0d",
            "0x65d7a28e3265b37a6474929f336521b332c1681b933f6cb9f3376673440d862a",
            "0x000000000000000000000000c988583e215703f84519e6d3e724b9d66d0c5b3a",
            "0x0000000000000000000000006914549f76c1b669e6b5ea070e10954b0a7ba235"
          ],
          "data": "0x",
          "blockHash": "0x31917bd546c39adbd65ae496d4066b8bd3e54a7c2d636e97aa8d34833a5a9bc0",
          "blockNumber": "0xa3eafc",
          "transactionHash": "0x36c2ddae5f7fb2c3cb8b9e1d7223345981e8e8f92040117801c1b01e42bb7d07",
          "transactionIndex": "0x6",
          "logIndex": "0x9",
          "removed": false
        }
      ],
      "logsBloom": "0x00000804000000000000000000000000000000000000000000000000000000000000000000000000000000000000000000000000000000000000000008000000000000000000000000000000000000000000000000000000001000000000000000000000200000000000000000000000000000000000000000020000000000000000000000000000000000000000008000000020000000000000000000000000000000000000000000000000000000000000000000000000001000000000000000000000000000000000000000000000020000000000004100002000000000000000000000000000000000000000000000000400008000000000000000000000",
      "type": "0x2",
      "transactionHash": "0x36c2ddae5f7fb2c3cb8b9e1d7223345981e8e8f92040117801c1b01e42bb7d07",
      "transactionIndex": "0x6",
      "blockHash": "0x31917bd546c39adbd65ae496d4066b8bd3e54a7c2d636e97aa8d34833a5a9bc0",
      "blockNumber": "0xa3eafc",
      "gasUsed": "0xc951",
      "effectiveGasPrice": "0x4f7",
      "from": "0x6914549f76c1b669e6b5ea070e10954b0a7ba235",
      "to": "0xd66599e1f4f91e11eb239f3c23eb6232b8699690",
      "contractAddress": null,
      "l1BaseFeeScalar": "0x44d",
      "l1BlobBaseFee": "0x529829ac615",
      "l1BlobBaseFeeScalar": "0xa118b",
      "l1Fee": "0x1646d21827d81",
      "l1GasPrice": "0x40b76716",
      "l1GasUsed": "0x68a"
    },
    {
      "status": "0x1",
      "cumulativeGasUsed": "0x17c132",
      "logs": [
        {
          "address": "0xd66599e1f4f91e11eb239f3c23eb6232b8699690",
          "topics": [
            "0x2f8788117e7eff1d82e926ec794901d17c78024a50270940304540a733656f0d",
            "0xfbd454f36a7e1a388bd6fc3ab10d434aa4578f811acbbcf33afb1c697486313c",
            "0x000000000000000000000000636bfb437750d4c8c3ee6965d45f4491a1273a74",
            "0x0000000000000000000000006914549f76c1b669e6b5ea070e10954b0a7ba235"
          ],
          "data": "0x",
          "blockHash": "0xcd84c402d15c67b2a8f82b2fbc6c582e957391802b06348decc303fa74ecf6a7",
          "blockNumber": "0xa3eb00",
          "transactionHash": "0x555caf83027820a32b846134be566081928f11e39d81bc7d9ea58f54580efba1",
          "transactionIndex": "0x8",
          "logIndex": "0x7",
          "removed": false
        }
      ],
      "logsBloom": "0x00000804000000000000000000000000000000000000000000000000000000000000000000000000000000000000000010000000000000000000000008000000000000000000000000008000000000000000000000000000001000000000000000000000000000000000000000000000000000000000000000000000000000000000000000000000000000000000000080000020000004000000000000000000000000000000000000000000000000000000000000000000001000000000000000000000000000000000000000000004000000000000004100000000000000000000000000000000010000000000000000000000008000000000000000000000",
      "type": "0x2",
      "transactionHash": "0x555caf83027820a32b846134be566081928f11e39d81bc7d9ea58f54580efba1",
      "transactionIndex": "0x8",
      "blockHash": "0xcd84c402d15c67b2a8f82b2fbc6c582e957391802b06348decc303fa74ecf6a7",
      "blockNumber": "0xa3eb00",
      "gasUsed": "0xc951",
      "effectiveGasPrice": "0x4f7",
      "from": "0x6914549f76c1b669e6b5ea070e10954b0a7ba235",
      "to": "0xd66599e1f4f91e11eb239f3c23eb6232b8699690",
      "contractAddress": null,
      "l1BaseFeeScalar": "0x44d",
      "l1BlobBaseFee": "0x496acfa5e1d",
      "l1BlobBaseFeeScalar": "0xa118b",
      "l1Fee": "0x13cd2cf2748b7",
      "l1GasPrice": "0x3d4e1824",
      "l1GasUsed": "0x68a"
    },
    {
      "status": "0x1",
      "cumulativeGasUsed": "0x43ef32",
      "logs": [
        {
          "address": "0xd66599e1f4f91e11eb239f3c23eb6232b8699690",
          "topics": [
            "0xf6391f5c32d9c69d2a47ea670b442974b53935d1edc7fd64eb21e047a839171b",
            "0x0000000000000000000000000000000000000000000000000000000000000000",
            "0x0000000000000000000000006914549f76c1b669e6b5ea070e10954b0a7ba235",
            "0x0000000000000000000000006914549f76c1b669e6b5ea070e10954b0a7ba235"
          ],
          "data": "0x",
          "blockHash": "0xcd133b226229e7796d4c7f68b8894bd6de25533893c62a8df62d8e541f827f7c",
          "blockNumber": "0xa3eb03",
          "transactionHash": "0x077890a0903ed0c16303e6c7414db6a8f592a73a9173c77256415b3eb00ab284",
          "transactionIndex": "0x6",
          "logIndex": "0x9",
          "removed": false
        }
      ],
      "logsBloom": "0x00000800000000000000000000000000000000000000000000000000000000000000000000000000000000000000000000200000000000000000000008000000000000000000000000000000000000000000000000000000001000000000000040000000020000000000000000000800000000000000000000000000000000000000000040000000000000000000000000000020000000000000000000000000000000000000000000000000000000000000000000000000000000000000000000000000000000000000000000000000000000000000004000000000000020000000000000000000000000000000000000000000008000000000000000000000",
      "type": "0x2",
      "transactionHash": "0x077890a0903ed0c16303e6c7414db6a8f592a73a9173c77256415b3eb00ab284",
      "transactionIndex": "0x6",
      "blockHash": "0xcd133b226229e7796d4c7f68b8894bd6de25533893c62a8df62d8e541f827f7c",
      "blockNumber": "0xa3eb03",
      "gasUsed": "0x69f2",
      "effectiveGasPrice": "0x4f7",
      "from": "0x6914549f76c1b669e6b5ea070e10954b0a7ba235",
      "to": "0xd66599e1f4f91e11eb239f3c23eb6232b8699690",
      "contractAddress": null,
      "l1BaseFeeScalar": "0x44d",
      "l1BlobBaseFee": "0x496acfa5e1d",
      "l1BlobBaseFeeScalar": "0xa118b",
      "l1Fee": "0x12ec783dc23a3",
      "l1GasPrice": "0x3d4e1824",
      "l1GasUsed": "0x640"
    },
    {
      "status": "0x1",
      "cumulativeGasUsed": "0xba747",
      "logs": [
        {
          "address": "0x9e3ca1edb50439a1d3fd4bce071fa50cb48c7a1b",
          "topics": [
            "0x8c5be1e5ebec7d5bd14f71427d1e84f3dd0314c0f7b2291e5b200ac8c7c3b925",
            "0x000000000000000000000000636bfb437750d4c8c3ee6965d45f4491a1273a74",
            "0x000000000000000000000000d66599e1f4f91e11eb239f3c23eb6232b8699690"
          ],
          "data": "0xffffffffffffffffffffffffffffffffffffffffffffffffffffffffffffffff",
          "blockHash": "0x4694a602b0c69b6b2b06f8d2c0229d160238caea9b846133813280c3ccd0ef24",
          "blockNumber": "0xa3eb87",
          "transactionHash": "0xa6cb2f23e84e78c49840e7983f58d5ceef099a358531f3ba91efd77043790b73",
          "transactionIndex": "0x5",
          "logIndex": "0x8",
          "removed": false
        }
      ],
      "logsBloom": "0x00000000010000000000000000000000000000000000000000000000000000000000000000000000000000000000000010000000000000000000000000200000000000000000040000000000000000000000000000000080000000000000000000000000000000000000000000000000000000000000000000000000000000000002000000000000000000000000000000000000000004000000000000000000020000000000000000000000000000000000000000000000000000000000000000000000000000000000000000000000000000000000010000000000000000000010000000040000010000000000000000000000000000000000000000000000",
      "type": "0x2",
      "transactionHash": "0xa6cb2f23e84e78c49840e7983f58d5ceef099a358531f3ba91efd77043790b73",
      "transactionIndex": "0x5",
      "blockHash": "0x4694a602b0c69b6b2b06f8d2c0229d160238caea9b846133813280c3ccd0ef24",
      "blockNumber": "0xa3eb87",
      "gasUsed": "0xb631",
      "effectiveGasPrice": "0x4fa",
      "from": "0x636bfb437750d4c8c3ee6965d45f4491a1273a74",
      "to": "0x9e3ca1edb50439a1d3fd4bce071fa50cb48c7a1b",
      "contractAddress": null,
      "l1BaseFeeScalar": "0x44d",
      "l1BlobBaseFee": "0x3c54da1edcf",
      "l1BlobBaseFeeScalar": "0xa118b",
      "l1Fee": "0xf8d036667e51",
      "l1GasPrice": "0x546a4961",
      "l1GasUsed": "0x640"
    },
    {
      "status": "0x1",
      "cumulativeGasUsed": "0x186f41",
      "logs": [
        {
          "address": "0xde0d2a9db9e861d4cfa482823bef147762bd57e8",
          "topics": [
            "0x17307eab39ab6107e8899845ad3d59bd9653f200f220920489ca2b5937696c31",
            "0x000000000000000000000000636bfb437750d4c8c3ee6965d45f4491a1273a74",
            "0x000000000000000000000000d66599e1f4f91e11eb239f3c23eb6232b8699690"
          ],
          "data": "0x0000000000000000000000000000000000000000000000000000000000000001",
          "blockHash": "0x5a174e240bfa939d2c99c4a9d946d2cddb5434b68dd868f688dc5b36d3583738",
          "blockNumber": "0xa3eb8b",
          "transactionHash": "0x7e4d1a0c59ef45740eceb5de17ce7fce7342ad635289d0b3dccf2a5bbc74d34e",
          "transactionIndex": "0x8",
          "logIndex": "0x11",
          "removed": false
        }
      ],
      "logsBloom": "0x00000000000000000000000000000000000200000000000000000000000000000000000000000000000000000000000010000000000000000000000000000000000000000000040000000000080000000000000000000080000000000000000002000000000000000000000000000000000000000000000000000000000000000000000000000000000000000000000000000000000004000000000000000000000000000000000000000000000000000000000000000000000000000000400000000000000000000000000000000000000000000000010000000000000000000000200800000000010000000000000000000000000000000000000000000000",
      "type": "0x2",
      "transactionHash": "0x7e4d1a0c59ef45740eceb5de17ce7fce7342ad635289d0b3dccf2a5bbc74d34e",
      "transactionIndex": "0x8",
      "blockHash": "0x5a174e240bfa939d2c99c4a9d946d2cddb5434b68dd868f688dc5b36d3583738",
      "blockNumber": "0xa3eb8b",
      "gasUsed": "0xb48c",
      "effectiveGasPrice": "0x4fa",
      "from": "0x636bfb437750d4c8c3ee6965d45f4491a1273a74",
      "to": "0xde0d2a9db9e861d4cfa482823bef147762bd57e8",
      "contractAddress": null,
      "l1BaseFeeScalar": "0x44d",
      "l1BlobBaseFee": "0x43df75719fb",
      "l1BlobBaseFeeScalar": "0xa118b",
      "l1Fee": "0x117ea3532c2e3",
      "l1GasPrice": "0x5a49cb99",
      "l1GasUsed": "0x640"
    }
  ],
  "libraries": [],
  "pending": [],
  "returns": {},
  "timestamp": 1717253647,
  "chain": 84532,
  "commit": "7c45159"
}