{
  "transactions": [
    {
      "hash": "0x75af9353ff4cd643fefcd4b631ef9f5cfdef779455bb17798ceedf8d7f73d801",
      "transactionType": "CREATE",
      "contractName": "TokenTransferRelay",
      "contractAddress": "0xa4cef16b63b49ae2821044978f6af1d6943d5e06",
      "function": null,
      "arguments": [
        "0x93663e8F0D15907b2aeAa89f165Bf46fa0bcBf5a",
        "0x75dE07e27853544F2ecdcabc79d5e1347296Aa0E",
        "0x000000000000000000000000000000000000dEaD",
        "0xa6A47E2Ad1dC0680308B16731285a8F1476473C8"
      ],
      "transaction": {
        "from": "0x6914549f76c1b669e6b5ea070e10954b0a7ba235",
        "gas": "0x1bfe0e",
        "value": "0x0",
        "input": "0x608060405234801561001057600080fd5b5060405161181638038061181683398101604081905261002f91610156565b600180546001600160a01b03199081166001600160a01b03878116919091179092556002805482168684161790556003805482168584161790556004805490911691831691909117905561008460003361008e565b50505050506101aa565b6000828152602081815260408083206001600160a01b038516845290915281205460ff16610130576000838152602081815260408083206001600160a01b03861684529091529020805460ff191660011790556100e83390565b6001600160a01b0316826001600160a01b0316847f2f8788117e7eff1d82e926ec794901d17c78024a50270940304540a733656f0d60405160405180910390a4506001610134565b5060005b92915050565b80516001600160a01b038116811461015157600080fd5b919050565b6000806000806080858703121561016c57600080fd5b6101758561013a565b93506101836020860161013a565b92506101916040860161013a565b915061019f6060860161013a565b905092959194509250565b61165d806101b96000396000f3fe608060405234801561001057600080fd5b50600436106101c45760003560e01c806379ff456d116100f9578063bcbb895a11610097578063d1caa0fd11610071578063d1caa0fd14610455578063d547741f14610468578063ebb645921461047b578063f5b541a61461048e57600080fd5b8063bcbb895a1461040f578063bdf8f1031461042f578063cc46ad9b1461044257600080fd5b80639220f499116100d35780639220f499146103ba57806395e7c814146103cd578063a217fddf146103f4578063b2f41390146103fc57600080fd5b806379ff456d1461036d5780638d3818b11461038057806391d14854146103a757600080fd5b8063248a9ca31161016657806333c5eaca1161014057806333c5eaca1461032157806336568abe14610334578063417baa1e14610347578063660324701461035a57600080fd5b8063248a9ca3146102c05780632f2ff15d146102e3578063334cc7ca146102f657600080fd5b806314422eb8116101a257806314422eb814610239578063150b7a021461024c5780631dec5e071461028457806323b7fc53146102ab57600080fd5b806301ffc9a7146101c957806303627581146101f15780630e68d08214610204575b600080fd5b6101dc6101d7366004611243565b6104a3565b60405190151581526020015b60405180910390f35b6101dc6101ff366004611289565b6104ce565b61022b7f11d01c9b56cdb9581a12ba739ca796bc4781caeb130dfda587b45ce1f3420f3b81565b6040519081526020016101e8565b61022b610247366004611289565b610536565b61026b61025a3660046112b5565b630a85bd0160e11b95945050505050565b6040516001600160e01b031990911681526020016101e8565b61022b7fb06fd1d7ac3cc9ad93e77413fab9fcd3bbd887f5685e519e34e0e80802d074ee81565b6102be6102b9366004611289565b610584565b005b61022b6102ce366004611350565b60009081526020819052604090206001015490565b6102be6102f1366004611289565b6106df565b600454610309906001600160a01b031681565b6040516001600160a01b0390911681526020016101e8565b600154610309906001600160a01b031681565b6102be610342366004611289565b61070a565b600354610309906001600160a01b031681565b6101dc610368366004611289565b610742565b6102be61037b366004611289565b61077b565b61022b7f13b7232325d768be97bba0f97971bb57a3353dca49d348277d396291eeaca60481565b6101dc6103b5366004611289565b61079d565b6102be6103c83660046113b5565b6107c6565b61022b7fa4dbb9b4158d444008ec40bb666acc21873cd771fbe533f61c6d9b6a6593289381565b61022b600081565b6102be61040a366004611417565b6107f3565b61042261041d366004611289565b610840565b6040516101e89190611432565b6102be61043d366004611350565b61090f565b600254610309906001600160a01b031681565b6102be6104633660046114ab565b61091c565b6102be610476366004611289565b610929565b6102be610489366004611417565b61094e565b61022b60008051602061160883398151915281565b60006001600160e01b03198216630a85bd0160e11b14806104c857506104c88261099b565b92915050565b6000806104db8484610840565b6060015190507f11d01c9b56cdb9581a12ba739ca796bc4781caeb130dfda587b45ce1f3420f3b81148061052e57507fa4dbb9b4158d444008ec40bb666acc21873cd771fbe533f61c6d9b6a6593289381145b949350505050565b6000828260405160200161056692919091825260601b6bffffffffffffffffffffffff1916602082015260340190565b60405160208183030381529060405280519060200120905092915050565b60008051602061160883398151915261059c816109d0565b6105a68383610742565b6105cb5760405162461bcd60e51b81526004016105c2906114fe565b60405180910390fd5b6000600560006105db8686610536565b815260208082019290925260409081016000207fa4dbb9b4158d444008ec40bb666acc21873cd771fbe533f61c6d9b6a659328936003820155805460018201805484518187028101870190955280855292955061067a9430946001600160a01b03909316939083018282801561067057602002820191906000526020600020905b81548152602001906001019080831161065c575b50505050506109da565b805460028201546106989130916001600160a01b0390911690610a98565b604080518581526001600160a01b03851660208201527f8bb531857f15fff665cf1b3f8bc4007521a62ab4c5be4c439357ea0dedd14491910160405180910390a150505050565b6000828152602081905260409020600101546106fa816109d0565b6107048383610add565b50505050565b6001600160a01b03811633146107335760405163334bd91960e11b815260040160405180910390fd5b61073d8282610b6f565b505050565b60007f13b7232325d768be97bba0f97971bb57a3353dca49d348277d396291eeaca60461076f8484610840565b60600151149392505050565b600080516020611608833981519152610793816109d0565b61073d8383610bda565b6000918252602082815260408084206001600160a01b0393909316845291905290205460ff1690565b6000805160206116088339815191526107de816109d0565b6107eb8686868686610d1e565b505050505050565b7fb06fd1d7ac3cc9ad93e77413fab9fcd3bbd887f5685e519e34e0e80802d074ee61081d816109d0565b50600480546001600160a01b0319166001600160a01b0392909216919091179055565b60408051608081018252600080825260606020830181905292820181905291810191909152600560006108738585610536565b81526020808201929092526040908101600020815160808101835281546001600160a01b0316815260018201805484518187028101870190955280855291949293858401939092908301828280156108ea57602002820191906000526020600020905b8154815260200190600101908083116108d6575b5050505050815260200160028201548152602001600382015481525050905092915050565b6109198133610bda565b50565b6107048433858585610d1e565b600082815260208190526040902060010154610944816109d0565b6107048383610b6f565b7fb06fd1d7ac3cc9ad93e77413fab9fcd3bbd887f5685e519e34e0e80802d074ee610978816109d0565b50600380546001600160a01b0319166001600160a01b0392909216919091179055565b60006001600160e01b03198216637965db0b60e01b14806104c857506301ffc9a760e01b6001600160e01b03198316146104c8565b6109198133610f74565b805160005b81811015610a915760015483516001600160a01b03909116906342842e0e9087908790879086908110610a1457610a1461154a565b60209081029190910101516040516001600160e01b031960e086901b1681526001600160a01b0393841660048201529290911660248301526044820152606401600060405180830381600087803b158015610a6e57600080fd5b505af1158015610a82573d6000803e3d6000fd5b505050508060010190506109df565b5050505050565b801561073d576001600160a01b0383163014610ac65760025461073d906001600160a01b0316848484610fb1565b60025461073d906001600160a01b03168383611018565b6000610ae9838361079d565b610b67576000838152602081815260408083206001600160a01b03861684529091529020805460ff19166001179055610b1f3390565b6001600160a01b0316826001600160a01b0316847f2f8788117e7eff1d82e926ec794901d17c78024a50270940304540a733656f0d60405160405180910390a45060016104c8565b5060006104c8565b6000610b7b838361079d565b15610b67576000838152602081815260408083206001600160a01b0386168085529252808320805460ff1916905551339286917ff6391f5c32d9c69d2a47ea670b442974b53935d1edc7fd64eb21e047a839171b9190a45060016104c8565b610be48282610742565b610c005760405162461bcd60e51b81526004016105c2906114fe565b600060056000610c108585610536565b815260200190815260200160002090507f11d01c9b56cdb9581a12ba739ca796bc4781caeb130dfda587b45ce1f3420f3b8160030181905550610cb930600360009054906101000a90046001600160a01b031683600101805480602002602001604051908101604052809291908181526020018280548015610670576020028201919060005260206000209081548152602001906001019080831161065c5750505050506109da565b6004546002820154610cd89130916001600160a01b0390911690610a98565b604080518481526001600160a01b03841660208201527f9dc31a4ea4a02e674abbe06620f541360e032c6c662c006e8a73b6cc082fc8ec910160405180910390a1505050565b610d288585610742565b15610d8b5760405162461bcd60e51b815260206004820152602d60248201527f546f6b656e5472616e7366657252656c61793a205472616e7366657220616c7260448201526c1958591e481c995cd95c9d9959609a1b60648201526084016105c2565b610d9585856104ce565b15610df95760405162461bcd60e51b815260206004820152602e60248201527f546f6b656e5472616e7366657252656c61793a205472616e7366657220616c7260448201526d1958591e481c1c9bd8d95cdcd95960921b60648201526084016105c2565b6040518060800160405280856001600160a01b031681526020018484808060200260200160405190810160405280939291908181526020018383602002808284376000920182905250938552505050602082018490527f13b7232325d768be97bba0f97971bb57a3353dca49d348277d396291eeaca604604090920191909152600590610e868888610536565b8152602080820192909252604001600020825181546001600160a01b0319166001600160a01b039091161781558282015180519192610ecd926001850192909101906111e3565b506040820151816002015560608201518160030155905050610f2384308585808060200260200160405190810160405280939291908181526020018383602002808284376000920191909152506109da92505050565b610f2e843083610a98565b7ff2f47540d9bb61c0faf60b9a71d341be7729d6e65d58821d12c5a609e342b4018585858585604051610f65959493929190611560565b60405180910390a15050505050565b610f7e828261079d565b610fad5760405163e2517d3f60e01b81526001600160a01b0382166004820152602481018390526044016105c2565b5050565b6040516001600160a01b0384811660248301528381166044830152606482018390526107049186918216906323b872dd906084015b604051602081830303815290604052915060e01b6020820180516001600160e01b038381831617835250505050611049565b6040516001600160a01b0383811660248301526044820183905261073d91859182169063a9059cbb90606401610fe6565b600061105e6001600160a01b038416836110ac565b9050805160001415801561108357508080602001905181019061108191906115b6565b155b1561073d57604051635274afe760e01b81526001600160a01b03841660048201526024016105c2565b60606110ba838360006110c1565b9392505050565b6060814710156110e65760405163cd78605960e01b81523060048201526024016105c2565b600080856001600160a01b0316848660405161110291906115d8565b60006040518083038185875af1925050503d806000811461113f576040519150601f19603f3d011682016040523d82523d6000602084013e611144565b606091505b509150915061115486838361115e565b9695505050505050565b6060826111735761116e826111ba565b6110ba565b815115801561118a57506001600160a01b0384163b155b156111b357604051639996b31560e01b81526001600160a01b03851660048201526024016105c2565b50806110ba565b8051156111ca5780518082602001fd5b604051630a12f52160e11b815260040160405180910390fd5b82805482825590600052602060002090810192821561121e579160200282015b8281111561121e578251825591602001919060010190611203565b5061122a92915061122e565b5090565b5b8082111561122a576000815560010161122f565b60006020828403121561125557600080fd5b81356001600160e01b0319811681146110ba57600080fd5b80356001600160a01b038116811461128457600080fd5b919050565b6000806040838503121561129c57600080fd5b823591506112ac6020840161126d565b90509250929050565b6000806000806000608086880312156112cd57600080fd5b6112d68661126d565b94506112e46020870161126d565b935060408601359250606086013567ffffffffffffffff8082111561130857600080fd5b818801915088601f83011261131c57600080fd5b81358181111561132b57600080fd5b89602082850101111561133d57600080fd5b9699959850939650602001949392505050565b60006020828403121561136257600080fd5b5035919050565b60008083601f84011261137b57600080fd5b50813567ffffffffffffffff81111561139357600080fd5b6020830191508360208260051b85010111156113ae57600080fd5b9250929050565b6000806000806000608086880312156113cd57600080fd5b853594506113dd6020870161126d565b9350604086013567ffffffffffffffff8111156113f957600080fd5b61140588828901611369565b96999598509660600135949350505050565b60006020828403121561142957600080fd5b6110ba8261126d565b602080825282516001600160a01b0316828201528281015160806040840152805160a0840181905260009291820190839060c08601905b808310156114895783518252928401926001929092019190840190611469565b5060408701516060870152606087015160808701528094505050505092915050565b600080600080606085870312156114c157600080fd5b84359350602085013567ffffffffffffffff8111156114df57600080fd5b6114eb87828801611369565b9598909750949560400135949350505050565b6020808252602c908201527f546f6b656e5472616e7366657252656c61793a205472616e736665722069732060408201526b1b9bdd081c995cd95c9d995960a21b606082015260800190565b634e487b7160e01b600052603260045260246000fd5b8581526001600160a01b0385166020820152608060408201819052810183905260006001600160fb1b0384111561159657600080fd5b8360051b808660a08501376060830193909352500160a001949350505050565b6000602082840312156115c857600080fd5b815180151581146110ba57600080fd5b6000825160005b818110156115f957602081860181015185830152016115df565b50600092019182525091905056fe97667070c54ef182b0f5858b034beac1b6f3089aa2d3188bb1e8929f4fa9b929a264697066735822122033cd7434e12f7292668a3c611fc9c07dcd9cf048215935066075c6f45316c06f64736f6c6343000819003300000000000000000000000093663e8f0d15907b2aeaa89f165bf46fa0bcbf5a00000000000000000000000075de07e27853544f2ecdcabc79d5e1347296aa0e000000000000000000000000000000000000000000000000000000000000dead000000000000000000000000a6a47e2ad1dc0680308b16731285a8f1476473c8",
        "nonce": "0x339f",
        "chainId": "0x61"
      },
      "additionalContracts": [],
      "isFixedGasLimit": false
    },
    {
      "hash": "0xd9e77a5b1316bb9a488b5965e0c4238149bfb8d37f77bcc405b781ed56b84147",
      "transactionType": "CALL",
      "contractName": "TokenTransferRelay",
      "contractAddress": "0xa4cef16b63b49ae2821044978f6af1d6943d5e06",
      "function": "grantRole(bytes32,address)",
      "arguments": [
        "0x0000000000000000000000000000000000000000000000000000000000000000",
        "0xC988583e215703F84519E6D3e724b9D66d0C5B3a"
      ],
      "transaction": {
        "from": "0x6914549f76c1b669e6b5ea070e10954b0a7ba235",
        "to": "0xa4cef16b63b49ae2821044978f6af1d6943d5e06",
        "gas": "0x1241a",
        "value": "0x0",
        "input": "0x2f2ff15d0000000000000000000000000000000000000000000000000000000000000000000000000000000000000000c988583e215703f84519e6d3e724b9d66d0c5b3a",
        "nonce": "0x33a0",
        "chainId": "0x61"
      },
      "additionalContracts": [],
      "isFixedGasLimit": false
    },
    {
      "hash": "0x2d3477a657158940a63afe1cd529d4c4e7e401a4991c4abaf20fcfdc6e3e4875",
      "transactionType": "CALL",
      "contractName": "TokenTransferRelay",
      "contractAddress": "0xa4cef16b63b49ae2821044978f6af1d6943d5e06",
      "function": "grantRole(bytes32,address)",
      "arguments": [
        "0xb06fd1d7ac3cc9ad93e77413fab9fcd3bbd887f5685e519e34e0e80802d074ee",
        "0xC988583e215703F84519E6D3e724b9D66d0C5B3a"
      ],
      "transaction": {
        "from": "0x6914549f76c1b669e6b5ea070e10954b0a7ba235",
        "to": "0xa4cef16b63b49ae2821044978f6af1d6943d5e06",
        "gas": "0x1264c",
        "value": "0x0",
        "input": "0x2f2ff15db06fd1d7ac3cc9ad93e77413fab9fcd3bbd887f5685e519e34e0e80802d074ee000000000000000000000000c988583e215703f84519e6d3e724b9d66d0c5b3a",
        "nonce": "0x33a1",
        "chainId": "0x61"
      },
      "additionalContracts": [],
      "isFixedGasLimit": false
    },
    {
      "hash": "0x18f71e5172ef036def93b8c5d1b1256bfc347f911f4d6897d6a216da3e97cdad",
      "transactionType": "CALL",
      "contractName": "TokenTransferRelay",
      "contractAddress": "0xa4cef16b63b49ae2821044978f6af1d6943d5e06",
      "function": "grantRole(bytes32,address)",
      "arguments": [
        "0x97667070c54ef182b0f5858b034beac1b6f3089aa2d3188bb1e8929f4fa9b929",
        "0x636BfB437750D4C8C3EE6965D45F4491A1273a74"
      ],
      "transaction": {
        "from": "0x6914549f76c1b669e6b5ea070e10954b0a7ba235",
        "to": "0xa4cef16b63b49ae2821044978f6af1d6943d5e06",
        "gas": "0x1264c",
        "value": "0x0",
        "input": "0x2f2ff15d97667070c54ef182b0f5858b034beac1b6f3089aa2d3188bb1e8929f4fa9b929000000000000000000000000636bfb437750d4c8c3ee6965d45f4491a1273a74",
        "nonce": "0x33a2",
        "chainId": "0x61"
      },
      "additionalContracts": [],
      "isFixedGasLimit": false
    },
    {
      "hash": "0x82cc0687c9f799da5a6264e3938082c1687a7c7199c10145b0be668d62d16575",
      "transactionType": "CALL",
      "contractName": "TokenTransferRelay",
      "contractAddress": "0xa4cef16b63b49ae2821044978f6af1d6943d5e06",
      "function": "revokeRole(bytes32,address)",
      "arguments": [
        "0x0000000000000000000000000000000000000000000000000000000000000000",
        "0x6914549F76c1B669E6b5ea070E10954B0A7bA235"
      ],
      "transaction": {
        "from": "0x6914549f76c1b669e6b5ea070e10954b0a7ba235",
        "to": "0xa4cef16b63b49ae2821044978f6af1d6943d5e06",
        "gas": "0x9291",
        "value": "0x0",
        "input": "0xd547741f00000000000000000000000000000000000000000000000000000000000000000000000000000000000000006914549f76c1b669e6b5ea070e10954b0a7ba235",
        "nonce": "0x33a3",
        "chainId": "0x61"
      },
      "additionalContracts": [],
      "isFixedGasLimit": false
    }
  ],
  "receipts": [
    {
      "status": "0x1",
      "cumulativeGasUsed": "0x208349",
      "logs": [
        {
          "address": "0xa4cef16b63b49ae2821044978f6af1d6943d5e06",
          "topics": [
            "0x2f8788117e7eff1d82e926ec794901d17c78024a50270940304540a733656f0d",
            "0x0000000000000000000000000000000000000000000000000000000000000000",
            "0x0000000000000000000000006914549f76c1b669e6b5ea070e10954b0a7ba235",
            "0x0000000000000000000000006914549f76c1b669e6b5ea070e10954b0a7ba235"
          ],
          "data": "0x",
          "blockHash": "0x190bdf9f49075e1a61ab12dad365a3abbe65088c35b1c7e57e08a26c15b48a9b",
          "blockNumber": "0x26dfa09",
          "transactionHash": "0x75af9353ff4cd643fefcd4b631ef9f5cfdef779455bb17798ceedf8d7f73d801",
          "transactionIndex": "0x3",
          "logIndex": "0xf",
          "removed": false
        }
      ],
      "logsBloom": "0x00000804000000000000000000000000000000000000000000000008000000000000010000000000000000000000000000000000000000000000000008000000000000000000000000000000000000000000000000000000000000000000000000000000020000000000000000000800000000000000000000000000000000000000000000000000000000000000000000000000000000000000000000000000000000000000000000000000040000000000000000000000001000000000000000000000000000000000000000000000000000000000000100000000000020000000000000000000000000000000000000000000008000000000000000000000",
      "type": "0x0",
      "transactionHash": "0x75af9353ff4cd643fefcd4b631ef9f5cfdef779455bb17798ceedf8d7f73d801",
      "transactionIndex": "0x3",
      "blockHash": "0x190bdf9f49075e1a61ab12dad365a3abbe65088c35b1c7e57e08a26c15b48a9b",
      "blockNumber": "0x26dfa09",
      "gasUsed": "0x1589e4",
      "effectiveGasPrice": "0x12d00e280",
      "from": "0x6914549f76c1b669e6b5ea070e10954b0a7ba235",
      "to": null,
      "contractAddress": "0xa4cef16b63b49ae2821044978f6af1d6943d5e06"
    },
    {
      "status": "0x1",
      "cumulativeGasUsed": "0x214b04",
      "logs": [
        {
          "address": "0xa4cef16b63b49ae2821044978f6af1d6943d5e06",
          "topics": [
            "0x2f8788117e7eff1d82e926ec794901d17c78024a50270940304540a733656f0d",
            "0x0000000000000000000000000000000000000000000000000000000000000000",
            "0x000000000000000000000000c988583e215703f84519e6d3e724b9d66d0c5b3a",
            "0x0000000000000000000000006914549f76c1b669e6b5ea070e10954b0a7ba235"
          ],
          "data": "0x",
          "blockHash": "0x190bdf9f49075e1a61ab12dad365a3abbe65088c35b1c7e57e08a26c15b48a9b",
          "blockNumber": "0x26dfa09",
          "transactionHash": "0xd9e77a5b1316bb9a488b5965e0c4238149bfb8d37f77bcc405b781ed56b84147",
          "transactionIndex": "0x4",
          "logIndex": "0x10",
          "removed": false
        }
      ],
      "logsBloom": "0x00000804000000000000000000000000000000000000000000000008000000000000010000000000000000000000000000000000000000000000000008000000000000000000000000000000000000000000000000000000000000000000000000000000220000000000000000000800000000000000000000020000000000000000000000000000000000000000000000000000000000000000000000000000000000000000000000000000040000000000000000000000001000000000000000000000000000000000000000000000020000000000000100000000000020000000000000000000000000000000000000000000008000000000000000000000",
      "type": "0x0",
      "transactionHash": "0xd9e77a5b1316bb9a488b5965e0c4238149bfb8d37f77bcc405b781ed56b84147",
      "transactionIndex": "0x4",
      "blockHash": "0x190bdf9f49075e1a61ab12dad365a3abbe65088c35b1c7e57e08a26c15b48a9b",
      "blockNumber": "0x26dfa09",
      "gasUsed": "0xc7bb",
      "effectiveGasPrice": "0x12d00e280",
      "from": "0x6914549f76c1b669e6b5ea070e10954b0a7ba235",
      "to": "0xa4cef16b63b49ae2821044978f6af1d6943d5e06",
      "contractAddress": null
    },
    {
      "status": "0x1",
      "cumulativeGasUsed": "0x22143f",
      "logs": [
        {
          "address": "0xa4cef16b63b49ae2821044978f6af1d6943d5e06",
          "topics": [
            "0x2f8788117e7eff1d82e926ec794901d17c78024a50270940304540a733656f0d",
            "0xb06fd1d7ac3cc9ad93e77413fab9fcd3bbd887f5685e519e34e0e80802d074ee",
            "0x000000000000000000000000c988583e215703f84519e6d3e724b9d66d0c5b3a",
            "0x0000000000000000000000006914549f76c1b669e6b5ea070e10954b0a7ba235"
          ],
          "data": "0x",
          "blockHash": "0x190bdf9f49075e1a61ab12dad365a3abbe65088c35b1c7e57e08a26c15b48a9b",
          "blockNumber": "0x26dfa09",
          "transactionHash": "0x2d3477a657158940a63afe1cd529d4c4e7e401a4991c4abaf20fcfdc6e3e4875",
          "transactionIndex": "0x5",
          "logIndex": "0x11",
          "removed": false
        }
      ],
      "logsBloom": "0x00000804000000000000000000000000000000000000000000000008000000000000010000000000000000000000000000000000000000000000000008000000000000000000000000000000000000000000000000000000000000000000000000000000200000000000000000000000000000000000000000020000000000000000020000000000000000000000000000000000000000000000000040000000000000000000000000000000040000000000000000000000001000000000000000000000000000000000000000000000020000000000000100000000000000000000000000000000000000000000000000000000008000000000010000000000",
      "type": "0x0",
      "transactionHash": "0x2d3477a657158940a63afe1cd529d4c4e7e401a4991c4abaf20fcfdc6e3e4875",
      "transactionIndex": "0x5",
      "blockHash": "0x190bdf9f49075e1a61ab12dad365a3abbe65088c35b1c7e57e08a26c15b48a9b",
      "blockNumber": "0x26dfa09",
      "gasUsed": "0xc93b",
      "effectiveGasPrice": "0x12d00e280",
      "from": "0x6914549f76c1b669e6b5ea070e10954b0a7ba235",
      "to": "0xa4cef16b63b49ae2821044978f6af1d6943d5e06",
      "contractAddress": null
    },
    {
      "status": "0x1",
      "cumulativeGasUsed": "0x22dd7a",
      "logs": [
        {
          "address": "0xa4cef16b63b49ae2821044978f6af1d6943d5e06",
          "topics": [
            "0x2f8788117e7eff1d82e926ec794901d17c78024a50270940304540a733656f0d",
            "0x97667070c54ef182b0f5858b034beac1b6f3089aa2d3188bb1e8929f4fa9b929",
            "0x000000000000000000000000636bfb437750d4c8c3ee6965d45f4491a1273a74",
            "0x0000000000000000000000006914549f76c1b669e6b5ea070e10954b0a7ba235"
          ],
          "data": "0x",
          "blockHash": "0x190bdf9f49075e1a61ab12dad365a3abbe65088c35b1c7e57e08a26c15b48a9b",
          "blockNumber": "0x26dfa09",
          "transactionHash": "0x18f71e5172ef036def93b8c5d1b1256bfc347f911f4d6897d6a216da3e97cdad",
          "transactionIndex": "0x6",
          "logIndex": "0x12",
          "removed": false
        }
      ],
      "logsBloom": "0x00000804000000000000000000000000000000000000000000000008000000000200010000000000000000000000000010000000000000000000000008000000000000000000000000000000000000000002000000000000000000000000000000000000000000000000000000000000000000000000000000000000000000000000000000000000000000000000000000000000000004000000000000000000000000000000000000000000040000000000000000008000001000000000000000000000000000000000000000000000000000000000000100000000000000000000000000000000010000000000000000000000008000000000000000000000",
      "type": "0x0",
      "transactionHash": "0x18f71e5172ef036def93b8c5d1b1256bfc347f911f4d6897d6a216da3e97cdad",
      "transactionIndex": "0x6",
      "blockHash": "0x190bdf9f49075e1a61ab12dad365a3abbe65088c35b1c7e57e08a26c15b48a9b",
      "blockNumber": "0x26dfa09",
      "gasUsed": "0xc93b",
      "effectiveGasPrice": "0x12d00e280",
      "from": "0x6914549f76c1b669e6b5ea070e10954b0a7ba235",
      "to": "0xa4cef16b63b49ae2821044978f6af1d6943d5e06",
      "contractAddress": null
    },
    {
      "status": "0x1",
      "cumulativeGasUsed": "0x234798",
      "logs": [
        {
          "address": "0xa4cef16b63b49ae2821044978f6af1d6943d5e06",
          "topics": [
            "0xf6391f5c32d9c69d2a47ea670b442974b53935d1edc7fd64eb21e047a839171b",
            "0x0000000000000000000000000000000000000000000000000000000000000000",
            "0x0000000000000000000000006914549f76c1b669e6b5ea070e10954b0a7ba235",
            "0x0000000000000000000000006914549f76c1b669e6b5ea070e10954b0a7ba235"
          ],
          "data": "0x",
          "blockHash": "0x190bdf9f49075e1a61ab12dad365a3abbe65088c35b1c7e57e08a26c15b48a9b",
          "blockNumber": "0x26dfa09",
          "transactionHash": "0x82cc0687c9f799da5a6264e3938082c1687a7c7199c10145b0be668d62d16575",
          "transactionIndex": "0x7",
          "logIndex": "0x13",
          "removed": false
        }
      ],
      "logsBloom": "0x00000800000000000000000000000000000000000000000000000008000000000000010000000000000000000000000000200000000000000000000008000000000000000000000000000000000000000000000000000000000000000000000040000000020000000000000000000800000000000000000000000000000000000000000040000000000000000000000000000000000000000000000000000000000000000000000000000000040000000000000000000000000000000000000000000000000000000000000000000000000000000000000000000000000020000000000000000000000000000000000000000000008000000000000000000000",
      "type": "0x0",
      "transactionHash": "0x82cc0687c9f799da5a6264e3938082c1687a7c7199c10145b0be668d62d16575",
      "transactionIndex": "0x7",
      "blockHash": "0x190bdf9f49075e1a61ab12dad365a3abbe65088c35b1c7e57e08a26c15b48a9b",
      "blockNumber": "0x26dfa09",
      "gasUsed": "0x6a1e",
      "effectiveGasPrice": "0x12d00e280",
      "from": "0x6914549f76c1b669e6b5ea070e10954b0a7ba235",
      "to": "0xa4cef16b63b49ae2821044978f6af1d6943d5e06",
      "contractAddress": null
    }
  ],
  "libraries": [],
  "pending": [],
  "returns": {},
  "timestamp": 1717003521,
  "chain": 97,
  "commit": "e0aa6f9"
}