{
  "transactions": [
    {
      "hash": "0x9b99e6faee4529b9b7cac0c6bc3df56334f6ae5467301e20f28cdc157bf27544",
      "transactionType": "CREATE",
      "contractName": "DistributionManager",
      "contractAddress": "0xd4038f7ad18762ed124e54ff54ae2d929519f30c",
      "function": null,
      "arguments": [
        "0x9E3CA1EdB50439a1d3fD4Bce071fA50cB48C7A1b",
        "0x1fD6677e45F421F7AFc457F06D8ac73248137125"
      ],
      "transaction": {
        "from": "0x6914549f76c1b669e6b5ea070e10954b0a7ba235",
        "gas": "0xf0945",
        "value": "0x0",
        "input": "0x60c060405234801561001057600080fd5b50604051610db7380380610db783398101604081905261002f91610127565b6001805460ff191690556001600160a01b03828116608052811660a05261005760003361005f565b50505061015a565b6000828152602081815260408083206001600160a01b038516845290915281205460ff16610101576000838152602081815260408083206001600160a01b03861684529091529020805460ff191660011790556100b93390565b6001600160a01b0316826001600160a01b0316847f2f8788117e7eff1d82e926ec794901d17c78024a50270940304540a733656f0d60405160405180910390a4506001610105565b5060005b92915050565b80516001600160a01b038116811461012257600080fd5b919050565b6000806040838503121561013a57600080fd5b6101438361010b565b91506101516020840161010b565b90509250929050565b60805160a051610c2a61018d600039600081816101b10152610525015260008181610213015261046e0152610c2a6000f3fe608060405234801561001057600080fd5b50600436106101005760003560e01c80638456cb5911610097578063d547741f11610066578063d547741f14610235578063e63ab1e914610248578063ebc6577b1461026f578063f0bd87cc1461028257600080fd5b80638456cb59146101eb57806391d14854146101f3578063a217fddf14610206578063ba5a7be41461020e57600080fd5b806336568abe116100d357806336568abe146101865780633f4ba83a146101995780635c975abb146101a15780636e14f193146101ac57600080fd5b806301ffc9a71461010557806314a8ad541461012d578063248a9ca3146101405780632f2ff15d14610171575b600080fd5b6101186101133660046108d5565b6102a9565b60405190151581526020015b60405180910390f35b61011861013b3660046109bd565b6102e0565b61016361014e3660046109fa565b60009081526020819052604090206001015490565b604051908152602001610124565b61018461017f366004610a2f565b61030b565b005b610184610194366004610a2f565b610336565b61018461036e565b60015460ff16610118565b6101d37f000000000000000000000000000000000000000000000000000000000000000081565b6040516001600160a01b039091168152602001610124565b6101846103a3565b610118610201366004610a2f565b6103d5565b610163600081565b6101d37f000000000000000000000000000000000000000000000000000000000000000081565b610184610243366004610a2f565b6103fe565b6101637f65d7a28e3265b37a6474929f336521b332c1681b933f6cb9f3376673440d862a81565b61018461027d366004610a5b565b610423565b6101637ffbd454f36a7e1a388bd6fc3ab10d434aa4578f811acbbcf33afb1c697486313c81565b60006001600160e01b03198216637965db0b60e01b14806102da57506301ffc9a760e01b6001600160e01b03198316145b92915050565b60006002826040516102f29190610b6d565b9081526040519081900360200190205460ff1692915050565b6000828152602081905260409020600101546103268161061c565b6103308383610626565b50505050565b6001600160a01b038116331461035f5760405163334bd91960e11b815260040160405180910390fd5b61036982826106b8565b505050565b7f65d7a28e3265b37a6474929f336521b332c1681b933f6cb9f3376673440d862a6103988161061c565b6103a0610723565b50565b7f65d7a28e3265b37a6474929f336521b332c1681b933f6cb9f3376673440d862a6103cd8161061c565b6103a0610775565b6000918252602082815260408084206001600160a01b0393909316845291905290205460ff1690565b6000828152602081905260409020600101546104198161061c565b61033083836106b8565b7ffbd454f36a7e1a388bd6fc3ab10d434aa4578f811acbbcf33afb1c697486313c61044d8161061c565b6104556107b0565b61045e866107d6565b831561050f576001600160a01b037f0000000000000000000000000000000000000000000000000000000000000000166323b872dd336040516001600160e01b031960e084901b1681526001600160a01b0391821660048201529088166024820152604481018790526064016020604051808303816000875af11580156104e9573d6000803e3d6000fd5b505050506040513d601f19601f8201168201806040525081019061050d9190610b89565b505b60005b82518110156105dc576001600160a01b037f0000000000000000000000000000000000000000000000000000000000000000166342842e0e338886858151811061055e5761055e610bab565b60209081029190910101516040516001600160e01b031960e086901b1681526001600160a01b0393841660048201529290911660248301526044820152606401600060405180830381600087803b1580156105b857600080fd5b505af11580156105cc573d6000803e3d6000fd5b5050600190920191506105129050565b507f040e04ba083fcc5d428735784fbd0db4fd9a534eb5f80f6afd02a8090329de618660405161060c9190610bc1565b60405180910390a1505050505050565b6103a08133610875565b600061063283836103d5565b6106b0576000838152602081815260408083206001600160a01b03861684529091529020805460ff191660011790556106683390565b6001600160a01b0316826001600160a01b0316847f2f8788117e7eff1d82e926ec794901d17c78024a50270940304540a733656f0d60405160405180910390a45060016102da565b5060006102da565b60006106c483836103d5565b156106b0576000838152602081815260408083206001600160a01b0386168085529252808320805460ff1916905551339286917ff6391f5c32d9c69d2a47ea670b442974b53935d1edc7fd64eb21e047a839171b9190a45060016102da565b61072b6108b2565b6001805460ff191690557f5db9ee0a495bf2e6ff9c91a7834c1ba4fdd244a5e8aa4e537bd38aeae4b073aa335b6040516001600160a01b03909116815260200160405180910390a1565b61077d6107b0565b6001805460ff1916811790557f62e78cea01bee320cd4e420270b5ea74000d11b0c9f74754ebdbfc544b05a25833610758565b60015460ff16156107d45760405163d93c066560e01b815260040160405180910390fd5b565b6107df816102e0565b156108405760405162461bcd60e51b815260206004820152602660248201527f446973747269627574696f6e4d616e616765723a20554944206d75737420626560448201526510333932b29760d11b60648201526084015b60405180910390fd5b60016002826040516108529190610b6d565b908152604051908190036020019020805491151560ff1990921691909117905550565b61087f82826103d5565b6108ae5760405163e2517d3f60e01b81526001600160a01b038216600482015260248101839052604401610837565b5050565b60015460ff166107d457604051638dfc202b60e01b815260040160405180910390fd5b6000602082840312156108e757600080fd5b81356001600160e01b0319811681146108ff57600080fd5b9392505050565b634e487b7160e01b600052604160045260246000fd5b604051601f8201601f1916810167ffffffffffffffff8111828210171561094557610945610906565b604052919050565b600082601f83011261095e57600080fd5b813567ffffffffffffffff81111561097857610978610906565b61098b601f8201601f191660200161091c565b8181528460208386010111156109a057600080fd5b816020850160208301376000918101602001919091529392505050565b6000602082840312156109cf57600080fd5b813567ffffffffffffffff8111156109e657600080fd5b6109f28482850161094d565b949350505050565b600060208284031215610a0c57600080fd5b5035919050565b80356001600160a01b0381168114610a2a57600080fd5b919050565b60008060408385031215610a4257600080fd5b82359150610a5260208401610a13565b90509250929050565b600080600080600060a08688031215610a7357600080fd5b853567ffffffffffffffff80821115610a8b57600080fd5b610a9789838a0161094d565b965060209150610aa8828901610a13565b95506040880135945060608801359350608088013581811115610aca57600080fd5b8801601f81018a13610adb57600080fd5b803582811115610aed57610aed610906565b8060051b9250610afe84840161091c565b818152928201840192848101908c851115610b1857600080fd5b928501925b84841015610b3657833582529285019290850190610b1d565b8096505050505050509295509295909350565b60005b83811015610b64578181015183820152602001610b4c565b50506000910152565b60008251610b7f818460208701610b49565b9190910192915050565b600060208284031215610b9b57600080fd5b815180151581146108ff57600080fd5b634e487b7160e01b600052603260045260246000fd5b6020815260008251806020840152610be0816040850160208701610b49565b601f01601f1916919091016040019291505056fea2646970667358221220bece79c51b2622c444854b21b15c9fa3c7d989990d4ba014cf684b7cd2935eb064736f6c634300081900330000000000000000000000009e3ca1edb50439a1d3fd4bce071fa50cb48c7a1b0000000000000000000000001fd6677e45f421f7afc457f06d8ac73248137125",
        "nonce": "0x4b",
        "chainId": "0x13882"
      },
      "additionalContracts": [],
      "isFixedGasLimit": false
    },
    {
      "hash": "0xc098932ed10152c72bd62771c9b24a8ed93df5ac5807b292b7a0325bc9060e50",
      "transactionType": "CALL",
      "contractName": "DistributionManager",
      "contractAddress": "0xd4038f7ad18762ed124e54ff54ae2d929519f30c",
      "function": "grantRole(bytes32,address)",
      "arguments": [
        "0x0000000000000000000000000000000000000000000000000000000000000000",
        "0xC988583e215703F84519E6D3e724b9D66d0C5B3a"
      ],
      "transaction": {
        "from": "0x6914549f76c1b669e6b5ea070e10954b0a7ba235",
        "to": "0xd4038f7ad18762ed124e54ff54ae2d929519f30c",
        "gas": "0x1243b",
        "value": "0x0",
        "input": "0x2f2ff15d0000000000000000000000000000000000000000000000000000000000000000000000000000000000000000c988583e215703f84519e6d3e724b9d66d0c5b3a",
        "nonce": "0x4c",
        "chainId": "0x13882"
      },
      "additionalContracts": [],
      "isFixedGasLimit": false
    },
    {
      "hash": "0x03ca5103a651cfe8a6d1172212f29cd3a8e407bb5b29c38edddc87bd03a9782b",
      "transactionType": "CALL",
      "contractName": "DistributionManager",
      "contractAddress": "0xd4038f7ad18762ed124e54ff54ae2d929519f30c",
      "function": "grantRole(bytes32,address)",
      "arguments": [
        "0x65d7a28e3265b37a6474929f336521b332c1681b933f6cb9f3376673440d862a",
        "0xC988583e215703F84519E6D3e724b9D66d0C5B3a"
      ],
      "transaction": {
        "from": "0x6914549f76c1b669e6b5ea070e10954b0a7ba235",
        "to": "0xd4038f7ad18762ed124e54ff54ae2d929519f30c",
        "gas": "0x1266c",
        "value": "0x0",
        "input": "0x2f2ff15d65d7a28e3265b37a6474929f336521b332c1681b933f6cb9f3376673440d862a000000000000000000000000c988583e215703f84519e6d3e724b9d66d0c5b3a",
        "nonce": "0x4d",
        "chainId": "0x13882"
      },
      "additionalContracts": [],
      "isFixedGasLimit": false
    },
    {
      "hash": "0x054fb5b200394114c8b2ed273251d9656a660465a9064cf696861a9dd6d75d85",
      "transactionType": "CALL",
      "contractName": "DistributionManager",
      "contractAddress": "0xd4038f7ad18762ed124e54ff54ae2d929519f30c",
      "function": "grantRole(bytes32,address)",
      "arguments": [
        "0xfbd454f36a7e1a388bd6fc3ab10d434aa4578f811acbbcf33afb1c697486313c",
        "0x636BfB437750D4C8C3EE6965D45F4491A1273a74"
      ],
      "transaction": {
        "from": "0x6914549f76c1b669e6b5ea070e10954b0a7ba235",
        "to": "0xd4038f7ad18762ed124e54ff54ae2d929519f30c",
        "gas": "0x1266c",
        "value": "0x0",
        "input": "0x2f2ff15dfbd454f36a7e1a388bd6fc3ab10d434aa4578f811acbbcf33afb1c697486313c000000000000000000000000636bfb437750d4c8c3ee6965d45f4491a1273a74",
        "nonce": "0x4e",
        "chainId": "0x13882"
      },
      "additionalContracts": [],
      "isFixedGasLimit": false
    },
    {
      "hash": "0x97525a6cbf82188101aafcdce3b4a6cc52ee5dfcab98117b1a5475e3a248e9c8",
      "transactionType": "CALL",
      "contractName": "DistributionManager",
      "contractAddress": "0xd4038f7ad18762ed124e54ff54ae2d929519f30c",
      "function": "revokeRole(bytes32,address)",
      "arguments": [
        "0x0000000000000000000000000000000000000000000000000000000000000000",
        "0x6914549F76c1B669E6b5ea070E10954B0A7bA235"
      ],
      "transaction": {
        "from": "0x6914549f76c1b669e6b5ea070e10954b0a7ba235",
        "to": "0xd4038f7ad18762ed124e54ff54ae2d929519f30c",
        "gas": "0x9af1",
        "value": "0x0",
        "input": "0xd547741f00000000000000000000000000000000000000000000000000000000000000000000000000000000000000006914549f76c1b669e6b5ea070e10954b0a7ba235",
        "nonce": "0x4f",
        "chainId": "0x13882"
      },
      "additionalContracts": [],
      "isFixedGasLimit": false
    },
    {
      "hash": "0xdcfc43e15f8e3983f6610e6178d0ca124f00a2d139e1f2e37e00a4363a8949d7",
      "transactionType": "CALL",
      "contractName": null,
      "contractAddress": "0x9e3ca1edb50439a1d3fd4bce071fa50cb48c7a1b",
      "function": "approve(address,uint256)",
      "arguments": [
        "0xd4038F7ad18762Ed124E54fF54aE2d929519f30c",
        "115792089237316195423570985008687907853269984665640564039457584007913129639935"
      ],
      "transaction": {
        "from": "0x636bfb437750d4c8c3ee6965d45f4491a1273a74",
        "to": "0x9e3ca1edb50439a1d3fd4bce071fa50cb48c7a1b",
        "gas": "0x10a74",
        "value": "0x0",
        "input": "0x095ea7b3000000000000000000000000d4038f7ad18762ed124e54ff54ae2d929519f30cffffffffffffffffffffffffffffffffffffffffffffffffffffffffffffffff",
        "nonce": "0x0",
        "chainId": "0x13882"
      },
      "additionalContracts": [],
      "isFixedGasLimit": false
    },
    {
      "hash": "0x8d2c4220aa448dbcf4cf474b394f0f536e866356d5d19e6d8e40182c7f42e0cc",
      "transactionType": "CALL",
      "contractName": null,
      "contractAddress": "0x1fd6677e45f421f7afc457f06d8ac73248137125",
      "function": "setApprovalForAll(address,bool)",
      "arguments": [
        "0xd4038F7ad18762Ed124E54fF54aE2d929519f30c",
        "true"
      ],
      "transaction": {
        "from": "0x636bfb437750d4c8c3ee6965d45f4491a1273a74",
        "to": "0x1fd6677e45f421f7afc457f06d8ac73248137125",
        "gas": "0xf960",
        "value": "0x0",
        "input": "0xa22cb465000000000000000000000000d4038f7ad18762ed124e54ff54ae2d929519f30c0000000000000000000000000000000000000000000000000000000000000001",
        "nonce": "0x1",
        "chainId": "0x13882"
      },
      "additionalContracts": [],
      "isFixedGasLimit": false
    }
  ],
  "receipts": [
    {
      "status": "0x1",
      "cumulativeGasUsed": "0xb91da",
      "logs": [
        {
          "address": "0xd4038f7ad18762ed124e54ff54ae2d929519f30c",
          "topics": [
            "0x2f8788117e7eff1d82e926ec794901d17c78024a50270940304540a733656f0d",
            "0x0000000000000000000000000000000000000000000000000000000000000000",
            "0x0000000000000000000000006914549f76c1b669e6b5ea070e10954b0a7ba235",
            "0x0000000000000000000000006914549f76c1b669e6b5ea070e10954b0a7ba235"
          ],
          "data": "0x",
          "blockHash": "0x3e24aed6d2d3da9376d514f93be53afe9b0ad75ca8e45ff0abac3ed2931bd97c",
          "blockNumber": "0x74809b",
          "transactionHash": "0x9b99e6faee4529b9b7cac0c6bc3df56334f6ae5467301e20f28cdc157bf27544",
          "transactionIndex": "0x0",
          "logIndex": "0x0",
          "removed": false
        },
        {
          "address": "0x0000000000000000000000000000000000001010",
          "topics": [
            "0x4dfe1bbbcf077ddc3e01291eea2d5c70c2b422b415d95645b9adcfd678cb1d63",
            "0x0000000000000000000000000000000000000000000000000000000000001010",
            "0x0000000000000000000000006914549f76c1b669e6b5ea070e10954b0a7ba235",
            "0x000000000000000000000000bb583a9dde59ca64aaa14807f37a4c665c0d72c7"
          ],
          "data": "0x00000000000000000000000000000000000000000000000000056338387408000000000000000000000000000000000000000000000000022eb9a27eb17b50aa0000000000000000000000000000000000000000000000697525bfc887d227320000000000000000000000000000000000000000000000022eb43f46790748aa000000000000000000000000000000000000000000000069752b2300c0462f32",
          "blockHash": "0x3e24aed6d2d3da9376d514f93be53afe9b0ad75ca8e45ff0abac3ed2931bd97c",
          "blockNumber": "0x74809b",
          "transactionHash": "0x9b99e6faee4529b9b7cac0c6bc3df56334f6ae5467301e20f28cdc157bf27544",
          "transactionIndex": "0x0",
          "logIndex": "0x1",
          "removed": false
        }
      ],
      "logsBloom": "0x00000804000000000000000000000000000000000000000000000000000000000000000000000000002000000000000000008000000000000000000008000000000000200000000000000000000000800000000000000000000100020000000000000000020000000000000000000800000000000000000080000000000000000000000000000000000000000000000000000000000000000008000000000000208000000000000000000000000000000000000000000000001000000000004000000000000000000001000000000000000000000000000100100000010020000000000000000000000000000000000000000000008000000000000000100000",
      "type": "0x2",
      "transactionHash": "0x9b99e6faee4529b9b7cac0c6bc3df56334f6ae5467301e20f28cdc157bf27544",
      "transactionIndex": "0x0",
      "blockHash": "0x3e24aed6d2d3da9376d514f93be53afe9b0ad75ca8e45ff0abac3ed2931bd97c",
      "blockNumber": "0x74809b",
      "gasUsed": "0xb91da",
      "effectiveGasPrice": "0x7735940f",
      "from": "0x6914549f76c1b669e6b5ea070e10954b0a7ba235",
      "to": null,
      "contractAddress": "0xd4038f7ad18762ed124e54ff54ae2d929519f30c"
    },
    {
      "status": "0x1",
      "cumulativeGasUsed": "0xc7d1",
      "logs": [
        {
          "address": "0xd4038f7ad18762ed124e54ff54ae2d929519f30c",
          "topics": [
            "0x2f8788117e7eff1d82e926ec794901d17c78024a50270940304540a733656f0d",
            "0x0000000000000000000000000000000000000000000000000000000000000000",
            "0x000000000000000000000000c988583e215703f84519e6d3e724b9d66d0c5b3a",
            "0x0000000000000000000000006914549f76c1b669e6b5ea070e10954b0a7ba235"
          ],
          "data": "0x",
          "blockHash": "0x405466e4524ff3b5caff322d0f856339729d203d3e9a69a96e69391af6f500df",
          "blockNumber": "0x74809f",
          "transactionHash": "0xc098932ed10152c72bd62771c9b24a8ed93df5ac5807b292b7a0325bc9060e50",
          "transactionIndex": "0x0",
          "logIndex": "0x0",
          "removed": false
        },
        {
          "address": "0x0000000000000000000000000000000000001010",
          "topics": [
            "0x4dfe1bbbcf077ddc3e01291eea2d5c70c2b422b415d95645b9adcfd678cb1d63",
            "0x0000000000000000000000000000000000000000000000000000000000001010",
            "0x0000000000000000000000006914549f76c1b669e6b5ea070e10954b0a7ba235",
            "0x000000000000000000000000bb583a9dde59ca64aaa14807f37a4c665c0d72c7"
          ],
          "data": "0x00000000000000000000000000000000000000000000000000005d0bf8c9d4000000000000000000000000000000000000000000000000022eb43f467859bce4000000000000000000000000000000000000000000000069752b3fa8503663320000000000000000000000000000000000000000000000022eb3e23a7f8fe8e4000000000000000000000000000000000000000000000069752b9cb449003732",
          "blockHash": "0x405466e4524ff3b5caff322d0f856339729d203d3e9a69a96e69391af6f500df",
          "blockNumber": "0x74809f",
          "transactionHash": "0xc098932ed10152c72bd62771c9b24a8ed93df5ac5807b292b7a0325bc9060e50",
          "transactionIndex": "0x0",
          "logIndex": "0x1",
          "removed": false
        }
      ],
      "logsBloom": "0x00000804000000000000000000000000000000000000000000000000000000000000000000000000002000000000000000008000000000000000000008000000000000200000000000000000000000800000000000000000000100020000000000000000220000000000000000000800000000000000000080020000000000000000000000000000000000000000000000000000000000000008000000000000208000000000000000000000000000000000000000000000001000000000004000000000000000000001000000000000020000000000000100100000010020000000000000000000000000000000000000000000008000000000000000100000",
      "type": "0x2",
      "transactionHash": "0xc098932ed10152c72bd62771c9b24a8ed93df5ac5807b292b7a0325bc9060e50",
      "transactionIndex": "0x0",
      "blockHash": "0x405466e4524ff3b5caff322d0f856339729d203d3e9a69a96e69391af6f500df",
      "blockNumber": "0x74809f",
      "gasUsed": "0xc7d1",
      "effectiveGasPrice": "0x7735940f",
      "from": "0x6914549f76c1b669e6b5ea070e10954b0a7ba235",
      "to": "0xd4038f7ad18762ed124e54ff54ae2d929519f30c",
      "contractAddress": null
    },
    {
      "status": "0x1",
      "cumulativeGasUsed": "0x3d939",
      "logs": [
        {
          "address": "0xd4038f7ad18762ed124e54ff54ae2d929519f30c",
          "topics": [
            "0x2f8788117e7eff1d82e926ec794901d17c78024a50270940304540a733656f0d",
            "0x65d7a28e3265b37a6474929f336521b332c1681b933f6cb9f3376673440d862a",
            "0x000000000000000000000000c988583e215703f84519e6d3e724b9d66d0c5b3a",
            "0x0000000000000000000000006914549f76c1b669e6b5ea070e10954b0a7ba235"
          ],
          "data": "0x",
          "blockHash": "0xfcd9f035dedeaf04b1830db5fe3c4b71d519655306f0c43a2f2f400426464961",
          "blockNumber": "0x7480a1",
          "transactionHash": "0x03ca5103a651cfe8a6d1172212f29cd3a8e407bb5b29c38edddc87bd03a9782b",
          "transactionIndex": "0x1",
          "logIndex": "0x3",
          "removed": false
        },
        {
          "address": "0x0000000000000000000000000000000000001010",
          "topics": [
            "0x4dfe1bbbcf077ddc3e01291eea2d5c70c2b422b415d95645b9adcfd678cb1d63",
            "0x0000000000000000000000000000000000000000000000000000000000001010",
            "0x0000000000000000000000006914549f76c1b669e6b5ea070e10954b0a7ba235",
            "0x0000000000000000000000004631753190f2f5a15a7ba172bbac102b7d95fa22"
          ],
          "data": "0x00000000000000000000000000000000000000000000000000005dbec927d4000000000000000000000000000000000000000000000000022eb3e23a7f8433a500000000000000000000000000000000000000000000007d5068ddf0a8a97d7a0000000000000000000000000000000000000000000000022eb3847bb65c5fa500000000000000000000000000000000000000000000007d50693baf71d1517a",
          "blockHash": "0xfcd9f035dedeaf04b1830db5fe3c4b71d519655306f0c43a2f2f400426464961",
          "blockNumber": "0x7480a1",
          "transactionHash": "0x03ca5103a651cfe8a6d1172212f29cd3a8e407bb5b29c38edddc87bd03a9782b",
          "transactionIndex": "0x1",
          "logIndex": "0x4",
          "removed": false
        }
      ],
      "logsBloom": "0x00000804000000000000000000000000000000002000000000000000000000000000000000000000000000000000000000008000000000000000000048000000000000200000000000000000000000800000000000000000000100020000000000000000200000100000000000000000000000000000000080020000000000000000000000000000000000000000008000000000000000000000000000000000200000000000000000000000000000000000000000000000001000000000004000000000000000000001000000000000020000000000000100102000010000000000000000000000000000000000000000000400008000000000000000100000",
      "type": "0x2",
      "transactionHash": "0x03ca5103a651cfe8a6d1172212f29cd3a8e407bb5b29c38edddc87bd03a9782b",
      "transactionIndex": "0x1",
      "blockHash": "0xfcd9f035dedeaf04b1830db5fe3c4b71d519655306f0c43a2f2f400426464961",
      "blockNumber": "0x7480a1",
      "gasUsed": "0xc951",
      "effectiveGasPrice": "0x7735940f",
      "from": "0x6914549f76c1b669e6b5ea070e10954b0a7ba235",
      "to": "0xd4038f7ad18762ed124e54ff54ae2d929519f30c",
      "contractAddress": null
    },
    {
      "status": "0x1",
      "cumulativeGasUsed": "0x2b819",
      "logs": [
        {
          "address": "0xd4038f7ad18762ed124e54ff54ae2d929519f30c",
          "topics": [
            "0x2f8788117e7eff1d82e926ec794901d17c78024a50270940304540a733656f0d",
            "0xfbd454f36a7e1a388bd6fc3ab10d434aa4578f811acbbcf33afb1c697486313c",
            "0x000000000000000000000000636bfb437750d4c8c3ee6965d45f4491a1273a74",
            "0x0000000000000000000000006914549f76c1b669e6b5ea070e10954b0a7ba235"
          ],
          "data": "0x",
          "blockHash": "0x7fb137210bcbb1ec7a7328f2d48e6e285f02bc339bee6de7c7642132af85a215",
          "blockNumber": "0x7480a5",
          "transactionHash": "0x054fb5b200394114c8b2ed273251d9656a660465a9064cf696861a9dd6d75d85",
          "transactionIndex": "0x1",
          "logIndex": "0x4",
          "removed": false
        },
        {
          "address": "0x0000000000000000000000000000000000001010",
          "topics": [
            "0x4dfe1bbbcf077ddc3e01291eea2d5c70c2b422b415d95645b9adcfd678cb1d63",
            "0x0000000000000000000000000000000000000000000000000000000000001010",
            "0x0000000000000000000000006914549f76c1b669e6b5ea070e10954b0a7ba235",
            "0x0000000000000000000000004631753190f2f5a15a7ba172bbac102b7d95fa22"
          ],
          "data": "0x00000000000000000000000000000000000000000000000000005dbec927d4000000000000000000000000000000000000000000000000022eb3847bb65093e600000000000000000000000000000000000000000000007d50725d8c02d7357a0000000000000000000000000000000000000000000000022eb326bced28bfe600000000000000000000000000000000000000000000007d5072bb4acbff097a",
          "blockHash": "0x7fb137210bcbb1ec7a7328f2d48e6e285f02bc339bee6de7c7642132af85a215",
          "blockNumber": "0x7480a5",
          "transactionHash": "0x054fb5b200394114c8b2ed273251d9656a660465a9064cf696861a9dd6d75d85",
          "transactionIndex": "0x1",
          "logIndex": "0x5",
          "removed": false
        }
      ],
      "logsBloom": "0x00000804000000000000000000000000000000002000000000000000000000000000000000000000000000000000000010008000000000000000000048000000000000200000000000008000000000800000000000000000000100020000000000000000000000100000000000000000000000000000000080000000000000000000000000000000000000000000000080000000000004000000000000000000200000000000000000000000000000000000000000000000001000000000004000000000000000000001000000000004000000000000000100100000010000000000000000000000010000000000000000000000008000000000000000100000",
      "type": "0x2",
      "transactionHash": "0x054fb5b200394114c8b2ed273251d9656a660465a9064cf696861a9dd6d75d85",
      "transactionIndex": "0x1",
      "blockHash": "0x7fb137210bcbb1ec7a7328f2d48e6e285f02bc339bee6de7c7642132af85a215",
      "blockNumber": "0x7480a5",
      "gasUsed": "0xc951",
      "effectiveGasPrice": "0x7735940f",
      "from": "0x6914549f76c1b669e6b5ea070e10954b0a7ba235",
      "to": "0xd4038f7ad18762ed124e54ff54ae2d929519f30c",
      "contractAddress": null
    },
    {
      "status": "0x1",
      "cumulativeGasUsed": "0x69f2",
      "logs": [
        {
          "address": "0xd4038f7ad18762ed124e54ff54ae2d929519f30c",
          "topics": [
            "0xf6391f5c32d9c69d2a47ea670b442974b53935d1edc7fd64eb21e047a839171b",
            "0x0000000000000000000000000000000000000000000000000000000000000000",
            "0x0000000000000000000000006914549f76c1b669e6b5ea070e10954b0a7ba235",
            "0x0000000000000000000000006914549f76c1b669e6b5ea070e10954b0a7ba235"
          ],
          "data": "0x",
          "blockHash": "0x57c28a21006fd3410ebcaf175a397a2e516d6c3bbd95130437bf4864c2af7d30",
          "blockNumber": "0x7480a9",
          "transactionHash": "0x97525a6cbf82188101aafcdce3b4a6cc52ee5dfcab98117b1a5475e3a248e9c8",
          "transactionIndex": "0x0",
          "logIndex": "0x0",
          "removed": false
        },
        {
          "address": "0x0000000000000000000000000000000000001010",
          "topics": [
            "0x4dfe1bbbcf077ddc3e01291eea2d5c70c2b422b415d95645b9adcfd678cb1d63",
            "0x0000000000000000000000000000000000000000000000000000000000001010",
            "0x0000000000000000000000006914549f76c1b669e6b5ea070e10954b0a7ba235",
            "0x0000000000000000000000004631753190f2f5a15a7ba172bbac102b7d95fa22"
          ],
          "data": "0x00000000000000000000000000000000000000000000000000003155aa59e8000000000000000000000000000000000000000000000000022eb326bced1cf42700000000000000000000000000000000000000000000007d507ea658c35915c60000000000000000000000000000000000000000000000022eb2f56742c30c2700000000000000000000000000000000000000000000007d507ed7ae6db2fdc6",
          "blockHash": "0x57c28a21006fd3410ebcaf175a397a2e516d6c3bbd95130437bf4864c2af7d30",
          "blockNumber": "0x7480a9",
          "transactionHash": "0x97525a6cbf82188101aafcdce3b4a6cc52ee5dfcab98117b1a5475e3a248e9c8",
          "transactionIndex": "0x0",
          "logIndex": "0x1",
          "removed": false
        }
      ],
      "logsBloom": "0x00000800000000000000000000000000000000002000000000000000000000000000000000000000000000000000000000208000000000000000000048000000000000200000000000000000000000800000000000000000000100020000000040000000020000100000000000000800000000000000000080000000000000000000000040000000000000000000000000000000000000000000000000000000200000000000000000000000000000000000000000000000000000000000004000000000000000000001000000000000000000000000000000100000010020000000000000000000000000000000000000000000008000000000000000100000",
      "type": "0x2",
      "transactionHash": "0x97525a6cbf82188101aafcdce3b4a6cc52ee5dfcab98117b1a5475e3a248e9c8",
      "transactionIndex": "0x0",
      "blockHash": "0x57c28a21006fd3410ebcaf175a397a2e516d6c3bbd95130437bf4864c2af7d30",
      "blockNumber": "0x7480a9",
      "gasUsed": "0x69f2",
      "effectiveGasPrice": "0x7735940f",
      "from": "0x6914549f76c1b669e6b5ea070e10954b0a7ba235",
      "to": "0xd4038f7ad18762ed124e54ff54ae2d929519f30c",
      "contractAddress": null
    },
    {
      "status": "0x1",
      "cumulativeGasUsed": "0xb631",
      "logs": [
        {
          "address": "0x9e3ca1edb50439a1d3fd4bce071fa50cb48c7a1b",
          "topics": [
            "0x8c5be1e5ebec7d5bd14f71427d1e84f3dd0314c0f7b2291e5b200ac8c7c3b925",
            "0x000000000000000000000000636bfb437750d4c8c3ee6965d45f4491a1273a74",
            "0x000000000000000000000000d4038f7ad18762ed124e54ff54ae2d929519f30c"
          ],
          "data": "0xffffffffffffffffffffffffffffffffffffffffffffffffffffffffffffffff",
          "blockHash": "0xf7c00564aee8da5450fe174c90676bce1fef21b3e15c3e32af3ea0852617d8ab",
          "blockNumber": "0x7480ac",
          "transactionHash": "0xdcfc43e15f8e3983f6610e6178d0ca124f00a2d139e1f2e37e00a4363a8949d7",
          "transactionIndex": "0x0",
          "logIndex": "0x0",
          "removed": false
        },
        {
          "address": "0x0000000000000000000000000000000000001010",
          "topics": [
            "0x4dfe1bbbcf077ddc3e01291eea2d5c70c2b422b415d95645b9adcfd678cb1d63",
            "0x0000000000000000000000000000000000000000000000000000000000001010",
            "0x000000000000000000000000636bfb437750d4c8c3ee6965d45f4491a1273a74",
            "0x0000000000000000000000004631753190f2f5a15a7ba172bbac102b7d95fa22"
          ],
          "data": "0x000000000000000000000000000000000000000000000000000054d6e8795400000000000000000000000000000000000000000000000001158e460913d0000000000000000000000000000000000000000000000000007d50844e405a931dc6000000000000000000000000000000000000000000000001158df1322b56ac0000000000000000000000000000000000000000000000007d5084a317430c71c6",
          "blockHash": "0xf7c00564aee8da5450fe174c90676bce1fef21b3e15c3e32af3ea0852617d8ab",
          "blockNumber": "0x7480ac",
          "transactionHash": "0xdcfc43e15f8e3983f6610e6178d0ca124f00a2d139e1f2e37e00a4363a8949d7",
          "transactionIndex": "0x0",
          "logIndex": "0x1",
          "removed": false
        }
      ],
      "logsBloom": "0x00000000010000000000000000000000008000002000000000000000000000000000000000000000000000000000000010008000000000000000000040200000000000000000000000000000000000800000000000000000000100000004000000000000000000100000000000000000000000000000000080000000000000000002000000000000000000000000000000000000000004000000000000000000220000000000000000000000000000000000000000000000000000000000004000000000000000000001000000000000000100000000000000100000000000000010000000040000010000000000000000000000000000000000000000100000",
      "type": "0x2",
      "transactionHash": "0xdcfc43e15f8e3983f6610e6178d0ca124f00a2d139e1f2e37e00a4363a8949d7",
      "transactionIndex": "0x0",
      "blockHash": "0xf7c00564aee8da5450fe174c90676bce1fef21b3e15c3e32af3ea0852617d8ab",
      "blockNumber": "0x7480ac",
      "gasUsed": "0xb631",
      "effectiveGasPrice": "0x7735940f",
      "from": "0x636bfb437750d4c8c3ee6965d45f4491a1273a74",
      "to": "0x9e3ca1edb50439a1d3fd4bce071fa50cb48c7a1b",
      "contractAddress": null
    },
    {
      "status": "0x1",
      "cumulativeGasUsed": "0xb48c",
      "logs": [
        {
          "address": "0x1fd6677e45f421f7afc457f06d8ac73248137125",
          "topics": [
            "0x17307eab39ab6107e8899845ad3d59bd9653f200f220920489ca2b5937696c31",
            "0x000000000000000000000000636bfb437750d4c8c3ee6965d45f4491a1273a74",
            "0x000000000000000000000000d4038f7ad18762ed124e54ff54ae2d929519f30c"
          ],
          "data": "0x0000000000000000000000000000000000000000000000000000000000000001",
          "blockHash": "0x2cf965b37ac44d0a3e71e8717b30106082bfa02d64564a4fd1bc2d9b1bb4c518",
          "blockNumber": "0x7480b0",
          "transactionHash": "0x8d2c4220aa448dbcf4cf474b394f0f536e866356d5d19e6d8e40182c7f42e0cc",
          "transactionIndex": "0x0",
          "logIndex": "0x0",
          "removed": false
        },
        {
          "address": "0x0000000000000000000000000000000000001010",
          "topics": [
            "0x4dfe1bbbcf077ddc3e01291eea2d5c70c2b422b415d95645b9adcfd678cb1d63",
            "0x0000000000000000000000000000000000000000000000000000000000001010",
            "0x000000000000000000000000636bfb437750d4c8c3ee6965d45f4491a1273a74",
            "0x000000000000000000000000033aaded92ebfec6c818624f28a8e4b3c571ab6f"
          ],
          "data": "0x00000000000000000000000000000000000000000000000000005412dd5cf000000000000000000000000000000000000000000000000001158df1322b4bff2100000000000000000000000000000000000000000000001a4fcfb39b1e2b5a72000000000000000000000000000000000000000000000001158d9d1f4def0f2100000000000000000000000000000000000000000000001a4fd007adfb884a72",
          "blockHash": "0x2cf965b37ac44d0a3e71e8717b30106082bfa02d64564a4fd1bc2d9b1bb4c518",
          "blockNumber": "0x7480b0",
          "transactionHash": "0x8d2c4220aa448dbcf4cf474b394f0f536e866356d5d19e6d8e40182c7f42e0cc",
          "transactionIndex": "0x0",
          "logIndex": "0x1",
          "removed": false
        }
      ],
      "logsBloom": "0x00000000000000000000000000000000008000000000000020000000000000000000000000000000000000000000000010008000000000000000000000000010000000000000000000000000000000800000000000000000000100000004000002080000000000000000000000000000000000000000000080000000000000000000010000000000000000000000000000000000000004000000000000000000200000000000000000000000000000000000000000000000000000000000004000000000000000000001000000000000000100000000000000500000000000000000200800000000010000000000000000000000400000000000000000100000",
      "type": "0x2",
      "transactionHash": "0x8d2c4220aa448dbcf4cf474b394f0f536e866356d5d19e6d8e40182c7f42e0cc",
      "transactionIndex": "0x0",
      "blockHash": "0x2cf965b37ac44d0a3e71e8717b30106082bfa02d64564a4fd1bc2d9b1bb4c518",
      "blockNumber": "0x7480b0",
      "gasUsed": "0xb48c",
      "effectiveGasPrice": "0x7735940f",
      "from": "0x636bfb437750d4c8c3ee6965d45f4491a1273a74",
      "to": "0x1fd6677e45f421f7afc457f06d8ac73248137125",
      "contractAddress": null
    }
  ],
  "libraries": [],
  "pending": [],
  "returns": {},
  "timestamp": 1717001371,
  "chain": 80002,
  "commit": "e0aa6f9"
}