{
  "transactions": [
    {
      "hash": "0x62be2d2bc3957c1c4b4b247f9309d835eaf7129e95b1d5fba3c2bb6557712f1e",
      "transactionType": "CREATE",
      "contractName": "NFT",
      "contractAddress": "0xf9ee20ec8637cc0dc27edea4e54414e10d9f5c75",
      "function": null,
      "arguments": [
        "0",
        "\"Test\"",
        "\"TST\""
      ],
      "transaction": {
        "from": "0x6914549f76c1b669e6b5ea070e10954b0a7ba235",
        "gas": "0x21dc85",
        "value": "0x0",
        "input": "0x608060405234801561001057600080fd5b50604051611f59380380611f5983398101604081905261002f91610234565b8181600061003d838261032c565b50600161004a828261032c565b50506008805460ff191690555060098390556100676000336100c6565b506100927f154c00819833dac601ee5ddded6fda79d9d8b506b911b3dbd54cdb95fe6c3686336100c6565b506100bd7f65d7a28e3265b37a6474929f336521b332c1681b933f6cb9f3376673440d862a336100c6565b505050506103eb565b60008281526007602090815260408083206001600160a01b038516845290915281205460ff1661016c5760008381526007602090815260408083206001600160a01b03861684529091529020805460ff191660011790556101243390565b6001600160a01b0316826001600160a01b0316847f2f8788117e7eff1d82e926ec794901d17c78024a50270940304540a733656f0d60405160405180910390a4506001610170565b5060005b92915050565b634e487b7160e01b600052604160045260246000fd5b600082601f83011261019d57600080fd5b81516001600160401b03808211156101b7576101b7610176565b604051601f8301601f19908116603f011681019082821181831017156101df576101df610176565b81604052838152602092508660208588010111156101fc57600080fd5b600091505b8382101561021e5785820183015181830184015290820190610201565b6000602085830101528094505050505092915050565b60008060006060848603121561024957600080fd5b835160208501519093506001600160401b038082111561026857600080fd5b6102748783880161018c565b9350604086015191508082111561028a57600080fd5b506102978682870161018c565b9150509250925092565b600181811c908216806102b557607f821691505b6020821081036102d557634e487b7160e01b600052602260045260246000fd5b50919050565b601f821115610327576000816000526020600020601f850160051c810160208610156103045750805b601f850160051c820191505b8181101561032357828155600101610310565b5050505b505050565b81516001600160401b0381111561034557610345610176565b6103598161035384546102a1565b846102db565b602080601f83116001811461038e57600084156103765750858301515b600019600386901b1c1916600185901b178555610323565b600085815260208120601f198616915b828110156103bd5788860151825594840194600190910190840161039e565b50858210156103db5787850151600019600388901b60f8161c191681555b5050505050600190811b01905550565b611b5f806103fa6000396000f3fe608060405234801561001057600080fd5b50600436106101c45760003560e01c80638456cb59116100f9578063c87b56dd11610097578063d737d0c711610071578063d737d0c7146103ac578063e63ab1e9146103b2578063e985e9c5146103d9578063e9a9c850146103ec57600080fd5b8063c87b56dd14610373578063d204c45e14610386578063d547741f1461039957600080fd5b8063a217fddf116100d3578063a217fddf14610332578063a22cb4651461033a578063b88d4fde1461034d578063bee93ca61461036057600080fd5b80638456cb591461030f57806391d148541461031757806395d89b411461032a57600080fd5b806336568abe1161016657806355f804b31161014057806355f804b3146102cb5780635c975abb146102de5780636352211e146102e957806370a08231146102fc57600080fd5b806336568abe1461029d5780633f4ba83a146102b057806342842e0e146102b857600080fd5b8063095ea7b3116101a2578063095ea7b31461023157806323b872dd14610246578063248a9ca3146102595780632f2ff15d1461028a57600080fd5b806301ffc9a7146101c957806306fdde03146101f1578063081812fc14610206575b600080fd5b6101dc6101d7366004611429565b610413565b60405190151581526020015b60405180910390f35b6101f9610433565b6040516101e89190611496565b6102196102143660046114a9565b6104c5565b6040516001600160a01b0390911681526020016101e8565b61024461023f3660046114de565b6104ee565b005b610244610254366004611508565b6104fd565b61027c6102673660046114a9565b60009081526007602052604090206001015490565b6040519081526020016101e8565b610244610298366004611544565b61058d565b6102446102ab366004611544565b6105b2565b6102446105ea565b6102446102c6366004611508565b61061f565b6102446102d936600461162f565b61063a565b60085460ff166101dc565b6102196102f73660046114a9565b610651565b61027c61030a366004611664565b61065c565b6102446106a4565b6101dc610325366004611544565b6106d6565b6101f9610701565b61027c600081565b61024461034836600461167f565b610710565b61024461035b3660046116bb565b61071b565b61024461036e3660046117eb565b610732565b6101f96103813660046114a9565b61081a565b6102446103943660046118ab565b61091e565b6102446103a7366004611544565b610975565b33610219565b61027c7f65d7a28e3265b37a6474929f336521b332c1681b933f6cb9f3376673440d862a81565b6101dc6103e73660046118ef565b61099a565b61027c7f154c00819833dac601ee5ddded6fda79d9d8b506b911b3dbd54cdb95fe6c368681565b600061041e826109c8565b8061042d575061042d82610a18565b92915050565b60606000805461044290611919565b80601f016020809104026020016040519081016040528092919081815260200182805461046e90611919565b80156104bb5780601f10610490576101008083540402835291602001916104bb565b820191906000526020600020905b81548152906001019060200180831161049e57829003601f168201915b5050505050905090565b60006104d082610a3d565b506000828152600460205260409020546001600160a01b031661042d565b6104f9828233610a76565b5050565b6001600160a01b03821661052c57604051633250574960e11b8152600060048201526024015b60405180910390fd5b6000610539838333610a83565b9050836001600160a01b0316816001600160a01b031614610587576040516364283d7b60e01b81526001600160a01b0380861660048301526024820184905282166044820152606401610523565b50505050565b6000828152600760205260409020600101546105a881610b7c565b6105878383610b86565b6001600160a01b03811633146105db5760405163334bd91960e11b815260040160405180910390fd5b6105e58282610c1a565b505050565b7f65d7a28e3265b37a6474929f336521b332c1681b933f6cb9f3376673440d862a61061481610b7c565b61061c610c87565b50565b6105e58383836040518060200160405280600081525061071b565b600061064581610b7c565b600a6105e583826119a3565b600061042d82610a3d565b60006001600160a01b038216610688576040516322718ad960e21b815260006004820152602401610523565b506001600160a01b031660009081526003602052604090205490565b7f65d7a28e3265b37a6474929f336521b332c1681b933f6cb9f3376673440d862a6106ce81610b7c565b61061c610cd9565b60009182526007602090815260408084206001600160a01b0393909316845291905290205460ff1690565b60606001805461044290611919565b6104f9338383610d16565b6107268484846104fd565b61058784848484610db5565b7f154c00819833dac601ee5ddded6fda79d9d8b506b911b3dbd54cdb95fe6c368661075c81610b7c565b81518351146107c25760405162461bcd60e51b815260206004820152602c60248201527f746f20616e6420697066734d6564617461555249206172726179206c656e677460448201526b0d040daeae6e840dac2e8c6d60a31b6064820152608401610523565b825160005b818110156108135761080b8582815181106107e4576107e4611a63565b60200260200101518583815181106107fe576107fe611a63565b602002602001015161091e565b6001016107c7565b5050505050565b606061082582610a3d565b506000828152600660205260408120805461083f90611919565b80601f016020809104026020016040519081016040528092919081815260200182805461086b90611919565b80156108b85780601f1061088d576101008083540402835291602001916108b8565b820191906000526020600020905b81548152906001019060200180831161089b57829003601f168201915b5050505050905060006108c9610ed7565b905080516000036108db575092915050565b81511561090d5780826040516020016108f5929190611a79565b60405160208183030381529060405292505050919050565b61091684610ee6565b949350505050565b7f154c00819833dac601ee5ddded6fda79d9d8b506b911b3dbd54cdb95fe6c368661094881610b7c565b6009805490600061095883611aa8565b919050555061096983600954610f4e565b6105e560095483610f68565b60008281526007602052604090206001015461099081610b7c565b6105878383610c1a565b6001600160a01b03918216600090815260056020908152604080832093909416825291909152205460ff1690565b60006001600160e01b031982166380ac58cd60e01b14806109f957506001600160e01b03198216635b5e139f60e01b145b8061042d57506301ffc9a760e01b6001600160e01b031983161461042d565b60006001600160e01b03198216637965db0b60e01b148061042d575061042d82610fb8565b6000818152600260205260408120546001600160a01b03168061042d57604051637e27328960e01b815260048101849052602401610523565b6105e58383836001610fdd565b6000828152600260205260408120546001600160a01b0390811690831615610ab057610ab08184866110e3565b6001600160a01b03811615610aee57610acd600085600080610fdd565b6001600160a01b038116600090815260036020526040902080546000190190555b6001600160a01b03851615610b1d576001600160a01b0385166000908152600360205260409020805460010190555b60008481526002602052604080822080546001600160a01b0319166001600160a01b0389811691821790925591518793918516917fddf252ad1be2c89b69c2b068fc378daa952ba7f163c4a11628f55a4df523b3ef91a4949350505050565b61061c8133611147565b6000610b9283836106d6565b610c125760008381526007602090815260408083206001600160a01b03861684529091529020805460ff19166001179055610bca3390565b6001600160a01b0316826001600160a01b0316847f2f8788117e7eff1d82e926ec794901d17c78024a50270940304540a733656f0d60405160405180910390a450600161042d565b50600061042d565b6000610c2683836106d6565b15610c125760008381526007602090815260408083206001600160a01b0386168085529252808320805460ff1916905551339286917ff6391f5c32d9c69d2a47ea670b442974b53935d1edc7fd64eb21e047a839171b9190a450600161042d565b610c8f611180565b6008805460ff191690557f5db9ee0a495bf2e6ff9c91a7834c1ba4fdd244a5e8aa4e537bd38aeae4b073aa335b6040516001600160a01b03909116815260200160405180910390a1565b610ce16111a5565b6008805460ff191660011790557f62e78cea01bee320cd4e420270b5ea74000d11b0c9f74754ebdbfc544b05a258610cbc3390565b6001600160a01b038216610d4857604051630b61174360e31b81526001600160a01b0383166004820152602401610523565b6001600160a01b03838116600081815260056020908152604080832094871680845294825291829020805460ff191686151590811790915591519182527f17307eab39ab6107e8899845ad3d59bd9653f200f220920489ca2b5937696c31910160405180910390a3505050565b6001600160a01b0383163b1561058757604051630a85bd0160e11b81526001600160a01b0384169063150b7a0290610df7903390889087908790600401611acf565b6020604051808303816000875af1925050508015610e32575060408051601f3d908101601f19168201909252610e2f91810190611b0c565b60015b610e9b573d808015610e60576040519150601f19603f3d011682016040523d82523d6000602084013e610e65565b606091505b508051600003610e9357604051633250574960e11b81526001600160a01b0385166004820152602401610523565b805181602001fd5b6001600160e01b03198116630a85bd0160e11b1461081357604051633250574960e11b81526001600160a01b0385166004820152602401610523565b6060600a805461044290611919565b6060610ef182610a3d565b506000610efc610ed7565b90506000815111610f1c5760405180602001604052806000815250610f47565b80610f26846111c9565b604051602001610f37929190611a79565b6040516020818303038152906040525b9392505050565b6104f982826040518060200160405280600081525061125c565b6000828152600660205260409020610f8082826119a3565b506040518281527ff8e1a15aba9398e019f0b49df1a4fde98ee17ae345cb5f6b5e2c27f5033e8ce79060200160405180910390a15050565b60006001600160e01b03198216632483248360e11b148061042d575061042d826109c8565b8080610ff157506001600160a01b03821615155b156110b357600061100184610a3d565b90506001600160a01b0383161580159061102d5750826001600160a01b0316816001600160a01b031614155b8015611040575061103e818461099a565b155b156110695760405163a9fbf51f60e01b81526001600160a01b0384166004820152602401610523565b81156110b15783856001600160a01b0316826001600160a01b03167f8c5be1e5ebec7d5bd14f71427d1e84f3dd0314c0f7b2291e5b200ac8c7c3b92560405160405180910390a45b505b5050600090815260046020526040902080546001600160a01b0319166001600160a01b0392909216919091179055565b6110ee838383611273565b6105e5576001600160a01b03831661111c57604051637e27328960e01b815260048101829052602401610523565b60405163177e802f60e01b81526001600160a01b038316600482015260248101829052604401610523565b61115182826106d6565b6104f95760405163e2517d3f60e01b81526001600160a01b038216600482015260248101839052604401610523565b60085460ff166111a357604051638dfc202b60e01b815260040160405180910390fd5b565b60085460ff16156111a35760405163d93c066560e01b815260040160405180910390fd5b606060006111d6836112d6565b600101905060008167ffffffffffffffff8111156111f6576111f6611570565b6040519080825280601f01601f191660200182016040528015611220576020820181803683370190505b5090508181016020015b600019016f181899199a1a9b1b9c1cb0b131b232b360811b600a86061a8153600a850494508461122a57509392505050565b61126683836113ae565b6105e56000848484610db5565b60006001600160a01b038316158015906109165750826001600160a01b0316846001600160a01b031614806112ad57506112ad848461099a565b806109165750506000908152600460205260409020546001600160a01b03908116911614919050565b60008072184f03e93ff9f4daa797ed6e38ed64bf6a1f0160401b83106113155772184f03e93ff9f4daa797ed6e38ed64bf6a1f0160401b830492506040015b6d04ee2d6d415b85acef81000000008310611341576d04ee2d6d415b85acef8100000000830492506020015b662386f26fc10000831061135f57662386f26fc10000830492506010015b6305f5e1008310611377576305f5e100830492506008015b612710831061138b57612710830492506004015b6064831061139d576064830492506002015b600a831061042d5760010192915050565b6001600160a01b0382166113d857604051633250574960e11b815260006004820152602401610523565b60006113e683836000610a83565b90506001600160a01b038116156105e5576040516339e3563760e11b815260006004820152602401610523565b6001600160e01b03198116811461061c57600080fd5b60006020828403121561143b57600080fd5b8135610f4781611413565b60005b83811015611461578181015183820152602001611449565b50506000910152565b60008151808452611482816020860160208601611446565b601f01601f19169290920160200192915050565b602081526000610f47602083018461146a565b6000602082840312156114bb57600080fd5b5035919050565b80356001600160a01b03811681146114d957600080fd5b919050565b600080604083850312156114f157600080fd5b6114fa836114c2565b946020939093013593505050565b60008060006060848603121561151d57600080fd5b611526846114c2565b9250611534602085016114c2565b9150604084013590509250925092565b6000806040838503121561155757600080fd5b82359150611567602084016114c2565b90509250929050565b634e487b7160e01b600052604160045260246000fd5b604051601f8201601f1916810167ffffffffffffffff811182821017156115af576115af611570565b604052919050565b600067ffffffffffffffff8311156115d1576115d1611570565b6115e4601f8401601f1916602001611586565b90508281528383830111156115f857600080fd5b828260208301376000602084830101529392505050565b600082601f83011261162057600080fd5b610f47838335602085016115b7565b60006020828403121561164157600080fd5b813567ffffffffffffffff81111561165857600080fd5b6109168482850161160f565b60006020828403121561167657600080fd5b610f47826114c2565b6000806040838503121561169257600080fd5b61169b836114c2565b9150602083013580151581146116b057600080fd5b809150509250929050565b600080600080608085870312156116d157600080fd5b6116da856114c2565b93506116e8602086016114c2565b925060408501359150606085013567ffffffffffffffff81111561170b57600080fd5b8501601f8101871361171c57600080fd5b61172b878235602084016115b7565b91505092959194509250565b600067ffffffffffffffff82111561175157611751611570565b5060051b60200190565b600082601f83011261176c57600080fd5b8135602061178161177c83611737565b611586565b82815260059290921b840181019181810190868411156117a057600080fd5b8286015b848110156117e057803567ffffffffffffffff8111156117c45760008081fd5b6117d28986838b010161160f565b8452509183019183016117a4565b509695505050505050565b600080604083850312156117fe57600080fd5b823567ffffffffffffffff8082111561181657600080fd5b818501915085601f83011261182a57600080fd5b8135602061183a61177c83611737565b82815260059290921b8401810191818101908984111561185957600080fd5b948201945b8386101561187e5761186f866114c2565b8252948201949082019061185e565b9650508601359250508082111561189457600080fd5b506118a18582860161175b565b9150509250929050565b600080604083850312156118be57600080fd5b6118c7836114c2565b9150602083013567ffffffffffffffff8111156118e357600080fd5b6118a18582860161160f565b6000806040838503121561190257600080fd5b61190b836114c2565b9150611567602084016114c2565b600181811c9082168061192d57607f821691505b60208210810361194d57634e487b7160e01b600052602260045260246000fd5b50919050565b601f8211156105e5576000816000526020600020601f850160051c8101602086101561197c5750805b601f850160051c820191505b8181101561199b57828155600101611988565b505050505050565b815167ffffffffffffffff8111156119bd576119bd611570565b6119d1816119cb8454611919565b84611953565b602080601f831160018114611a0657600084156119ee5750858301515b600019600386901b1c1916600185901b17855561199b565b600085815260208120601f198616915b82811015611a3557888601518255948401946001909101908401611a16565b5085821015611a535787850151600019600388901b60f8161c191681555b5050505050600190811b01905550565b634e487b7160e01b600052603260045260246000fd5b60008351611a8b818460208801611446565b835190830190611a9f818360208801611446565b01949350505050565b600060018201611ac857634e487b7160e01b600052601160045260246000fd5b5060010190565b6001600160a01b0385811682528416602082015260408101839052608060608201819052600090611b029083018461146a565b9695505050505050565b600060208284031215611b1e57600080fd5b8151610f478161141356fea2646970667358221220e03ca9eecdfced18f517fcd1daf697766e71fb58d6d26b11f5351d0f7db9ece164736f6c634300081900330000000000000000000000000000000000000000000000000000000000000000000000000000000000000000000000000000000000000000000000000000006000000000000000000000000000000000000000000000000000000000000000a00000000000000000000000000000000000000000000000000000000000000004546573740000000000000000000000000000000000000000000000000000000000000000000000000000000000000000000000000000000000000000000000035453540000000000000000000000000000000000000000000000000000000000",
        "nonce": "0x23",
        "chainId": "0x13882"
      },
      "additionalContracts": [],
      "isFixedGasLimit": false
    },
    {
      "hash": "0xccee2ab162b6ce4719a0d75928019153492ae246ce454554a69b1c36b5c69c2a",
      "transactionType": "CALL",
      "contractName": "NFT",
      "contractAddress": "0xf9ee20ec8637cc0dc27edea4e54414e10d9f5c75",
      "function": "setBaseURI(string)",
      "arguments": [
        "\"https://ipfs.develop.ultimate-champions.com/ipfs/\""
      ],
      "transaction": {
        "from": "0x6914549f76c1b669e6b5ea070e10954b0a7ba235",
        "to": "0xf9ee20ec8637cc0dc27edea4e54414e10d9f5c75",
        "gas": "0x20e69",
        "value": "0x0",
        "input": "0x55f804b30000000000000000000000000000000000000000000000000000000000000020000000000000000000000000000000000000000000000000000000000000003168747470733a2f2f697066732e646576656c6f702e756c74696d6174652d6368616d70696f6e732e636f6d2f697066732f000000000000000000000000000000",
        "nonce": "0x24",
        "chainId": "0x13882"
      },
      "additionalContracts": [],
      "isFixedGasLimit": false
    },
    {
      "hash": "0x539f56e50126a06f5644120afb38aac11729c406b7eea1be2ed86bd06ad1b7ed",
      "transactionType": "CALL",
      "contractName": "NFT",
      "contractAddress": "0xf9ee20ec8637cc0dc27edea4e54414e10d9f5c75",
      "function": "grantRole(bytes32,address)",
      "arguments": [
        "0x0000000000000000000000000000000000000000000000000000000000000000",
        "0xC988583e215703F84519E6D3e724b9D66d0C5B3a"
      ],
      "transaction": {
        "from": "0x6914549f76c1b669e6b5ea070e10954b0a7ba235",
        "to": "0xf9ee20ec8637cc0dc27edea4e54414e10d9f5c75",
        "gas": "0x11424",
        "value": "0x0",
        "input": "0x2f2ff15d0000000000000000000000000000000000000000000000000000000000000000000000000000000000000000c988583e215703f84519e6d3e724b9d66d0c5b3a",
        "nonce": "0x25",
        "chainId": "0x13882"
      },
      "additionalContracts": [],
      "isFixedGasLimit": false
    },
    {
      "hash": "0x97b8b8d0008a683f8761d652ab58507591b2ba2005f94a37d6b8bd2b2fc984f9",
      "transactionType": "CALL",
      "contractName": "NFT",
      "contractAddress": "0xf9ee20ec8637cc0dc27edea4e54414e10d9f5c75",
      "function": "grantRole(bytes32,address)",
      "arguments": [
        "0x154c00819833dac601ee5ddded6fda79d9d8b506b911b3dbd54cdb95fe6c3686",
        "0x83010e851Eb0957a898105AB94CA4E51C22eC996"
      ],
      "transaction": {
        "from": "0x6914549f76c1b669e6b5ea070e10954b0a7ba235",
        "to": "0xf9ee20ec8637cc0dc27edea4e54414e10d9f5c75",
        "gas": "0x12684",
        "value": "0x0",
        "input": "0x2f2ff15d154c00819833dac601ee5ddded6fda79d9d8b506b911b3dbd54cdb95fe6c368600000000000000000000000083010e851eb0957a898105ab94ca4e51c22ec996",
        "nonce": "0x26",
        "chainId": "0x13882"
      },
      "additionalContracts": [],
      "isFixedGasLimit": false
    },
    {
      "hash": "0x7b48a3985047be6e1412191b3622a10731466e9d37c14f5651cb54983411d135",
      "transactionType": "CALL",
      "contractName": "NFT",
      "contractAddress": "0xf9ee20ec8637cc0dc27edea4e54414e10d9f5c75",
      "function": "grantRole(bytes32,address)",
      "arguments": [
        "0x65d7a28e3265b37a6474929f336521b332c1681b933f6cb9f3376673440d862a",
        "0xC988583e215703F84519E6D3e724b9D66d0C5B3a"
      ],
      "transaction": {
        "from": "0x6914549f76c1b669e6b5ea070e10954b0a7ba235",
        "to": "0xf9ee20ec8637cc0dc27edea4e54414e10d9f5c75",
        "gas": "0x11637",
        "value": "0x0",
        "input": "0x2f2ff15d65d7a28e3265b37a6474929f336521b332c1681b933f6cb9f3376673440d862a000000000000000000000000c988583e215703f84519e6d3e724b9d66d0c5b3a",
        "nonce": "0x27",
        "chainId": "0x13882"
      },
      "additionalContracts": [],
      "isFixedGasLimit": false
    },
    {
      "hash": "0x463c43397a4bc744de78ccace5478308456d50e21483d042fb1a6e756671d881",
      "transactionType": "CALL",
      "contractName": "NFT",
      "contractAddress": "0xf9ee20ec8637cc0dc27edea4e54414e10d9f5c75",
      "function": "renounceRole(bytes32,address)",
      "arguments": [
        "0x65d7a28e3265b37a6474929f336521b332c1681b933f6cb9f3376673440d862a",
        "0x6914549F76c1B669E6b5ea070E10954B0A7bA235"
      ],
      "transaction": {
        "from": "0x6914549f76c1b669e6b5ea070e10954b0a7ba235",
        "to": "0xf9ee20ec8637cc0dc27edea4e54414e10d9f5c75",
        "gas": "0x8eed",
        "value": "0x0",
        "input": "0x36568abe65d7a28e3265b37a6474929f336521b332c1681b933f6cb9f3376673440d862a0000000000000000000000006914549f76c1b669e6b5ea070e10954b0a7ba235",
        "nonce": "0x28",
        "chainId": "0x13882"
      },
      "additionalContracts": [],
      "isFixedGasLimit": false
    },
    {
      "hash": "0x293f0dc524ca2d9a4d0e214e5d2fc2f0dc5f372ec700b90ffa7e4ac0a947988e",
      "transactionType": "CALL",
      "contractName": "NFT",
      "contractAddress": "0xf9ee20ec8637cc0dc27edea4e54414e10d9f5c75",
      "function": "renounceRole(bytes32,address)",
      "arguments": [
        "0x154c00819833dac601ee5ddded6fda79d9d8b506b911b3dbd54cdb95fe6c3686",
        "0x6914549F76c1B669E6b5ea070E10954B0A7bA235"
      ],
      "transaction": {
        "from": "0x6914549f76c1b669e6b5ea070e10954b0a7ba235",
        "to": "0xf9ee20ec8637cc0dc27edea4e54414e10d9f5c75",
        "gas": "0x86eb",
        "value": "0x0",
        "input": "0x36568abe154c00819833dac601ee5ddded6fda79d9d8b506b911b3dbd54cdb95fe6c36860000000000000000000000006914549f76c1b669e6b5ea070e10954b0a7ba235",
        "nonce": "0x29",
        "chainId": "0x13882"
      },
      "additionalContracts": [],
      "isFixedGasLimit": false
    },
    {
      "hash": "0x99a30b34c6774fa2fcff910e4cfc779650e5473da200bf14bd0f3291633c524b",
      "transactionType": "CALL",
      "contractName": "NFT",
      "contractAddress": "0xf9ee20ec8637cc0dc27edea4e54414e10d9f5c75",
      "function": "renounceRole(bytes32,address)",
      "arguments": [
        "0x0000000000000000000000000000000000000000000000000000000000000000",
        "0x6914549F76c1B669E6b5ea070E10954B0A7bA235"
      ],
      "transaction": {
        "from": "0x6914549f76c1b669e6b5ea070e10954b0a7ba235",
        "to": "0xf9ee20ec8637cc0dc27edea4e54414e10d9f5c75",
        "gas": "0x8cbc",
        "value": "0x0",
        "input": "0x36568abe00000000000000000000000000000000000000000000000000000000000000000000000000000000000000006914549f76c1b669e6b5ea070e10954b0a7ba235",
        "nonce": "0x2a",
        "chainId": "0x13882"
      },
      "additionalContracts": [],
      "isFixedGasLimit": false
    }
  ],
  "receipts": [
    {
      "status": "0x1",
      "cumulativeGasUsed": "0x1ad0e5",
      "logs": [
        {
          "address": "0xf9ee20ec8637cc0dc27edea4e54414e10d9f5c75",
          "topics": [
            "0x2f8788117e7eff1d82e926ec794901d17c78024a50270940304540a733656f0d",
            "0x0000000000000000000000000000000000000000000000000000000000000000",
            "0x0000000000000000000000006914549f76c1b669e6b5ea070e10954b0a7ba235",
            "0x0000000000000000000000006914549f76c1b669e6b5ea070e10954b0a7ba235"
          ],
          "data": "0x",
          "blockHash": "0xbbd61634bbd80001ab101ac67775e7af84bf30ca97d609568ee714d43b0c65bd",
          "blockNumber": "0x6828f3",
          "transactionHash": "0x62be2d2bc3957c1c4b4b247f9309d835eaf7129e95b1d5fba3c2bb6557712f1e",
          "transactionIndex": "0x1",
          "logIndex": "0x2",
          "removed": false
        },
        {
          "address": "0xf9ee20ec8637cc0dc27edea4e54414e10d9f5c75",
          "topics": [
            "0x2f8788117e7eff1d82e926ec794901d17c78024a50270940304540a733656f0d",
            "0x154c00819833dac601ee5ddded6fda79d9d8b506b911b3dbd54cdb95fe6c3686",
            "0x0000000000000000000000006914549f76c1b669e6b5ea070e10954b0a7ba235",
            "0x0000000000000000000000006914549f76c1b669e6b5ea070e10954b0a7ba235"
          ],
          "data": "0x",
          "blockHash": "0xbbd61634bbd80001ab101ac67775e7af84bf30ca97d609568ee714d43b0c65bd",
          "blockNumber": "0x6828f3",
          "transactionHash": "0x62be2d2bc3957c1c4b4b247f9309d835eaf7129e95b1d5fba3c2bb6557712f1e",
          "transactionIndex": "0x1",
          "logIndex": "0x3",
          "removed": false
        },
        {
          "address": "0xf9ee20ec8637cc0dc27edea4e54414e10d9f5c75",
          "topics": [
            "0x2f8788117e7eff1d82e926ec794901d17c78024a50270940304540a733656f0d",
            "0x65d7a28e3265b37a6474929f336521b332c1681b933f6cb9f3376673440d862a",
            "0x0000000000000000000000006914549f76c1b669e6b5ea070e10954b0a7ba235",
            "0x0000000000000000000000006914549f76c1b669e6b5ea070e10954b0a7ba235"
          ],
          "data": "0x",
          "blockHash": "0xbbd61634bbd80001ab101ac67775e7af84bf30ca97d609568ee714d43b0c65bd",
          "blockNumber": "0x6828f3",
          "transactionHash": "0x62be2d2bc3957c1c4b4b247f9309d835eaf7129e95b1d5fba3c2bb6557712f1e",
          "transactionIndex": "0x1",
          "logIndex": "0x4",
          "removed": false
        },
        {
          "address": "0x0000000000000000000000000000000000001010",
          "topics": [
            "0x4dfe1bbbcf077ddc3e01291eea2d5c70c2b422b415d95645b9adcfd678cb1d63",
            "0x0000000000000000000000000000000000000000000000000000000000001010",
            "0x0000000000000000000000006914549f76c1b669e6b5ea070e10954b0a7ba235",
            "0x000000000000000000000000915a2284d28bd93de7d6f31173b981204bb666e6"
          ],
          "data": "0x0000000000000000000000000000000000000000000000000006ac4e732cb40000000000000000000000000000000000000000000000000345b5e334586edf5200000000000000000000000000000000000000000000013d09dd9aac4265258200000000000000000000000000000000000000000000000345af36e5e5422b5200000000000000000000000000000000000000000000013d09e446fab591d982",
          "blockHash": "0xbbd61634bbd80001ab101ac67775e7af84bf30ca97d609568ee714d43b0c65bd",
          "blockNumber": "0x6828f3",
          "transactionHash": "0x62be2d2bc3957c1c4b4b247f9309d835eaf7129e95b1d5fba3c2bb6557712f1e",
          "transactionIndex": "0x1",
          "logIndex": "0x5",
          "removed": false
        }
      ],
      "logsBloom": "0x00000804000000000010000000000000000000000000000000000000000000000000000000100000000000000000000000008000000000000080000008000000000000000000000000000000000000800000000000000000000100000000000000000000820000000000000000000800000000000000000080000000000000010000000000000000400000000000008000000000000000000000000000000000200000000000000000000000000000000000000000000000001000000000004000000000000000000001000000000000000002000000000100102000000020000000000000000000000000000000000000010400408000000000000000100000",
      "type": "0x2",
      "transactionHash": "0x62be2d2bc3957c1c4b4b247f9309d835eaf7129e95b1d5fba3c2bb6557712f1e",
      "transactionIndex": "0x1",
      "blockHash": "0xbbd61634bbd80001ab101ac67775e7af84bf30ca97d609568ee714d43b0c65bd",
      "blockNumber": "0x6828f3",
      "gasUsed": "0x1a0e1c",
      "effectiveGasPrice": "0x4190ab10",
      "from": "0x6914549f76c1b669e6b5ea070e10954b0a7ba235",
      "to": null,
      "contractAddress": "0xf9ee20ec8637cc0dc27edea4e54414e10d9f5c75"
    },
    {
      "status": "0x1",
      "cumulativeGasUsed": "0x1c38d6",
      "logs": [
        {
          "address": "0x0000000000000000000000000000000000001010",
          "topics": [
            "0x4dfe1bbbcf077ddc3e01291eea2d5c70c2b422b415d95645b9adcfd678cb1d63",
            "0x0000000000000000000000000000000000000000000000000000000000001010",
            "0x0000000000000000000000006914549f76c1b669e6b5ea070e10954b0a7ba235",
            "0x000000000000000000000000915a2284d28bd93de7d6f31173b981204bb666e6"
          ],
          "data": "0x00000000000000000000000000000000000000000000000000005c2f98fdfb0000000000000000000000000000000000000000000000000345af36e5e3a1499200000000000000000000000000000000000000000000013d09e446fab591d98200000000000000000000000000000000000000000000000345aedab64aa34e9200000000000000000000000000000000000000000000013d09e4a32a4e8fd482",
          "blockHash": "0xbbd61634bbd80001ab101ac67775e7af84bf30ca97d609568ee714d43b0c65bd",
          "blockNumber": "0x6828f3",
          "transactionHash": "0xccee2ab162b6ce4719a0d75928019153492ae246ce454554a69b1c36b5c69c2a",
          "transactionIndex": "0x2",
          "logIndex": "0x6",
          "removed": false
        }
      ],
      "logsBloom": "0x00000800000000000010000000000000000000000000000000000000000000000000000000000000000000000000000000008000000000000000000008000000000000000000000000000000000000800000000000000000000100000000000000000000000000000000000000000000000000000000000080000000000000000000000000000000000000000000000000000000000000000000000000000000200000000000000000000000000000000000000000000000000000000000004000000000000000000001000000000000000002000000000000100000000000000000000000000000000000000000000000000000408000000000000000100000",
      "type": "0x2",
      "transactionHash": "0xccee2ab162b6ce4719a0d75928019153492ae246ce454554a69b1c36b5c69c2a",
      "transactionIndex": "0x2",
      "blockHash": "0xbbd61634bbd80001ab101ac67775e7af84bf30ca97d609568ee714d43b0c65bd",
      "blockNumber": "0x6828f3",
      "gasUsed": "0x167f1",
      "effectiveGasPrice": "0x4190ab10",
      "from": "0x6914549f76c1b669e6b5ea070e10954b0a7ba235",
      "to": "0xf9ee20ec8637cc0dc27edea4e54414e10d9f5c75",
      "contractAddress": null
    },
    {
      "status": "0x1",
      "cumulativeGasUsed": "0x1d00c3",
      "logs": [
        {
          "address": "0xf9ee20ec8637cc0dc27edea4e54414e10d9f5c75",
          "topics": [
            "0x2f8788117e7eff1d82e926ec794901d17c78024a50270940304540a733656f0d",
            "0x0000000000000000000000000000000000000000000000000000000000000000",
            "0x000000000000000000000000c988583e215703f84519e6d3e724b9d66d0c5b3a",
            "0x0000000000000000000000006914549f76c1b669e6b5ea070e10954b0a7ba235"
          ],
          "data": "0x",
          "blockHash": "0xbbd61634bbd80001ab101ac67775e7af84bf30ca97d609568ee714d43b0c65bd",
          "blockNumber": "0x6828f3",
          "transactionHash": "0x539f56e50126a06f5644120afb38aac11729c406b7eea1be2ed86bd06ad1b7ed",
          "transactionIndex": "0x3",
          "logIndex": "0x7",
          "removed": false
        },
        {
          "address": "0x0000000000000000000000000000000000001010",
          "topics": [
            "0x4dfe1bbbcf077ddc3e01291eea2d5c70c2b422b415d95645b9adcfd678cb1d63",
            "0x0000000000000000000000000000000000000000000000000000000000001010",
            "0x0000000000000000000000006914549f76c1b669e6b5ea070e10954b0a7ba235",
            "0x000000000000000000000000915a2284d28bd93de7d6f31173b981204bb666e6"
          ],
          "data": "0x0000000000000000000000000000000000000000000000000000333427db4f0000000000000000000000000000000000000000000000000345aedab64a8ccf8200000000000000000000000000000000000000000000013d09e4a32a4e8fd48200000000000000000000000000000000000000000000000345aea78222b1808200000000000000000000000000000000000000000000013d09e4d65e766b2382",
          "blockHash": "0xbbd61634bbd80001ab101ac67775e7af84bf30ca97d609568ee714d43b0c65bd",
          "blockNumber": "0x6828f3",
          "transactionHash": "0x539f56e50126a06f5644120afb38aac11729c406b7eea1be2ed86bd06ad1b7ed",
          "transactionIndex": "0x3",
          "logIndex": "0x8",
          "removed": false
        }
      ],
      "logsBloom": "0x00000804000000000010000000000000000000000000000000000000000000000000000000100000000000000000000000008000000000000000000008000000000000000000000000000000000000800000000000000000000100000000000000000000a20000000000000000000800000000000000000080020000000000000000000000000000400000000000000000000000000000000000000000000000200000000000000000000000000000000000000000000000001000000000004000000000000000000001000000000000020002000000000100100000000020000000000000000000000000000000000000000000408000000000000000100000",
      "type": "0x2",
      "transactionHash": "0x539f56e50126a06f5644120afb38aac11729c406b7eea1be2ed86bd06ad1b7ed",
      "transactionIndex": "0x3",
      "blockHash": "0xbbd61634bbd80001ab101ac67775e7af84bf30ca97d609568ee714d43b0c65bd",
      "blockNumber": "0x6828f3",
      "gasUsed": "0xc7ed",
      "effectiveGasPrice": "0x4190ab10",
      "from": "0x6914549f76c1b669e6b5ea070e10954b0a7ba235",
      "to": "0xf9ee20ec8637cc0dc27edea4e54414e10d9f5c75",
      "contractAddress": null
    },
    {
      "status": "0x1",
      "cumulativeGasUsed": "0x1dca24",
      "logs": [
        {
          "address": "0xf9ee20ec8637cc0dc27edea4e54414e10d9f5c75",
          "topics": [
            "0x2f8788117e7eff1d82e926ec794901d17c78024a50270940304540a733656f0d",
            "0x154c00819833dac601ee5ddded6fda79d9d8b506b911b3dbd54cdb95fe6c3686",
            "0x00000000000000000000000083010e851eb0957a898105ab94ca4e51c22ec996",
            "0x0000000000000000000000006914549f76c1b669e6b5ea070e10954b0a7ba235"
          ],
          "data": "0x",
          "blockHash": "0xbbd61634bbd80001ab101ac67775e7af84bf30ca97d609568ee714d43b0c65bd",
          "blockNumber": "0x6828f3",
          "transactionHash": "0x97b8b8d0008a683f8761d652ab58507591b2ba2005f94a37d6b8bd2b2fc984f9",
          "transactionIndex": "0x4",
          "logIndex": "0x9",
          "removed": false
        },
        {
          "address": "0x0000000000000000000000000000000000001010",
          "topics": [
            "0x4dfe1bbbcf077ddc3e01291eea2d5c70c2b422b415d95645b9adcfd678cb1d63",
            "0x0000000000000000000000000000000000000000000000000000000000001010",
            "0x0000000000000000000000006914549f76c1b669e6b5ea070e10954b0a7ba235",
            "0x000000000000000000000000915a2284d28bd93de7d6f31173b981204bb666e6"
          ],
          "data": "0x000000000000000000000000000000000000000000000000000033936e13cb0000000000000000000000000000000000000000000000000345aea78222a501b200000000000000000000000000000000000000000000013d09e4d65e766b238200000000000000000000000000000000000000000000000345ae73eeb49136b200000000000000000000000000000000000000000000013d09e509f1e47eee82",
          "blockHash": "0xbbd61634bbd80001ab101ac67775e7af84bf30ca97d609568ee714d43b0c65bd",
          "blockNumber": "0x6828f3",
          "transactionHash": "0x97b8b8d0008a683f8761d652ab58507591b2ba2005f94a37d6b8bd2b2fc984f9",
          "transactionIndex": "0x4",
          "logIndex": "0xa",
          "removed": false
        }
      ],
      "logsBloom": "0x00000804000000000110000000000000000000000000000000000000000000000000000000100000000000000000000000008000000000000080000008000000000000000000000000000000000000800000000000000000000100000000000000000000800000000000000000000000000000000000000080000000000000010000000000000000400000000000000000000000000000000000000000000000200040000000000000000000000000000000000000000000001000000000004000000000000000000001000000000000000002000000000100100000000000000000000000000000000000000080000000010000408000000000000000100000",
      "type": "0x2",
      "transactionHash": "0x97b8b8d0008a683f8761d652ab58507591b2ba2005f94a37d6b8bd2b2fc984f9",
      "transactionIndex": "0x4",
      "blockHash": "0xbbd61634bbd80001ab101ac67775e7af84bf30ca97d609568ee714d43b0c65bd",
      "blockNumber": "0x6828f3",
      "gasUsed": "0xc961",
      "effectiveGasPrice": "0x4190ab10",
      "from": "0x6914549f76c1b669e6b5ea070e10954b0a7ba235",
      "to": "0xf9ee20ec8637cc0dc27edea4e54414e10d9f5c75",
      "contractAddress": null
    },
    {
      "status": "0x1",
      "cumulativeGasUsed": "0x1e9391",
      "logs": [
        {
          "address": "0xf9ee20ec8637cc0dc27edea4e54414e10d9f5c75",
          "topics": [
            "0x2f8788117e7eff1d82e926ec794901d17c78024a50270940304540a733656f0d",
            "0x65d7a28e3265b37a6474929f336521b332c1681b933f6cb9f3376673440d862a",
            "0x000000000000000000000000c988583e215703f84519e6d3e724b9d66d0c5b3a",
            "0x0000000000000000000000006914549f76c1b669e6b5ea070e10954b0a7ba235"
          ],
          "data": "0x",
          "blockHash": "0xbbd61634bbd80001ab101ac67775e7af84bf30ca97d609568ee714d43b0c65bd",
          "blockNumber": "0x6828f3",
          "transactionHash": "0x7b48a3985047be6e1412191b3622a10731466e9d37c14f5651cb54983411d135",
          "transactionIndex": "0x5",
          "logIndex": "0xb",
          "removed": false
        },
        {
          "address": "0x0000000000000000000000000000000000001010",
          "topics": [
            "0x4dfe1bbbcf077ddc3e01291eea2d5c70c2b422b415d95645b9adcfd678cb1d63",
            "0x0000000000000000000000000000000000000000000000000000000000001010",
            "0x0000000000000000000000006914549f76c1b669e6b5ea070e10954b0a7ba235",
            "0x000000000000000000000000915a2284d28bd93de7d6f31173b981204bb666e6"
          ],
          "data": "0x0000000000000000000000000000000000000000000000000000339680dbcf0000000000000000000000000000000000000000000000000345ae73eeb484a0a200000000000000000000000000000000000000000000013d09e509f1e47eee8200000000000000000000000000000000000000000000000345ae405833a8d1a200000000000000000000000000000000000000000000013d09e53d88655abd82",
          "blockHash": "0xbbd61634bbd80001ab101ac67775e7af84bf30ca97d609568ee714d43b0c65bd",
          "blockNumber": "0x6828f3",
          "transactionHash": "0x7b48a3985047be6e1412191b3622a10731466e9d37c14f5651cb54983411d135",
          "transactionIndex": "0x5",
          "logIndex": "0xc",
          "removed": false
        }
      ],
      "logsBloom": "0x00000804000000000010000000000000000000000000000000000000000000000000000000100000000000000000000000008000000000000000000008000000000000000000000000000000000000800000000000000000000100000000000000000000a00000000000000000000000000000000000000080020000000000000000000000000000400000000000008000000000000000000000000000000000200000000000000000000000000000000000000000000000001000000000004000000000000000000001000000000000020002000000000100102000000000000000000000000000000000000000000000000400408000000000000000100000",
      "type": "0x2",
      "transactionHash": "0x7b48a3985047be6e1412191b3622a10731466e9d37c14f5651cb54983411d135",
      "transactionIndex": "0x5",
      "blockHash": "0xbbd61634bbd80001ab101ac67775e7af84bf30ca97d609568ee714d43b0c65bd",
      "blockNumber": "0x6828f3",
      "gasUsed": "0xc96d",
      "effectiveGasPrice": "0x4190ab10",
      "from": "0x6914549f76c1b669e6b5ea070e10954b0a7ba235",
      "to": "0xf9ee20ec8637cc0dc27edea4e54414e10d9f5c75",
      "contractAddress": null
    },
    {
      "status": "0x1",
      "cumulativeGasUsed": "0x1ef54c",
      "logs": [
        {
          "address": "0xf9ee20ec8637cc0dc27edea4e54414e10d9f5c75",
          "topics": [
            "0xf6391f5c32d9c69d2a47ea670b442974b53935d1edc7fd64eb21e047a839171b",
            "0x65d7a28e3265b37a6474929f336521b332c1681b933f6cb9f3376673440d862a",
            "0x0000000000000000000000006914549f76c1b669e6b5ea070e10954b0a7ba235",
            "0x0000000000000000000000006914549f76c1b669e6b5ea070e10954b0a7ba235"
          ],
          "data": "0x",
          "blockHash": "0xbbd61634bbd80001ab101ac67775e7af84bf30ca97d609568ee714d43b0c65bd",
          "blockNumber": "0x6828f3",
          "transactionHash": "0x463c43397a4bc744de78ccace5478308456d50e21483d042fb1a6e756671d881",
          "transactionIndex": "0x6",
          "logIndex": "0xd",
          "removed": false
        },
        {
          "address": "0x0000000000000000000000000000000000001010",
          "topics": [
            "0x4dfe1bbbcf077ddc3e01291eea2d5c70c2b422b415d95645b9adcfd678cb1d63",
            "0x0000000000000000000000000000000000000000000000000000000000001010",
            "0x0000000000000000000000006914549f76c1b669e6b5ea070e10954b0a7ba235",
            "0x000000000000000000000000915a2284d28bd93de7d6f31173b981204bb666e6"
          ],
          "data": "0x00000000000000000000000000000000000000000000000000001907b577e90000000000000000000000000000000000000000000000000345ae4058339c3ad200000000000000000000000000000000000000000000013d09e53d88655abd8200000000000000000000000000000000000000000000000345ae27507e2451d200000000000000000000000000000000000000000000013d09e556901ad2a682",
          "blockHash": "0xbbd61634bbd80001ab101ac67775e7af84bf30ca97d609568ee714d43b0c65bd",
          "blockNumber": "0x6828f3",
          "transactionHash": "0x463c43397a4bc744de78ccace5478308456d50e21483d042fb1a6e756671d881",
          "transactionIndex": "0x6",
          "logIndex": "0xe",
          "removed": false
        }
      ],
      "logsBloom": "0x00000800000000000010000000000000000000000000000000000000000000000000000000100000000000000000000000208000000000000000000008000000000000000000000000000000000000800000000000000000000100000000000040000000800000000000000000000000000000000000000080000000000000000000000040000000400000000000008000000000000000000000000000000000200000000000000000000000000000000000000000000000000000000000004000000000000000000001000000000000000002000000000000102000000000000000000000000000000000000000000000000400408000000000000000100000",
      "type": "0x2",
      "transactionHash": "0x463c43397a4bc744de78ccace5478308456d50e21483d042fb1a6e756671d881",
      "transactionIndex": "0x6",
      "blockHash": "0xbbd61634bbd80001ab101ac67775e7af84bf30ca97d609568ee714d43b0c65bd",
      "blockNumber": "0x6828f3",
      "gasUsed": "0x61bb",
      "effectiveGasPrice": "0x4190ab10",
      "from": "0x6914549f76c1b669e6b5ea070e10954b0a7ba235",
      "to": "0xf9ee20ec8637cc0dc27edea4e54414e10d9f5c75",
      "contractAddress": null
    },
    {
      "status": "0x1",
      "cumulativeGasUsed": "0x1f56fb",
      "logs": [
        {
          "address": "0xf9ee20ec8637cc0dc27edea4e54414e10d9f5c75",
          "topics": [
            "0xf6391f5c32d9c69d2a47ea670b442974b53935d1edc7fd64eb21e047a839171b",
            "0x154c00819833dac601ee5ddded6fda79d9d8b506b911b3dbd54cdb95fe6c3686",
            "0x0000000000000000000000006914549f76c1b669e6b5ea070e10954b0a7ba235",
            "0x0000000000000000000000006914549f76c1b669e6b5ea070e10954b0a7ba235"
          ],
          "data": "0x",
          "blockHash": "0xbbd61634bbd80001ab101ac67775e7af84bf30ca97d609568ee714d43b0c65bd",
          "blockNumber": "0x6828f3",
          "transactionHash": "0x293f0dc524ca2d9a4d0e214e5d2fc2f0dc5f372ec700b90ffa7e4ac0a947988e",
          "transactionIndex": "0x7",
          "logIndex": "0xf",
          "removed": false
        },
        {
          "address": "0x0000000000000000000000000000000000001010",
          "topics": [
            "0x4dfe1bbbcf077ddc3e01291eea2d5c70c2b422b415d95645b9adcfd678cb1d63",
            "0x0000000000000000000000000000000000000000000000000000000000001010",
            "0x0000000000000000000000006914549f76c1b669e6b5ea070e10954b0a7ba235",
            "0x000000000000000000000000915a2284d28bd93de7d6f31173b981204bb666e6"
          ],
          "data": "0x00000000000000000000000000000000000000000000000000001904a2afe50000000000000000000000000000000000000000000000000345ae27507e1e362200000000000000000000000000000000000000000000013d09e556901ad2a68200000000000000000000000000000000000000000000000345ae0e4bdb6e512200000000000000000000000000000000000000000000013d09e56f94bd828b82",
          "blockHash": "0xbbd61634bbd80001ab101ac67775e7af84bf30ca97d609568ee714d43b0c65bd",
          "blockNumber": "0x6828f3",
          "transactionHash": "0x293f0dc524ca2d9a4d0e214e5d2fc2f0dc5f372ec700b90ffa7e4ac0a947988e",
          "transactionIndex": "0x7",
          "logIndex": "0x10",
          "removed": false
        }
      ],
      "logsBloom": "0x00000800000000000010000000000000000000000000000000000000000000000000000000100000000000000000000000208000000000000080000008000000000000000000000000000000000000800000000000000000000100000000000040000000800000000000000000000000000000000000000080000000000000010000000040000000400000000000000000000000000000000000000000000000200000000000000000000000000000000000000000000000000000000000004000000000000000000001000000000000000002000000000000100000000000000000000000000000000000000000000000010000408000000000000000100000",
      "type": "0x2",
      "transactionHash": "0x293f0dc524ca2d9a4d0e214e5d2fc2f0dc5f372ec700b90ffa7e4ac0a947988e",
      "transactionIndex": "0x7",
      "blockHash": "0xbbd61634bbd80001ab101ac67775e7af84bf30ca97d609568ee714d43b0c65bd",
      "blockNumber": "0x6828f3",
      "gasUsed": "0x61af",
      "effectiveGasPrice": "0x4190ab10",
      "from": "0x6914549f76c1b669e6b5ea070e10954b0a7ba235",
      "to": "0xf9ee20ec8637cc0dc27edea4e54414e10d9f5c75",
      "contractAddress": null
    },
    {
      "status": "0x1",
      "cumulativeGasUsed": "0x1fb736",
      "logs": [
        {
          "address": "0xf9ee20ec8637cc0dc27edea4e54414e10d9f5c75",
          "topics": [
            "0xf6391f5c32d9c69d2a47ea670b442974b53935d1edc7fd64eb21e047a839171b",
            "0x0000000000000000000000000000000000000000000000000000000000000000",
            "0x0000000000000000000000006914549f76c1b669e6b5ea070e10954b0a7ba235",
            "0x0000000000000000000000006914549f76c1b669e6b5ea070e10954b0a7ba235"
          ],
          "data": "0x",
          "blockHash": "0xbbd61634bbd80001ab101ac67775e7af84bf30ca97d609568ee714d43b0c65bd",
          "blockNumber": "0x6828f3",
          "transactionHash": "0x99a30b34c6774fa2fcff910e4cfc779650e5473da200bf14bd0f3291633c524b",
          "transactionIndex": "0x8",
          "logIndex": "0x11",
          "removed": false
        },
        {
          "address": "0x0000000000000000000000000000000000001010",
          "topics": [
            "0x4dfe1bbbcf077ddc3e01291eea2d5c70c2b422b415d95645b9adcfd678cb1d63",
            "0x0000000000000000000000000000000000000000000000000000000000001010",
            "0x0000000000000000000000006914549f76c1b669e6b5ea070e10954b0a7ba235",
            "0x000000000000000000000000915a2284d28bd93de7d6f31173b981204bb666e6"
          ],
          "data": "0x000000000000000000000000000000000000000000000000000018a55c77690000000000000000000000000000000000000000000000000345ae0e4bdb68363200000000000000000000000000000000000000000000013d09e56f94bd828b8200000000000000000000000000000000000000000000000345adf5a67ef0cd3200000000000000000000000000000000000000000000013d09e5883a19f9f482",
          "blockHash": "0xbbd61634bbd80001ab101ac67775e7af84bf30ca97d609568ee714d43b0c65bd",
          "blockNumber": "0x6828f3",
          "transactionHash": "0x99a30b34c6774fa2fcff910e4cfc779650e5473da200bf14bd0f3291633c524b",
          "transactionIndex": "0x8",
          "logIndex": "0x12",
          "removed": false
        }
      ],
      "logsBloom": "0x00000800000000000010000000000000000000000000000000000000000000000000000000100000000000000000000000208000000000000000000008000000000000000000000000000000000000800000000000000000000100000000000040000000820000000000000000000800000000000000000080000000000000000000000040000000400000000000000000000000000000000000000000000000200000000000000000000000000000000000000000000000000000000000004000000000000000000001000000000000000002000000000000100000000020000000000000000000000000000000000000000000408000000000000000100000",
      "type": "0x2",
      "transactionHash": "0x99a30b34c6774fa2fcff910e4cfc779650e5473da200bf14bd0f3291633c524b",
      "transactionIndex": "0x8",
      "blockHash": "0xbbd61634bbd80001ab101ac67775e7af84bf30ca97d609568ee714d43b0c65bd",
      "blockNumber": "0x6828f3",
      "gasUsed": "0x603b",
      "effectiveGasPrice": "0x4190ab10",
      "from": "0x6914549f76c1b669e6b5ea070e10954b0a7ba235",
      "to": "0xf9ee20ec8637cc0dc27edea4e54414e10d9f5c75",
      "contractAddress": null
    }
  ],
  "libraries": [],
  "pending": [],
  "returns": {},
  "timestamp": 1715248868,
  "chain": 80002,
  "commit": "0c94b3b"
}