{
  "transactions": [
    {
      "hash": "0x379a9e6fe97a81d5b9f773d870258342274dddf04e61f00b2ea3f7c45708eeee",
      "transactionType": "CREATE",
      "contractName": "NFTLegacyMulticall",
      "contractAddress": "0x0b522e4324f725eb646b5b8ad1415ca0dbaa7eb1",
      "function": null,
      "arguments": [
        "18446744073709551616",
        "\"Non Fungible Ultimate Champions\"",
        "\"NFCHAMP\""
      ],
      "transaction": {
        "from": "0x5ea4e6fa3967aafbdeb209cf230abb65b570195a",
        "gas": "0x24fa5f",
        "value": "0x0",
        "input": "0x608060405234801561001057600080fd5b5060405161226c38038061226c83398101604081905261002f916101e4565b8282828181600061004083826102dc565b50600161004d82826102dc565b50506008805460ff1916905550600983905561006a600033610076565b5050505050505061039b565b60008281526007602090815260408083206001600160a01b038516845290915281205460ff1661011c5760008381526007602090815260408083206001600160a01b03861684529091529020805460ff191660011790556100d43390565b6001600160a01b0316826001600160a01b0316847f2f8788117e7eff1d82e926ec794901d17c78024a50270940304540a733656f0d60405160405180910390a4506001610120565b5060005b92915050565b634e487b7160e01b600052604160045260246000fd5b600082601f83011261014d57600080fd5b81516001600160401b038082111561016757610167610126565b604051601f8301601f19908116603f0116810190828211818310171561018f5761018f610126565b81604052838152602092508660208588010111156101ac57600080fd5b600091505b838210156101ce57858201830151818301840152908201906101b1565b6000602085830101528094505050505092915050565b6000806000606084860312156101f957600080fd5b835160208501519093506001600160401b038082111561021857600080fd5b6102248783880161013c565b9350604086015191508082111561023a57600080fd5b506102478682870161013c565b9150509250925092565b600181811c9082168061026557607f821691505b60208210810361028557634e487b7160e01b600052602260045260246000fd5b50919050565b601f8211156102d7576000816000526020600020601f850160051c810160208610156102b45750805b601f850160051c820191505b818110156102d3578281556001016102c0565b5050505b505050565b81516001600160401b038111156102f5576102f5610126565b610309816103038454610251565b8461028b565b602080601f83116001811461033e57600084156103265750858301515b600019600386901b1c1916600185901b1785556102d3565b600085815260208120601f198616915b8281101561036d5788860151825594840194600190910190840161034e565b508582101561038b5787850151600019600388901b60f8161c191681555b5050505050600190811b01905550565b611ec2806103aa6000396000f3fe608060405234801561001057600080fd5b50600436106101c45760003560e01c80638456cb59116100f9578063bee93ca611610097578063d547741f11610071578063d547741f146103b9578063e63ab1e9146103cc578063e985e9c5146103f3578063e9a9c8501461040657600080fd5b8063bee93ca614610380578063c87b56dd14610393578063d204c45e146103a657600080fd5b8063a217fddf116100d3578063a217fddf14610332578063a22cb4651461033a578063ac9650d81461034d578063b88d4fde1461036d57600080fd5b80638456cb591461030f57806391d148541461031757806395d89b411461032a57600080fd5b806336568abe1161016657806355f804b31161014057806355f804b3146102cb5780635c975abb146102de5780636352211e146102e957806370a08231146102fc57600080fd5b806336568abe1461029d5780633f4ba83a146102b057806342842e0e146102b857600080fd5b8063095ea7b3116101a2578063095ea7b31461023157806323b872dd14610246578063248a9ca3146102595780632f2ff15d1461028a57600080fd5b806301ffc9a7146101c957806306fdde03146101f1578063081812fc14610206575b600080fd5b6101dc6101d7366004611625565b61042d565b60405190151581526020015b60405180910390f35b6101f961044d565b6040516101e89190611692565b6102196102143660046116a5565b6104df565b6040516001600160a01b0390911681526020016101e8565b61024461023f3660046116da565b610508565b005b610244610254366004611704565b610517565b61027c6102673660046116a5565b60009081526007602052604090206001015490565b6040519081526020016101e8565b610244610298366004611740565b6105a7565b6102446102ab366004611740565b6105cc565b610244610604565b6102446102c6366004611704565b610639565b6102446102d9366004611829565b610654565b60085460ff166101dc565b6102196102f73660046116a5565b61066b565b61027c61030a36600461185d565b610676565b6102446106be565b6101dc610325366004611740565b6106f0565b6101f961071b565b61027c600081565b610244610348366004611878565b61072a565b61036061035b3660046118b4565b610735565b6040516101e89190611928565b61024461037b36600461198c565b61081c565b61024461038e366004611ab9565b610833565b6101f96103a13660046116a5565b61091b565b6102446103b4366004611b78565b610a1f565b6102446103c7366004611740565b610a76565b61027c7f65d7a28e3265b37a6474929f336521b332c1681b933f6cb9f3376673440d862a81565b6101dc610401366004611bbb565b610a9b565b61027c7f154c00819833dac601ee5ddded6fda79d9d8b506b911b3dbd54cdb95fe6c368681565b600061043882610ac9565b80610447575061044782610b19565b92915050565b60606000805461045c90611be5565b80601f016020809104026020016040519081016040528092919081815260200182805461048890611be5565b80156104d55780601f106104aa576101008083540402835291602001916104d5565b820191906000526020600020905b8154815290600101906020018083116104b857829003601f168201915b5050505050905090565b60006104ea82610b3e565b506000828152600460205260409020546001600160a01b0316610447565b610513828233610b77565b5050565b6001600160a01b03821661054657604051633250574960e11b8152600060048201526024015b60405180910390fd5b6000610553838333610b84565b9050836001600160a01b0316816001600160a01b0316146105a1576040516364283d7b60e01b81526001600160a01b038086166004830152602482018490528216604482015260640161053d565b50505050565b6000828152600760205260409020600101546105c281610c7f565b6105a18383610c89565b6001600160a01b03811633146105f55760405163334bd91960e11b815260040160405180910390fd5b6105ff8282610d1d565b505050565b7f65d7a28e3265b37a6474929f336521b332c1681b933f6cb9f3376673440d862a61062e81610c7f565b610636610d8a565b50565b6105ff8383836040518060200160405280600081525061081c565b600061065f81610c7f565b600a6105ff8382611c6f565b600061044782610b3e565b60006001600160a01b0382166106a2576040516322718ad960e21b81526000600482015260240161053d565b506001600160a01b031660009081526003602052604090205490565b7f65d7a28e3265b37a6474929f336521b332c1681b933f6cb9f3376673440d862a6106e881610c7f565b610636610ddc565b60009182526007602090815260408084206001600160a01b0393909316845291905290205460ff1690565b60606001805461045c90611be5565b610513338383610e19565b604080516000815260208101909152606090826001600160401b0381111561075f5761075f61176c565b60405190808252806020026020018201604052801561079257816020015b606081526020019060019003908161077d5790505b50915060005b83811015610814576107ef308686848181106107b6576107b6611d44565b90506020028101906107c89190611d5a565b856040516020016107db93929190611da7565b604051602081830303815290604052610eb8565b83828151811061080157610801611d44565b6020908102919091010152600101610798565b505092915050565b610827848484610517565b6105a184848484610f2e565b7f154c00819833dac601ee5ddded6fda79d9d8b506b911b3dbd54cdb95fe6c368661085d81610c7f565b81518351146108c35760405162461bcd60e51b815260206004820152602c60248201527f746f20616e6420697066734d6564617461555249206172726179206c656e677460448201526b0d040daeae6e840dac2e8c6d60a31b606482015260840161053d565b825160005b818110156109145761090c8582815181106108e5576108e5611d44565b60200260200101518583815181106108ff576108ff611d44565b6020026020010151610a1f565b6001016108c8565b5050505050565b606061092682610b3e565b506000828152600660205260408120805461094090611be5565b80601f016020809104026020016040519081016040528092919081815260200182805461096c90611be5565b80156109b95780601f1061098e576101008083540402835291602001916109b9565b820191906000526020600020905b81548152906001019060200180831161099c57829003601f168201915b5050505050905060006109ca611050565b905080516000036109dc575092915050565b815115610a0e5780826040516020016109f6929190611dce565b60405160208183030381529060405292505050919050565b610a178461105f565b949350505050565b7f154c00819833dac601ee5ddded6fda79d9d8b506b911b3dbd54cdb95fe6c3686610a4981610c7f565b60098054906000610a5983611dfd565b9190505550610a6a836009546110c6565b6105ff600954836110e0565b600082815260076020526040902060010154610a9181610c7f565b6105a18383610d1d565b6001600160a01b03918216600090815260056020908152604080832093909416825291909152205460ff1690565b60006001600160e01b031982166380ac58cd60e01b1480610afa57506001600160e01b03198216635b5e139f60e01b145b8061044757506301ffc9a760e01b6001600160e01b0319831614610447565b60006001600160e01b03198216637965db0b60e01b1480610447575061044782611130565b6000818152600260205260408120546001600160a01b03168061044757604051637e27328960e01b81526004810184905260240161053d565b6105ff8383836001611155565b6000828152600260205260408120546001600160a01b0390811690831615610bb157610bb181848661125b565b6001600160a01b03811615610bef57610bce600085600080611155565b6001600160a01b038116600090815260036020526040902080546000190190555b6001600160a01b03851615610c1e576001600160a01b0385166000908152600360205260409020805460010190555b60008481526002602052604080822080546001600160a01b0319166001600160a01b0389811691821790925591518793918516917fddf252ad1be2c89b69c2b068fc378daa952ba7f163c4a11628f55a4df523b3ef91a490505b9392505050565b61063681336112bf565b6000610c9583836106f0565b610d155760008381526007602090815260408083206001600160a01b03861684529091529020805460ff19166001179055610ccd3390565b6001600160a01b0316826001600160a01b0316847f2f8788117e7eff1d82e926ec794901d17c78024a50270940304540a733656f0d60405160405180910390a4506001610447565b506000610447565b6000610d2983836106f0565b15610d155760008381526007602090815260408083206001600160a01b0386168085529252808320805460ff1916905551339286917ff6391f5c32d9c69d2a47ea670b442974b53935d1edc7fd64eb21e047a839171b9190a4506001610447565b610d926112f8565b6008805460ff191690557f5db9ee0a495bf2e6ff9c91a7834c1ba4fdd244a5e8aa4e537bd38aeae4b073aa335b6040516001600160a01b03909116815260200160405180910390a1565b610de461131d565b6008805460ff191660011790557f62e78cea01bee320cd4e420270b5ea74000d11b0c9f74754ebdbfc544b05a258610dbf3390565b6001600160a01b038216610e4b57604051630b61174360e31b81526001600160a01b038316600482015260240161053d565b6001600160a01b03838116600081815260056020908152604080832094871680845294825291829020805460ff191686151590811790915591519182527f17307eab39ab6107e8899845ad3d59bd9653f200f220920489ca2b5937696c31910160405180910390a3505050565b6060600080846001600160a01b031684604051610ed59190611e16565b600060405180830381855af49150503d8060008114610f10576040519150601f19603f3d011682016040523d82523d6000602084013e610f15565b606091505b5091509150610f25858383611341565b95945050505050565b6001600160a01b0383163b156105a157604051630a85bd0160e11b81526001600160a01b0384169063150b7a0290610f70903390889087908790600401611e32565b6020604051808303816000875af1925050508015610fab575060408051601f3d908101601f19168201909252610fa891810190611e6f565b60015b611014573d808015610fd9576040519150601f19603f3d011682016040523d82523d6000602084013e610fde565b606091505b50805160000361100c57604051633250574960e11b81526001600160a01b038516600482015260240161053d565b805181602001fd5b6001600160e01b03198116630a85bd0160e11b1461091457604051633250574960e11b81526001600160a01b038516600482015260240161053d565b6060600a805461045c90611be5565b606061106a82610b3e565b506000611075611050565b905060008151116110955760405180602001604052806000815250610c78565b8061109f8461139d565b6040516020016110b0929190611dce565b6040516020818303038152906040529392505050565b61051382826040518060200160405280600081525061142f565b60008281526006602052604090206110f88282611c6f565b506040518281527ff8e1a15aba9398e019f0b49df1a4fde98ee17ae345cb5f6b5e2c27f5033e8ce79060200160405180910390a15050565b60006001600160e01b03198216632483248360e11b1480610447575061044782610ac9565b808061116957506001600160a01b03821615155b1561122b57600061117984610b3e565b90506001600160a01b038316158015906111a55750826001600160a01b0316816001600160a01b031614155b80156111b857506111b68184610a9b565b155b156111e15760405163a9fbf51f60e01b81526001600160a01b038416600482015260240161053d565b81156112295783856001600160a01b0316826001600160a01b03167f8c5be1e5ebec7d5bd14f71427d1e84f3dd0314c0f7b2291e5b200ac8c7c3b92560405160405180910390a45b505b5050600090815260046020526040902080546001600160a01b0319166001600160a01b0392909216919091179055565b611266838383611446565b6105ff576001600160a01b03831661129457604051637e27328960e01b81526004810182905260240161053d565b60405163177e802f60e01b81526001600160a01b03831660048201526024810182905260440161053d565b6112c982826106f0565b6105135760405163e2517d3f60e01b81526001600160a01b03821660048201526024810183905260440161053d565b60085460ff1661131b57604051638dfc202b60e01b815260040160405180910390fd5b565b60085460ff161561131b5760405163d93c066560e01b815260040160405180910390fd5b60608261135657611351826114a9565b610c78565b815115801561136d57506001600160a01b0384163b155b1561139657604051639996b31560e01b81526001600160a01b038516600482015260240161053d565b5080610c78565b606060006113aa836114d2565b60010190506000816001600160401b038111156113c9576113c961176c565b6040519080825280601f01601f1916602001820160405280156113f3576020820181803683370190505b5090508181016020015b600019016f181899199a1a9b1b9c1cb0b131b232b360811b600a86061a8153600a85049450846113fd57509392505050565b61143983836115aa565b6105ff6000848484610f2e565b60006001600160a01b03831615801590610a175750826001600160a01b0316846001600160a01b0316148061148057506114808484610a9b565b80610a175750506000908152600460205260409020546001600160a01b03908116911614919050565b8051156114b95780518082602001fd5b604051630a12f52160e11b815260040160405180910390fd5b60008072184f03e93ff9f4daa797ed6e38ed64bf6a1f0160401b83106115115772184f03e93ff9f4daa797ed6e38ed64bf6a1f0160401b830492506040015b6d04ee2d6d415b85acef8100000000831061153d576d04ee2d6d415b85acef8100000000830492506020015b662386f26fc10000831061155b57662386f26fc10000830492506010015b6305f5e1008310611573576305f5e100830492506008015b612710831061158757612710830492506004015b60648310611599576064830492506002015b600a83106104475760010192915050565b6001600160a01b0382166115d457604051633250574960e11b81526000600482015260240161053d565b60006115e283836000610b84565b90506001600160a01b038116156105ff576040516339e3563760e11b81526000600482015260240161053d565b6001600160e01b03198116811461063657600080fd5b60006020828403121561163757600080fd5b8135610c788161160f565b60005b8381101561165d578181015183820152602001611645565b50506000910152565b6000815180845261167e816020860160208601611642565b601f01601f19169290920160200192915050565b602081526000610c786020830184611666565b6000602082840312156116b757600080fd5b5035919050565b80356001600160a01b03811681146116d557600080fd5b919050565b600080604083850312156116ed57600080fd5b6116f6836116be565b946020939093013593505050565b60008060006060848603121561171957600080fd5b611722846116be565b9250611730602085016116be565b9150604084013590509250925092565b6000806040838503121561175357600080fd5b82359150611763602084016116be565b90509250929050565b634e487b7160e01b600052604160045260246000fd5b604051601f8201601f191681016001600160401b03811182821017156117aa576117aa61176c565b604052919050565b60006001600160401b038311156117cb576117cb61176c565b6117de601f8401601f1916602001611782565b90508281528383830111156117f257600080fd5b828260208301376000602084830101529392505050565b600082601f83011261181a57600080fd5b610c78838335602085016117b2565b60006020828403121561183b57600080fd5b81356001600160401b0381111561185157600080fd5b610a1784828501611809565b60006020828403121561186f57600080fd5b610c78826116be565b6000806040838503121561188b57600080fd5b611894836116be565b9150602083013580151581146118a957600080fd5b809150509250929050565b600080602083850312156118c757600080fd5b82356001600160401b03808211156118de57600080fd5b818501915085601f8301126118f257600080fd5b81358181111561190157600080fd5b8660208260051b850101111561191657600080fd5b60209290920196919550909350505050565b600060208083016020845280855180835260408601915060408160051b87010192506020870160005b8281101561197f57603f1988860301845261196d858351611666565b94509285019290850190600101611951565b5092979650505050505050565b600080600080608085870312156119a257600080fd5b6119ab856116be565b93506119b9602086016116be565b92506040850135915060608501356001600160401b038111156119db57600080fd5b8501601f810187136119ec57600080fd5b6119fb878235602084016117b2565b91505092959194509250565b60006001600160401b03821115611a2057611a2061176c565b5060051b60200190565b600082601f830112611a3b57600080fd5b81356020611a50611a4b83611a07565b611782565b82815260059290921b84018101918181019086841115611a6f57600080fd5b8286015b84811015611aae5780356001600160401b03811115611a925760008081fd5b611aa08986838b0101611809565b845250918301918301611a73565b509695505050505050565b60008060408385031215611acc57600080fd5b82356001600160401b0380821115611ae357600080fd5b818501915085601f830112611af757600080fd5b81356020611b07611a4b83611a07565b82815260059290921b84018101918181019089841115611b2657600080fd5b948201945b83861015611b4b57611b3c866116be565b82529482019490820190611b2b565b96505086013592505080821115611b6157600080fd5b50611b6e85828601611a2a565b9150509250929050565b60008060408385031215611b8b57600080fd5b611b94836116be565b915060208301356001600160401b03811115611baf57600080fd5b611b6e85828601611809565b60008060408385031215611bce57600080fd5b611bd7836116be565b9150611763602084016116be565b600181811c90821680611bf957607f821691505b602082108103611c1957634e487b7160e01b600052602260045260246000fd5b50919050565b601f8211156105ff576000816000526020600020601f850160051c81016020861015611c485750805b601f850160051c820191505b81811015611c6757828155600101611c54565b505050505050565b81516001600160401b03811115611c8857611c8861176c565b611c9c81611c968454611be5565b84611c1f565b602080601f831160018114611cd15760008415611cb95750858301515b600019600386901b1c1916600185901b178555611c67565b600085815260208120601f198616915b82811015611d0057888601518255948401946001909101908401611ce1565b5085821015611d1e5787850151600019600388901b60f8161c191681555b5050505050600190811b01905550565b634e487b7160e01b600052601160045260246000fd5b634e487b7160e01b600052603260045260246000fd5b6000808335601e19843603018112611d7157600080fd5b8301803591506001600160401b03821115611d8b57600080fd5b602001915036819003821315611da057600080fd5b9250929050565b828482376000838201600081528351611dc4818360208801611642565b0195945050505050565b60008351611de0818460208801611642565b835190830190611df4818360208801611642565b01949350505050565b600060018201611e0f57611e0f611d2e565b5060010190565b60008251611e28818460208701611642565b9190910192915050565b6001600160a01b0385811682528416602082015260408101839052608060608201819052600090611e6590830184611666565b9695505050505050565b600060208284031215611e8157600080fd5b8151610c788161160f56fea2646970667358221220a6e1245cf237b33d2b6f495c33d38ca17e083f3e5b4d482f5d747cf82473b9f464736f6c634300081900330000000000000000000000000000000000000000000000010000000000000000000000000000000000000000000000000000000000000000000000000000006000000000000000000000000000000000000000000000000000000000000000a0000000000000000000000000000000000000000000000000000000000000001f4e6f6e2046756e6769626c6520556c74696d617465204368616d70696f6e730000000000000000000000000000000000000000000000000000000000000000074e464348414d5000000000000000000000000000000000000000000000000000",
        "nonce": "0x24",
        "chainId": "0x2105"
      },
      "additionalContracts": [],
      "isFixedGasLimit": false
    },
    {
      "hash": "0x5ccdeda133e4ee1dd291e8577ffd5fd6be8231473ce1840caa08c1ed20d78e68",
      "transactionType": "CALL",
      "contractName": "NFTLegacyMulticall",
      "contractAddress": "0x0b522e4324f725eb646b5b8ad1415ca0dbaa7eb1",
      "function": "setBaseURI(string)",
      "arguments": [
        "\"https://ipfs.production.ultimate-champions.com/ipfs/\""
      ],
      "transaction": {
        "from": "0x5ea4e6fa3967aafbdeb209cf230abb65b570195a",
        "to": "0x0b522e4324f725eb646b5b8ad1415ca0dbaa7eb1",
        "gas": "0x1f19e",
        "value": "0x0",
        "input": "0x55f804b30000000000000000000000000000000000000000000000000000000000000020000000000000000000000000000000000000000000000000000000000000003468747470733a2f2f697066732e70726f64756374696f6e2e756c74696d6174652d6368616d70696f6e732e636f6d2f697066732f000000000000000000000000",
        "nonce": "0x25",
        "chainId": "0x2105"
      },
      "additionalContracts": [],
      "isFixedGasLimit": false
    },
    {
      "hash": "0x8ec3a514a54925f25f6411045b1298c4f30b63963a192a6b7066ccd3466303c4",
      "transactionType": "CALL",
      "contractName": "NFTLegacyMulticall",
      "contractAddress": "0x0b522e4324f725eb646b5b8ad1415ca0dbaa7eb1",
      "function": "grantRole(bytes32,address)",
      "arguments": [
        "0x0000000000000000000000000000000000000000000000000000000000000000",
        "0x6bfE9e140C4f5562b97728F54670f8B1dba490Fa"
      ],
      "transaction": {
        "from": "0x5ea4e6fa3967aafbdeb209cf230abb65b570195a",
        "to": "0x0b522e4324f725eb646b5b8ad1415ca0dbaa7eb1",
        "gas": "0x11424",
        "value": "0x0",
        "input": "0x2f2ff15d00000000000000000000000000000000000000000000000000000000000000000000000000000000000000006bfe9e140c4f5562b97728f54670f8b1dba490fa",
        "nonce": "0x26",
        "chainId": "0x2105"
      },
      "additionalContracts": [],
      "isFixedGasLimit": false
    },
    {
      "hash": "0xbb2772442fd7f5bae3711714ebdae8abbed0567fa35c6da34a51ecbfedc7095d",
      "transactionType": "CALL",
      "contractName": "NFTLegacyMulticall",
      "contractAddress": "0x0b522e4324f725eb646b5b8ad1415ca0dbaa7eb1",
      "function": "grantRole(bytes32,address)",
      "arguments": [
        "0x154c00819833dac601ee5ddded6fda79d9d8b506b911b3dbd54cdb95fe6c3686",
        "0x18B7517cf34a3277f3DB3381c3B2679Cc3dc1116"
      ],
      "transaction": {
        "from": "0x5ea4e6fa3967aafbdeb209cf230abb65b570195a",
        "to": "0x0b522e4324f725eb646b5b8ad1415ca0dbaa7eb1",
        "gas": "0x12684",
        "value": "0x0",
        "input": "0x2f2ff15d154c00819833dac601ee5ddded6fda79d9d8b506b911b3dbd54cdb95fe6c368600000000000000000000000018b7517cf34a3277f3db3381c3b2679cc3dc1116",
        "nonce": "0x27",
        "chainId": "0x2105"
      },
      "additionalContracts": [],
      "isFixedGasLimit": false
    },
    {
      "hash": "0x5aefcc2f391a3a6df12d27ab53b0005e00447e0f65a9721785f5cc3ecbbb58d8",
      "transactionType": "CALL",
      "contractName": "NFTLegacyMulticall",
      "contractAddress": "0x0b522e4324f725eb646b5b8ad1415ca0dbaa7eb1",
      "function": "grantRole(bytes32,address)",
      "arguments": [
        "0x65d7a28e3265b37a6474929f336521b332c1681b933f6cb9f3376673440d862a",
        "0xb1a6722B5Bc3B22eF8017a5Bf2787b50a79DC020"
      ],
      "transaction": {
        "from": "0x5ea4e6fa3967aafbdeb209cf230abb65b570195a",
        "to": "0x0b522e4324f725eb646b5b8ad1415ca0dbaa7eb1",
        "gas": "0x11637",
        "value": "0x0",
        "input": "0x2f2ff15d65d7a28e3265b37a6474929f336521b332c1681b933f6cb9f3376673440d862a000000000000000000000000b1a6722b5bc3b22ef8017a5bf2787b50a79dc020",
        "nonce": "0x28",
        "chainId": "0x2105"
      },
      "additionalContracts": [],
      "isFixedGasLimit": false
    },
    {
      "hash": "0x674004da0cd39c1ce454222fec702219a370cbabf7bc1d638a756960588d4e00",
      "transactionType": "CALL",
      "contractName": "NFTLegacyMulticall",
      "contractAddress": "0x0b522e4324f725eb646b5b8ad1415ca0dbaa7eb1",
      "function": "renounceRole(bytes32,address)",
      "arguments": [
        "0x0000000000000000000000000000000000000000000000000000000000000000",
        "0x5ea4e6fa3967AafBdEb209cf230abB65B570195A"
      ],
      "transaction": {
        "from": "0x5ea4e6fa3967aafbdeb209cf230abb65b570195a",
        "to": "0x0b522e4324f725eb646b5b8ad1415ca0dbaa7eb1",
        "gas": "0x8cbc",
        "value": "0x0",
        "input": "0x36568abe00000000000000000000000000000000000000000000000000000000000000000000000000000000000000005ea4e6fa3967aafbdeb209cf230abb65b570195a",
        "nonce": "0x29",
        "chainId": "0x2105"
      },
      "additionalContracts": [],
      "isFixedGasLimit": false
    }
  ],
  "receipts": [
    {
      "status": "0x1",
      "cumulativeGasUsed": "0x9fd22d",
      "logs": [
        {
          "address": "0x0b522e4324f725eb646b5b8ad1415ca0dbaa7eb1",
          "topics": [
            "0x2f8788117e7eff1d82e926ec794901d17c78024a50270940304540a733656f0d",
            "0x0000000000000000000000000000000000000000000000000000000000000000",
            "0x0000000000000000000000005ea4e6fa3967aafbdeb209cf230abb65b570195a",
            "0x0000000000000000000000005ea4e6fa3967aafbdeb209cf230abb65b570195a"
          ],
          "data": "0x",
          "blockHash": "0x0532a541b8e26d4405ae0415f3bc3f424c6bc1ec2d0299c3d5fac526c25d0703",
          "blockNumber": "0xf8c68d",
          "transactionHash": "0x379a9e6fe97a81d5b9f773d870258342274dddf04e61f00b2ea3f7c45708eeee",
          "transactionIndex": "0x2e",
          "logIndex": "0xc4",
          "removed": false
        }
      ],
      "logsBloom": "0x00000004000000000000000000000000000000000000000000000000000000000000000000000000000000080000000000000002000000000000000000000000000000000000000000000000000000000000000000000000000000000000000000000000020000200000000000000800000000000000000000000000000000000000000000000000000000000000000000000000000000000000000000000000000000000000000000000000000000000000000000000000001000000000000000000000000000000000100000000000000000000000000100000000000020000000000000000000000000000000000040000000000000200000000000000000",
      "type": "0x2",
      "transactionHash": "0x379a9e6fe97a81d5b9f773d870258342274dddf04e61f00b2ea3f7c45708eeee",
      "transactionIndex": "0x2e",
      "blockHash": "0x0532a541b8e26d4405ae0415f3bc3f424c6bc1ec2d0299c3d5fac526c25d0703",
      "blockNumber": "0xf8c68d",
      "gasUsed": "0x1c7409",
      "effectiveGasPrice": "0x3274cc",
      "from": "0x5ea4e6fa3967aafbdeb209cf230abb65b570195a",
      "to": null,
      "contractAddress": "0x0b522e4324f725eb646b5b8ad1415ca0dbaa7eb1",
      "l1BaseFeeScalar": "0x44d",
      "l1BlobBaseFee": "0x1",
      "l1BlobBaseFeeScalar": "0xa118b",
      "l1Fee": "0x77bf52435b",
      "l1GasPrice": "0xc55e5298",
      "l1GasUsed": "0x22710"
    },
    {
      "status": "0x1",
      "cumulativeGasUsed": "0xa13a72",
      "logs": [],
      "logsBloom": "0x00000000000000000000000000000000000000000000000000000000000000000000000000000000000000000000000000000000000000000000000000000000000000000000000000000000000000000000000000000000000000000000000000000000000000000000000000000000000000000000000000000000000000000000000000000000000000000000000000000000000000000000000000000000000000000000000000000000000000000000000000000000000000000000000000000000000000000000000000000000000000000000000000000000000000000000000000000000000000000000000000000000000000000000000000000000",
      "type": "0x2",
      "transactionHash": "0x5ccdeda133e4ee1dd291e8577ffd5fd6be8231473ce1840caa08c1ed20d78e68",
      "transactionIndex": "0x2f",
      "blockHash": "0x0532a541b8e26d4405ae0415f3bc3f424c6bc1ec2d0299c3d5fac526c25d0703",
      "blockNumber": "0xf8c68d",
      "gasUsed": "0x16845",
      "effectiveGasPrice": "0x3274cc",
      "from": "0x5ea4e6fa3967aafbdeb209cf230abb65b570195a",
      "to": "0x0b522e4324f725eb646b5b8ad1415ca0dbaa7eb1",
      "contractAddress": null,
      "l1BaseFeeScalar": "0x44d",
      "l1BlobBaseFee": "0x1",
      "l1BlobBaseFeeScalar": "0xa118b",
      "l1Fee": "0x28be8720e",
      "l1GasPrice": "0xc55e5298",
      "l1GasUsed": "0xbb8"
    },
    {
      "status": "0x1",
      "cumulativeGasUsed": "0xa2025f",
      "logs": [
        {
          "address": "0x0b522e4324f725eb646b5b8ad1415ca0dbaa7eb1",
          "topics": [
            "0x2f8788117e7eff1d82e926ec794901d17c78024a50270940304540a733656f0d",
            "0x0000000000000000000000000000000000000000000000000000000000000000",
            "0x0000000000000000000000006bfe9e140c4f5562b97728f54670f8b1dba490fa",
            "0x0000000000000000000000005ea4e6fa3967aafbdeb209cf230abb65b570195a"
          ],
          "data": "0x",
          "blockHash": "0x0532a541b8e26d4405ae0415f3bc3f424c6bc1ec2d0299c3d5fac526c25d0703",
          "blockNumber": "0xf8c68d",
          "transactionHash": "0x8ec3a514a54925f25f6411045b1298c4f30b63963a192a6b7066ccd3466303c4",
          "transactionIndex": "0x30",
          "logIndex": "0xc5",
          "removed": false
        }
      ],
      "logsBloom": "0x00000004000000000000000000000000000000000000000000000000000000000000000000000000000000080000000000000402000000000000000000000000000000000000000000000000000000000000000000000000000000000000000000000000020000200000000000000800000000000000000000000000000000000000000000000000000000000000000000000000000000000000000000000000000000000000000000000000000080000000000000000000801000000000000000000000000000000000100000000000000000000000000100000000000020000000000000000000000000000000000040000000000000200000000000000000",
      "type": "0x2",
      "transactionHash": "0x8ec3a514a54925f25f6411045b1298c4f30b63963a192a6b7066ccd3466303c4",
      "transactionIndex": "0x30",
      "blockHash": "0x0532a541b8e26d4405ae0415f3bc3f424c6bc1ec2d0299c3d5fac526c25d0703",
      "blockNumber": "0xf8c68d",
      "gasUsed": "0xc7ed",
      "effectiveGasPrice": "0x3274cc",
      "from": "0x5ea4e6fa3967aafbdeb209cf230abb65b570195a",
      "to": "0x0b522e4324f725eb646b5b8ad1415ca0dbaa7eb1",
      "contractAddress": null,
      "l1BaseFeeScalar": "0x44d",
      "l1BlobBaseFee": "0x1",
      "l1BlobBaseFeeScalar": "0xa118b",
      "l1Fee": "0x1f6675cae",
      "l1GasPrice": "0xc55e5298",
      "l1GasUsed": "0x908"
    },
    {
      "status": "0x1",
      "cumulativeGasUsed": "0xa2cbc0",
      "logs": [
        {
          "address": "0x0b522e4324f725eb646b5b8ad1415ca0dbaa7eb1",
          "topics": [
            "0x2f8788117e7eff1d82e926ec794901d17c78024a50270940304540a733656f0d",
            "0x154c00819833dac601ee5ddded6fda79d9d8b506b911b3dbd54cdb95fe6c3686",
            "0x00000000000000000000000018b7517cf34a3277f3db3381c3b2679cc3dc1116",
            "0x0000000000000000000000005ea4e6fa3967aafbdeb209cf230abb65b570195a"
          ],
          "data": "0x",
          "blockHash": "0x0532a541b8e26d4405ae0415f3bc3f424c6bc1ec2d0299c3d5fac526c25d0703",
          "blockNumber": "0xf8c68d",
          "transactionHash": "0xbb2772442fd7f5bae3711714ebdae8abbed0567fa35c6da34a51ecbfedc7095d",
          "transactionIndex": "0x31",
          "logIndex": "0xc6",
          "removed": false
        }
      ],
      "logsBloom": "0x00000004000000000000000000000000000002000000000000000000000000000000000000000000000000080000000000000002000000000080000000000000000000000200000000000000000000000000000000000000000000000000000000000000000000200000000000000000000000000000000000000000000000010000000000000000000000000000000000000000000000000000000000000000000000000000000000000000000000000000000000000000001000000000000000000000000000000000100000000000000000000000000100000000000000000000000000000000000100000000000040010000000000200000000000000000",
      "type": "0x2",
      "transactionHash": "0xbb2772442fd7f5bae3711714ebdae8abbed0567fa35c6da34a51ecbfedc7095d",
      "transactionIndex": "0x31",
      "blockHash": "0x0532a541b8e26d4405ae0415f3bc3f424c6bc1ec2d0299c3d5fac526c25d0703",
      "blockNumber": "0xf8c68d",
      "gasUsed": "0xc961",
      "effectiveGasPrice": "0x3274cc",
      "from": "0x5ea4e6fa3967aafbdeb209cf230abb65b570195a",
      "to": "0x0b522e4324f725eb646b5b8ad1415ca0dbaa7eb1",
      "contractAddress": null,
      "l1BaseFeeScalar": "0x44d",
      "l1BlobBaseFee": "0x1",
      "l1BlobBaseFeeScalar": "0xa118b",
      "l1Fee": "0x24c74a308",
      "l1GasPrice": "0xc55e5298",
      "l1GasUsed": "0xa94"
    },
    {
      "status": "0x1",
      "cumulativeGasUsed": "0xa3952d",
      "logs": [
        {
          "address": "0x0b522e4324f725eb646b5b8ad1415ca0dbaa7eb1",
          "topics": [
            "0x2f8788117e7eff1d82e926ec794901d17c78024a50270940304540a733656f0d",
            "0x65d7a28e3265b37a6474929f336521b332c1681b933f6cb9f3376673440d862a",
            "0x000000000000000000000000b1a6722b5bc3b22ef8017a5bf2787b50a79dc020",
            "0x0000000000000000000000005ea4e6fa3967aafbdeb209cf230abb65b570195a"
          ],
          "data": "0x",
          "blockHash": "0x0532a541b8e26d4405ae0415f3bc3f424c6bc1ec2d0299c3d5fac526c25d0703",
          "blockNumber": "0xf8c68d",
          "transactionHash": "0x5aefcc2f391a3a6df12d27ab53b0005e00447e0f65a9721785f5cc3ecbbb58d8",
          "transactionIndex": "0x32",
          "logIndex": "0xc7",
          "removed": false
        }
      ],
      "logsBloom": "0x00000004000000000000000000000000000000080000000000000000000000000000000000000000000000080000000000000002000000000000000000000000080000000000000000000000000000000000000000000000000000000000000000000000000000200000000000000000000000000000000000000000000000000000000000000000000000000000008000000000000000000000000000000000000000000000000000000000000000000000000000000000001000000000000000000000000000000000100000000000000000000000000100002000080000000000000000000000000000000000000040000400000000200000000000000000",
      "type": "0x2",
      "transactionHash": "0x5aefcc2f391a3a6df12d27ab53b0005e00447e0f65a9721785f5cc3ecbbb58d8",
      "transactionIndex": "0x32",
      "blockHash": "0x0532a541b8e26d4405ae0415f3bc3f424c6bc1ec2d0299c3d5fac526c25d0703",
      "blockNumber": "0xf8c68d",
      "gasUsed": "0xc96d",
      "effectiveGasPrice": "0x3274cc",
      "from": "0x5ea4e6fa3967aafbdeb209cf230abb65b570195a",
      "to": "0x0b522e4324f725eb646b5b8ad1415ca0dbaa7eb1",
      "contractAddress": null,
      "l1BaseFeeScalar": "0x44d",
      "l1BlobBaseFee": "0x1",
      "l1BlobBaseFeeScalar": "0xa118b",
      "l1Fee": "0x24f1030cc",
      "l1GasPrice": "0xc55e5298",
      "l1GasUsed": "0xaa0"
    },
    {
      "status": "0x1",
      "cumulativeGasUsed": "0xa3f568",
      "logs": [
        {
          "address": "0x0b522e4324f725eb646b5b8ad1415ca0dbaa7eb1",
          "topics": [
            "0xf6391f5c32d9c69d2a47ea670b442974b53935d1edc7fd64eb21e047a839171b",
            "0x0000000000000000000000000000000000000000000000000000000000000000",
            "0x0000000000000000000000005ea4e6fa3967aafbdeb209cf230abb65b570195a",
            "0x0000000000000000000000005ea4e6fa3967aafbdeb209cf230abb65b570195a"
          ],
          "data": "0x",
          "blockHash": "0x0532a541b8e26d4405ae0415f3bc3f424c6bc1ec2d0299c3d5fac526c25d0703",
          "blockNumber": "0xf8c68d",
          "transactionHash": "0x674004da0cd39c1ce454222fec702219a370cbabf7bc1d638a756960588d4e00",
          "transactionIndex": "0x33",
          "logIndex": "0xc8",
          "removed": false
        }
      ],
      "logsBloom": "0x00000000000000000000000000000000000000000000000000000000000000000000000000000000000000080000000000200002000000000000000000000000000000000000000000000000000000000000000000000000000000000000000040000000020000200000000000000800000000000000000000000000000000000000000040000000000000000000000000000000000000000000000000000000000000000000000000000000000000000000000000000000000000000000000000000000000000000000100000000000000000000000000000000000000020000000000000000000000000000000000040000000000000200000000000000000",
      "type": "0x2",
      "transactionHash": "0x674004da0cd39c1ce454222fec702219a370cbabf7bc1d638a756960588d4e00",
      "transactionIndex": "0x33",
      "blockHash": "0x0532a541b8e26d4405ae0415f3bc3f424c6bc1ec2d0299c3d5fac526c25d0703",
      "blockNumber": "0xf8c68d",
      "gasUsed": "0x603b",
      "effectiveGasPrice": "0x3274cc",
      "from": "0x5ea4e6fa3967aafbdeb209cf230abb65b570195a",
      "to": "0x0b522e4324f725eb646b5b8ad1415ca0dbaa7eb1",
      "contractAddress": null,
      "l1BaseFeeScalar": "0x44d",
      "l1BlobBaseFee": "0x1",
      "l1BlobBaseFeeScalar": "0xa118b",
      "l1Fee": "0x1f588d817",
      "l1GasPrice": "0xc55e5298",
      "l1GasUsed": "0x904"
    }
  ],
  "libraries": [],
  "pending": [],
  "returns": {},
  "timestamp": 1719396886,
  "chain": 8453,
  "commit": "2673043"
}